:020000020000FC
:0200000089C0B5
:02001800E2C341
:10005400945F3F60ED60A16155620C63C36380648B
:10006400345AE55A815B3B5CDB5C805D405EE85E54
:100074000080D0780872A26B9765E45F825A6E554F
:10008400A2501B4CD647CE430040683C0439D135BE
:1000940000060C13191F24292E33363A3C3F4041E5
:1000A4004241403F3C3A36332E29241F19130C0693
:1000B40000FAF4EDE7E1DCD7D2CDCAC6C4C1C0BFB3
:1000C400BEBFC0C1C4C6CACDD2D7DCE1E7EDF4FAE5
:1000D40008C10BC114C119C120C12DC131C132C124
:1000E4003FC13FC13FC142C14EC14FC16EC174C186
:1000F4008AC18AC191C196C196C196C196C1B0C147
:10010400B0C1B0C1B0C1B6C1BAC1BAC1BAC1BAC135
:1001140004E00EBF0FE50DBF55D2BB9A8F9A00E8DD
:100124000CBF03BD09E603BF05BD00E109BF02E042
:100134000BBD00E00ABD00E00FBD09E00EBD7894E0
:1001440088279927019600000000000000000000A5
:100154000000F8CF809360009093610000912A0121
:100164000A9519F413D00091240100932A01C2E6E0
:10017400D0E089D1C1E9D0E086D1C0ECD0E083D110
:10018400CFEED0E080D188279927089500912001EF
:10019400EEE9F0E1E00F0027F01FF491FF0FFF0FED
:1001A400E2E201E1F00F00E110912201019FE00D74
:1001B400F11D772470922C017394C2E6D0E028D00C
:1001C400C1E9D0E025D0C0ECD0E022D0CFEED0E021
:1001D4001FD0009123011091210100902C0101FCFA
:1001E40012C000FC0FC000912201102F03950034AF
:1001F40061F4002710912001139500901E01101541
:1002040009F411279FD2109320010093220108952D
:1002140000270C8F0D8F0B8F759110EF17237F70B4
:10022400659105914FE04023007F0295102B559175
:10023400FF93EF938824212E062F072B41F470940B
:1002440000912B01072100932B0170940AC069A32C
:100254007AA300270DA30EA3112309F4188D188F78
:100264008394222039F0ADE2B2E0A20D0027B01F42
:100274000C910EA7EAE6E40FFF272F921F9309952E
:100284001F912F90062F072B11F0698F7A8F87FC0F
:1002940003C080FE22C006C080FC1FC02220E9F0FB
:1002A4002116D9F008E0109FADE2B1E0A00DB11D18
:1002B4000D910C870D910D870D910E870D910F8770
:1002C4000D91088B0D91098B0D910A870D910B8768
:1002D40000912B01072900932B01770CEF91FF91DB
:1002E40008955C8F00270D8F08950FEF8CE190E047
:1002F40089A39AA35F8F08A301E00B8F089580EB75
:1003040096E000275523B9F3F3CF8094898D9A8D15
:1003140068177907000BBC01EDCF1BA1052F0F70E7
:1003240011F0107F102B507F11F01F70152B1BA3A1
:1003340004E00B8F0895809403E0698D7A8D13C0D7
:1003440006E011C01CA1052F0F7011F0107F102BB7
:10035400507F11F01F70152B1CA308E00B8F08951C
:100364000895089502E00B8F5E8F08955093210144
:1003740000912C0101FD28C0086002FD22C0002468
:10038400009223011EC05EA7089500912C0101FD77
:100394001BC0152F12951F704AE0419F5F70500DCE
:1003A40003FD0CC01091200100901E01139510153F
:1003B40019F41127C7D15527109321015093230114
:1003C4000460016000932C010895E52FE07FE2951D
:1003D400E658FF275F7009945523A1F0513280F04D
:1003E40050932501552E662402E3302E05EB402E52
:1003F400DBD1110C221C10922601209227010895B2
:100404005093240108950895098D1A8D0024051B25
:100414001009098F1A8F0895098D1A8D0024050F6C
:10042400101DF7CF0895089508955523A9F008A540
:10043400002311F458A703C00A9508A761F00FA17F
:1004440000932301009120010093210100912C01CC
:10045400026000932C010895009122010FA30895D6
:100464000895089508950EA5050F013408F000E4D9
:100474000EA708950EA5051BD8F70027F9CF0895F8
:10048400089508950895598C6A8C0EA50DA71C8DA6
:100494001123C9F00D8D002381F00A9500FF1295F8
:1004A4001F70E4E7E10FE10FFF2775908490550C6E
:1004B400661C6AD1532C642C0D8D0395033008F00F
:1004C40000270D8F50C000912A01009024010015CF
:1004D4000B8C51F100FE17C049A15AA1112708A1A4
:1004E40000230F8D31F4500E611E5416650648F03A
:1004F40006C0501A610A18F04515560510F0542E1E
:10050400652E598E6A8E01FE0FC01E8C1EA5012D0C
:10051400007F31F00295100F113428F010E403C06D
:10052400111908F411271EA702FE0EC01BA10DA16C
:100534002CD00DA3002711201AF0510C601E13C0FB
:1005440011945118600A0FC003FE0DC01CA10EA126
:100554001CD00EA30EA5010D12F4002703C0013414
:1005640008F000E40DA7188DADE4B2E0A10F002758
:10057400B01F0C91E4E5E00FE00FFF2735904490A5
:1005840013D10D8A1E8A2F8A0895412E1F70E4E923
:10059400E00FFF274491110F13954103001C111C18
:1005A400001C111C17FC139420902A013090240184
:1005B400231439F0142D12951F70010F013408F023
:1005C4000054089500E800938D000093BC0000934C
:1005D400EB0000931A0106E0009324010DE7009359
:1005E4002501502E00DF01E000932A010093280129
:1005F40000E000932901ECE9F0E1049100931E016D
:1006040000270093200100932201009380000093AF
:100614008E000093BD000093EC0000931B01009337
:1006240090000093BF000093EE0000931D0100931F
:100634007A000093A9000093D80000930701009367
:100644002B0180D0CAE6D0E079D078D0C9E9D0E0D7
:1006540075D074D0C8ECD0E071D070D0C7EFD0E0C2
:100664006DD06CD0EEE9F0E130E811270591101758
:1006740008F4102F3A95D1F7139510931F01E3E175
:10068400FDE0ADE2B2E000270D933FE104910D934C
:100694007E963A95D9F7E2E1FDE0ADE4B2E00027B9
:1006A4000D933FE104910F700D937E963A95D1F727
:1006B400E0E1FDE0CDE2D1E040D082E291E10091C1
:1006C4001F01900F900F900F900F3FE19F938F9316
:1006D40055246624F590E590EE0CFF1C3296759136
:1006E4006591660F771F55914591440F551F0E2D47
:1006F4000F2909F1539489939993552311F44330A5
:10070400A0F06394860F971F89939993840F951F84
:10071400019789939993599269928F919F918E0D24
:100724009F1D76963A9591F608958E0D9F1D01971B
:1007340089939993EECF01D0F0CF269600270993A1
:100744000993089500240092890000928A0000927F
:100754008800009287000092B8000092B9000092CD
:10076400B7000092B6000092E7000092E800009201
:10077400E6000092E5000092160100921701009233
:100784001501009214010895689C412C302C579C4B
:10079400212C679C200C311C0024401C589C200CEC
:1007A400311C0024401C08952224112400240394A5
:1007B400112700278894331C441C111F001F18F0B4
:1007C4001515060520F015190609089401C088942A
:1007D400001C111C221C78F708952FB72F931F9328
:1007E400EF93FF930F921F922F928F939F931091E9
:1007F4006A0010FF45C0E0916400F091650020910B
:100804008D00009063000094209D020E1127111D9D
:100814002491205800906300209D020E111D105851
:100824000090620010907400010C0092620000902D
:10083400630010907500011C0092630010F4209373
:100844008D0010907600E11D112011F020938D0091
:100854001124F11D209168002E17209169002F07A3
:1008640040F4E0916600F091670020916B002093C2
:100874006A00E0936400F093650020918E00220FDB
:100884001203C0011091F70010FF45C0E091F10080
:10089400F091F20020911A010090F0000094209D44
:1008A400020E1127111D249120580090F000209D64
:1008B400020E111D10580090EF0010900101010C60
:1008C4000092EF000090F00010900201011C0092D1
:1008D400F00010F420931A0110900301E11D11207F
:1008E40011F020931A011124F11D2091F5002E1707
:1008F4002091F6002F0740F4E091F300F091F4000A
:100904002091F8002093F700E093F100F093F200B7
:1009140020911B01220F1203800D911D90589CBF42
:100924001091990010FF45C0E0919300F09194005C
:100934002091BC00009092000094209D020E11278B
:10094400111D2491205800909200209D020E111D2B
:100954001058009091001090A300010C0092910097
:10096400009092001090A400011C0092920010F4D8
:100974002093BC001090A500E11D112011F02093DC
:10098400BC001124F11D209197002E17209198008E
:100994002F0740F4E0919500F091960020919A0081
:1009A40020939900E0939300F09394002091BD006C
:1009B400220F1203C0011091C80010FF45C0E0913E
:1009C400C200F091C3002091EB000090C10000949C
:1009D400209D020E1127111D249120580090C10062
:1009E400209D020E111D10580090C0001090D200DE
:1009F400010C0092C0000090C1001090D300011CB3
:100A04000092C10010F42093EB001090D400E11D7B
:100A1400112011F02093EB001124F11D2091C60048
:100A24002E172091C7002F0740F4E091C400F091E5
:100A3400C5002091C9002093C800E093C200F09340
:100A4400C3002091EC00220F1203800D911D9058D9
:100A540093BD8091280190912901019779F08093A9
:100A64002801909329019F918F912F901F900F90AF
:100A7400FF91EF911F912F912FBF1895209177002F
:100A840020937400209178002093750020917900C0
:100A9400209376002091A6002093A3002091A70024
:100AA4002093A4002091A8002093A5002091D500B4
:100AB4002093D2002091D6002093D3002091D70018
:100AC4002093D40020910401209301012091050179
:100AD40020930201209106012093030180912B01B0
:100AE40080FF21C020916E002093640020916F004C
:100AF400209365002091700020936600209171007E
:100B04002093670020917200209368002091730065
:100B14002093690020916C0020936A0020916D005D
:100B240020936B008E7F81FF21C020919D00209334
:100B3400930020919E002093940020919F00209385
:100B440095002091A000209396002091A10020936D
:100B540097002091A2002093980020919B0020935D
:100B6400990020919C0020939A008D7F82FF21C0E0
:100B74002091CC002093C2002091CD002093C3008B
:100B84002091CE002093C4002091CF002093C50073
:100B94002091D0002093C6002091D1002093C7005B
:100BA4002091CA002093C8002091CB002093C90053
:100BB4008B7F83FF21C02091FB002093F1002091C3
:100BC400FC002093F2002091FD002093F30020917B
:100BD400FE002093F4002091FF002093F500209163
:100BE40000012093F6002091F9002093F700209152
:100BF400FA002093F800877F80932B0100918F00E7
:100C040000938E000091BE000093BD000091ED00A2
:100C14000093EC0000911C0100931B01009126013C
:100C24000093280100912701009329019F918F913E
:100C34002F901F900F90FF91EF911F912F912FBF35
:100C44002CEA2F9320E02F93189500E000930000E6
:100C540009E00093000000E00093000000E000932E
:100C6400000008950090000000FEFCCF08950E944B
:100C740034060591002319F000930100F8CF08957C
:100C84000F9300910100009301000F9118950D41FD
:100C94005652204D4F4420506C617965722C207659
:100CA4002E3030330D0A286329323031302054532A
:100CB4002D4C61627320696E632E0D0A0D0A415436
:100CC4006D65676131362C203132386B4220524FCA
:100CD4004D2C20346B422052414D0D0A0D0A000068
:100CE400000032326B000000000000000000000031
:100CF40000000000000000000000000000000000F0
:100D0400000000000000000000000000000A0020B5
:100D140000020008000000000000000000000000C5
:100D240000000000000000000000000A0020000293
:100D340000080000000000000000000000000000A7
:100D44000000000000000000000A0020000200086B
:100D5400000000000000000000000000000000008F
:100D6400000000000000000A00200002000800004B
:100D7400000000000000000000000000000000006F
:100D840000000000000A002000020008000000002B
:100D9400000000000000000000000000000000004F
:100DA4000000000A0020000200080000000000000B
:100DB400000000000000000000000000000000002F
:100DC40000100030000000100000000000000000CF
:100DD40000000000000000000000000000000041CE
:100DE400004000010040000000000000000000007E
:100DF4000000000000000000000000000009000ADC
:100E040000010008000000000000000000000000D5
:100E14000000000000000000000000080030000096
:100E240000080000000000000000000000000000B6
:100E340000000000000000000000000000000001AD
:100E4400000000000000000000000000000000009E
:100E5400000000000000000000000000000100008D
:100E6400000000000000000000000000000000007E
:100E7400000000000000000000000001000000006D
:100E8400000000000000000000000000000000005E
:100E9400000000000000000000010000000000004D
:100EA400000000000000000000000000000000003E
:100EB400000000000000000100000000000000002D
:100EC400000000000000000000000000000000011D
:100ED400000000000001000000000000000000000D
:100EE400000000000000000000000000035B004060
:100EF40000000001000000000000000000000000ED
:100F040000000000000000000000000000000000DD
:100F140000010000000000000000000000000000CC
:100F240000000000000000000000000000000001BC
:100F340000000000000000000000000000000000AD
:100F4400000000000000000000000000000100009C
:100F5400000000000000000000000000000000008D
:100F6400000000000000000000000001000000007C
:100F7400000000000000000000000000000000006D
:100F8400000000000000000000010000000000005C
:100F9400000000000000000000000000000000004D
:100FA400000000000000000100000000000000003C
:100FB400000000000000000000000000000000002D
:100FC400000000000001000000000000000000001C
:100FD400000000000000000000000000000000000D
:100FE40000000001000000000000000000000000FC
:100FF40000000000000000000000000000000000ED
:1010040000010000000000000000000000000000DB
:1010140000000000000000000000000000000001CB
:1010240000000000000000000000000000000000BC
:1010340000000000000000000000000000010000AB
:10104400000000000000000000000000000000009C
:10105400000000000000000000000001000000008B
:10106400000000000000000000000000000000007C
:10107400000000000000000000010000000000006B
:10108400000000000000000000000000000000005C
:1010940000000000000000010A7F000100010404B8
:1010A4000305060700000000000000000000000027
:1010B400000000000000000000000000000000002C
:1010C400000000000000000000000000000000001C
:1010D400000000000000000000000000000000000C
:1010E40000000000000000000000000000000000FC
:1010F40000000000000000000000000000000000EC
:1011040000000000000000000000000000000000DB
:10111400000000000000000000004D2E4B2E03587C
:101124001F0600000A0F01AC7A0A01AC8481023A5E
:10113400200000000000011D7A0A0000040001AC38
:1011440033F003581C1001AC104710D61000017D79
:101154004300023A000001AC7A0A10D61C0A011DB1
:10116400530001AC03F0011D7A0A023A8400000026
:101174006482017D030000D67A0A00000A0A000096
:101184005400011D030001AC104710D610000000EC
:1011940044000000048300D67A0A023A8400000066
:1011A40034000000040001AC105701AC84000000BE
:1011B40024000000040000000057000004000000A8
:1011C4001400000004000000005710D610000000B6
:1011D40024000000040001AC1047023A840000001F
:1011E400340000000400011D7A0A01AC84000000F0
:1011F40044000000040000D67A0A017D8400014006
:10120400300000000400011D7A0A10D61A020153AE
:1012140023000000040000D67A0A10D61000014012
:10122400100001406C1001AC7A0A01AC848100000A
:10123400200001530300011D7A0A0000040000008D
:10124400300001401C1001AC104710D61000011DE5
:1012540040000000040001AC7A0A10D61C0A000009
:10126400500000000400011D7A0A023A84000000C4
:101274006000011D040000D67A0A00000A0A01ACCD
:1012840050000000040001AC104710D6100000000C
:1012940040000000040000D67A0A023A84000000EC
:1012A400300001AC040001AC105701AC8400000014
:1012B40020000000040000000057000004000000AB
:1012C4001000000004000000005710D610000000B9
:1012D40020000000040001AC1047023A8400000022
:1012E400300000000400011D7A0A01AC84000000F3
:1012F40050000000040000D67A0A017D840001AC8D
:10130400600000000400011D7A0A10D61A02017D53
:1013140050000000040000D67A0A10D610000153D1
:10132400400001AC040001AC7A0A01AC84810000E5
:101334003000017D0400011D7A0A00000400000051
:1013440020000153040001AC104710D610000140E6
:1013540010000000040001AC7A0A10D61C0A000038
:10136400200000000400011D7A0A023A84000000F3
:1013740030000140040000D67A0A00000A0A015332
:1013840040000000040001AC104710D6100000001B
:1013940050000000040000D67A0A023A8400017D5D
:1013A40060000153040001AC105701AC840000003C
:1013B400500000000400000000570000040001ACCD
:1013C4004000017D04000000005710D6100000000A
:1013D40030000000040001AC1047023A8400023AD5
:1013E400200001AC0400011D7A0A01AC8400000055
:1013F40010000000040000D67A0A017D840001FC7C
:101404002000023A0400011D7A0A10D61A020000D4
:1014140030000000040000D67A0A10D61000000044
:10142400400001FC0400017D7A0A017D84810000F2
:1014340050000000040000FE7A0A000004000000CE
:10144400600000000400017D103710D61000000079
:10145400500000000400017D7A0A10D61C0A000026
:1014640040000000040000FE7A0A01FC8400000031
:1014740030000000040000BE7A0A00000A0A0000DE
:10148400200000000400017D103710D61000000079
:1014940010000000040000BE7A0A01FC8400000071
:1014A400260100000400017D1057017D8400000026
:1014B40006000000040000000057000004000000C3
:1014C4000601000006010000005710D610000000BD
:1014D400060000000600017D103701FC84000000B6
:1014E40006010000060100FE7A0A017D8400000066
:1014F40006000000060000BE7A0A015384000000C2
:1015040006010000060100FE7A0A10D61A02000045
:1015140006000000060000BE7A0A10D61000035828
:1015240010000000060101AC7A0A01AC8481023A81
:10153400200000000600011D7A0A0000040001AC2E
:1015440033F003580C1001AC104710D61000017D85
:101554004300023A000001AC7A0A10D61C0A011DAD
:10156400530001AC03F0011D7A0A023A8400000022
:101574006482017D030000D67A0A00000A0A000092
:101584005400011D030001AC104710D610000000E8
:1015940044000000048200D67A0A023A8400000063
:1015A40034000000040001AC105701AC84000000BA
:1015B40024000000040000000057000004000000A4
:1015C4001400000004000000005710D610000000B2
:1015D40024000000040001AC1047023A840000001B
:1015E400340000000400011D7A0A01AC84000000EC
:1015F40044000000040000D67A0A017D8400014002
:10160400300000000400011D7A0A10D61A020153AA
:1016140023000000040000D67A0A10D6100000D679
:1016240010000140000001AC7A0A01AC8481000082
:10163400200001530300011D7A0A00000400000089
:10164400300000D6040001AC104710D61000011D74
:1016540040000000040001AC7A0A10D61C0A000005
:10166400500000000400011D7A0A023A84000000C0
:101674006000011D040000D67A0A00000A0A015322
:1016840050000000040001AC104710D61000000008
:1016940040000000040000D67A0A023A84000000E8
:1016A40030000153040001AC105701AC8400000069
:1016B40020000000040000000057000004000000A7
:1016C4001000000004000000005710D610000000B5
:1016D40020000000040001AC1047023A840000001E
:1016E400300000000400011D7A0A01AC84000000EF
:1016F40050000000040000D67A0A017D8400017DB8
:10170400600000000400011D7A0A10D61A02015379
:1017140050000000040000D67A0A10D610000140E0
:101724004000017D0400017D7A0A017D848100006E
:1017340030000153040000FE7A0A00000400000097
:10174400200001400400017D103710D61000011D57
:10175400100000000400017D7A0A10D61C0A000063
:1017640020000000040000FE7A0A01FC840000004E
:101774003000011D040000BE7A0A00000A0A00FEBF
:10178400400000000400017D103710D61000000056
:1017940050000000040000BE7A0A01FC840000D658
:1017A400600000FE0400017D1057017D84000000EC
:1017B400500000000400000000570000040000BEB8
:1017C400500000D604000000005710D6100000009E
:1017D400300000000400017D103701FC840000FE8D
:1017E400200000BE040000FE7A0A017D840000008F
:1017F40010000000040000BE7A0A0153840000BEF9
:10180400200000FE040000FE7A0A10D61A0200002E
:1018140030000000040000BE7A0A10D61000000058
:10182400400000BE0400011D7A0A011D84810000ED
:1018340050000000040000E27A0A000004000000E6
:10184400600000000400011D104710D610000000C5
:10185400500000000400011D7A0A10D61C0A000082
:1018640040000000040000E27A0A017D84000000C8
:1018740030000000040000BE7A0A00000A0A0000DA
:10188400200000000400011D104710D610000000C5
:1018940010000000040000BE7A0A017D84000000EC
:1018A400260100000400011D1057011D84000000E2
:1018B40006000000040000000057000004000000BF
:1018C4000601000006010000005710D610000000B9
:1018D400060000000600011D1047017D8400000081
:1018E40006010000060100E27A0A011D84000000DE
:1018F40006000000060000BE7A0A00FE8400000014
:1019040006010000060100E27A0A10D61A0200005D
:1019140006000000060000BE7A0A10D6100000007F
:1019240000000000000001AC7A0A01AC84810000D0
:10193400000000000000011D7A0A000004000000FD
:1019440000000000000001AC104710D61000000099
:1019540000000000000001AC7A0A10D61C0A000046
:10196400000000000000011D7A0A023A8400000011
:1019740000000000000000D67A0A00000A0A0000F5
:1019840000000000000001AC104710D61000000059
:1019940000000000000000D67A0A023A8400000029
:1019A40000000000000001AC105701AC84000000EE
:1019B40000000000000000000057000004000000C8
:1019C4000000000000000000005710D610000000C6
:1019D40000000000000001AC1047023A840000003F
:1019E400000000000000011D7A0A01AC8400000020
:1019F40000000000000000D67A0A017D8400000087
:101A0400000000000000011D7A0A10D61A0200002E
:101A140000000000000000D67A0A10D61000000072
:101A240000000000000001AC7A0A01AC84810000CF
:101A3400000000000000011D7A0A000004000000FC
:101A440000000000000001AC104710D61000000098
:101A540000000000000001AC7A0A10D61C0A000045
:101A6400000000000000011D7A0A023A8400000010
:101A740000000000000000D67A0A00000A0A0000F4
:101A840000000000000001AC104710D61000000058
:101A940000000000000000D67A0A023A8400000028
:101AA40000000000000001AC105701AC84000000ED
:101AB40000000000000000000057000004000000C7
:101AC4000000000000000000005710D610000000C5
:101AD40000000000000001AC1047023A840000003E
:101AE400000000000000011D7A0A01AC840000001F
:101AF40000000000000000D67A0A017D8400000086
:101B0400000000000000011D7A0A10D61A0200002D
:101B140000000000000000D67A0A10D61000000071
:101B240000000000000001AC7A0A01AC84810000CE
:101B3400000000000000011D7A0A000004000000FB
:101B440000000000000001AC104710D61000000097
:101B540000000000000001AC7A0A10D61C0A000044
:101B6400000000000000011D7A0A023A840000000F
:101B740000000000000000D67A0A00000A0A0000F3
:101B840000000000000001AC104710D61000000057
:101B940000000000000000D67A0A023A8400000027
:101BA40000000000000001AC105701AC84000000EC
:101BB40000000000000000000057000004000000C6
:101BC4000000000000000000005710D610000000C4
:101BD40000000000000001AC1047023A840000003D
:101BE400000000000000011D7A0A01AC840000001E
:101BF40000000000000000D67A0A017D8400000085
:101C0400000000000000011D7A0A10D61A0200002C
:101C140000000000000000D67A0A10D61000000070
:101C2400000000000000017D7A0A017D848100002B
:101C340000000000000000FE7A0A0000040000001A
:101C4400000000000000017D103710D610000000D5
:101C5400000000000000017D7A0A10D61C0A000072
:101C640000000000000000FE7A0A01FC840000006D
:101C740000000000000000BE7A0A00000A0A00000A
:101C8400000000000000017D103710D61000000095
:101C940000000000000000BE7A0A01FC840000007D
:101CA400000000000000017D1057017D8400000049
:101CB40000000000000000000057000004000000C5
:101CC4000000000000000000005710D610000000C3
:101CD400000000000000017D103701FC84000000BA
:101CE40000000000000000FE7A0A017D840000006C
:101CF40000000000000000BE7A0A015384000000C6
:101D040000000000000000FE7A0A10D61A0200004B
:101D140000000000000000BE7A0A10D6100001ACDA
:101D240011020168110101FC104700FE8481019435
:101D3400134001531330000000470000040000006A
:101D44000000000000000000204710D61000000032
:101D54000000000000000000004710D61C0A00002C
:101D64000482000004820000304701538400000014
:101D74000400000004000000004700000A0A0000FC
:101D84000400000004000000404710D610000000CA
:101D94000400000004000000004701538400000018
:101DA4000400000004000000504700FE840000000E
:101DB40004000000040000000047000004000000CC
:101DC4000400000004000000604710D6100000006A
:101DD40004000000040000000047015384000000D8
:101DE4000400000004000000504700FE84000000CE
:101DF4000400000004000000004700E2840000002A
:101E04000400000004000000404710D61A0200003D
:101E14000400000004000000004710D610000194E4
:101E24001102014011020000305900FE8481017D3D
:101E34001330012E1330000000590000040000008C
:101E44000000000000000000205910D6100000001F
:101E54000000000000000000005910D61C0A000019
:101E64000400000004000000105901538400000025
:101E74000400000004000000005900000A0A0000E9
:101E84000400000004000000205910D610000000D7
:101E94000400000004000000005901538400000005
:101EA4000400000004000000305900FE840000001B
:101EB40004000000040000000059000004000000B9
:101EC4000400000004000000405910D61000000077
:101ED4000400000004000000005901538400010DB7
:101EE4001000015310000000505900FE840000004F
:101EF4000000000000000000005900E28400017DA1
:101F04001C0A012E1C0A0000605910D61A02000097
:101F14000000000000000000005910D6100001531A
:101F240014000194140001FC104700FE8481000099
:101F3400040000000400000000470000040000004A
:101F44000400000004000000204710D61000000028
:101F54000400000004000000004710D61C0A000022
:101F64000400000004000000304701538400000016
:101F74000400000004000000004700000A0A0000FA
:101F84000400000004000000404710D610000000C8
:101F94000400000004000000004701538400000016
:101FA4000400000004000000504700FE840000000C
:101FB40004000000040000000047000004000000CA
:101FC4000400000004000000604710D61000000068
:101FD40004000000040000000047015384000000D6
:101FE4000400000006010000504700FE84000000C9
:101FF4000400000006000000004700E28400000026
:102004000400000006010000404710D61A02000038
:102014000400000006000000004710D61000000075
:102024000601007F1C1A0000304700FE8481000076
:10203400060000AA2C1B0000004700000400007FDB
:102044001C0A00CA3C1C0000204710D6100000AA3D
:102054002C0B00AA4C1C0000004710D61C0A00CA16
:102064003C0C00CA5C1C000010470153840000AA09
:102074004C0C00FE6C1C0000004700000A0A00CA59
:102084005C0C00CA5C1C0000204710D6100000FE47
:102094006C0C00FE4C1C000000470153840000CA75
:1020A4005C0C01533C1C0000304700FE840000FE21
:1020B4004C0C00FE2C1C00000047000004000153DF
:1020C4003C0C01531C1C0000404710D6100000FEBD
:1020D4002C0C01942C1C0000004701538400015374
:1020E4001C0C01533C1C0000504700FE840001946A
:1020F4002C0C01944C1C0000004700E284000153A6
:102104003C0C01FC5C1B0000604710D61A020194D1
:102114004C0C01946C1A0000004710D610000140CA
:1021240010000000020102807C2001408481000034
:1021340000000000020101FC7C21000004000000FA
:10214400000001401C1001AC7C2210D610000000DD
:1021540000000000048201407C2310D61C0A000009
:1021640000000000040000FE7C2401AC8400000098
:1021740000000000040001ACAC2500000A0A00E2E3
:102184001102000004000140AC2610D6100000D655
:1021940013F00000040000FEAC2701AC8400000032
:1021A400000000E201020140AC280140840000006C
:1021B400000000D603F001ACAC29000004000000CC
:1021C40000000000040001FCAC2A10D6100000003E
:1021D4000000000004000280AC2B01AC840000BEAF
:1021E4001000000004000358AC2C014084000000DF
:1021F4000A050000040001FCAC2D011D840000E26E
:1022040013F000BE04000280AC2E10D61A020000A7
:102214000000000004000358AC2F10D6100000008A
:102224000A0100E203F0023A7C30011D84810000BF
:102234000A000000040001C57C2F00000400000017
:102244000A0100000601017D7C2E10D6100000005A
:102254000A0000000600011D7C2D10D61C0A000097
:102264000A010000060100E27C2C017D84000000CC
:102274000A0000000600017DAC2B00000A0A0000E1
:102284000A0100000601011DAC2A10D6100000004E
:102294000A000000060000E2AC29017D8400000071
:1022A4000A0100000601011DAC28011D8400000084
:1022B4000A0000000600017DAC27000004000000B5
:1022C4000A010000060101C5AC2610D6100000006A
:1022D4000A0000000600023AAC25017D84000000DB
:1022E4000A010000060102FAAC24011D840000006A
:1022F40000000000060001C5AC23017D840000003D
:10230400000000000601023AAC2210D61A020000B6
:1023140000000000040002FAAC2110D610000140B5
:1023240010000000040002807C220140848100002F
:1023340000000000040001FC7C23000004000000F5
:10234400000001400C1001AC7C2410D610000000E9
:1023540000000000040001407C2510D61C0A000087
:1023640000000000040000FE7C2601AC8400000094
:1023740000000000040001ACAC2700000A0A00E2DF
:102384001102000004000140AC2810D6100000D651
:1023940013F00000040000FEAC2901AC840000002E
:1023A400000000E201020140AC2A01408400000068
:1023B400000000D603F001ACAC2B000004000000C8
:1023C40000000000040001FCAC2C10D6100000003A
:1023D4000000000004000280AC2D01AC840000BEAB
:1023E4001000000004000358AC2E014084000000DB
:1023F4000A050000040001FCAC2F011D840000E26A
:1024040013F000BE04000280AC3010D61A020000A3
:102414000000000004000358AC3110D61000000086
:10242400000000E203F0023A7C32011D84810000C6
:1024340000000000040001C57C310000040000001D
:10244400000000000400017D7C3010D61000000064
:10245400000000000400011D7C2F10D61C0A011D81
:1024640010000000040000E27C2E017D84000000C6
:10247400000000000400017DAC2D00000A0A017D6B
:102484001000011D0400011DAC2C10D6100000002A
:1024940000000000040000E2AC2B017D8400000079
:1024A4000000017D0400011DAC2A011D8400000010
:1024B400000000000400017DAC29000004000000BD
:1024C40000000000040001C5AC2810D61000000074
:1024D400000000000400023AAC27017D84000000E3
:1024E40002010000040002FAAC26011D8400000071
:1024F40002010000040001C5AC25017D8400000038
:10250400020100000201023AAC2410D61A020000B3
:1025140002010000020002FAAC2310D6100001AC44
:1025240011020168110201FC104700FE848101942C
:102534001340015313300000004700000400000062
:102544000000000000000000204710D6100000002A
:102554000000000000000000004710D61C0A000024
:10256400048200000482000030470153840000000C
:102574000400000004000000004700000A0A0000F4
:102584000400000004000000404710D610000000C2
:102594000400000004000000004701538400000010
:1025A4000400000004000000504700FE8400000006
:1025B40004000000040000000047000004000000C4
:1025C4000400000004000000604710D61000000062
:1025D40004000000040000000047015384000000D0
:1025E4000400000004000000504700FE84000000C6
:1025F4000400000004000000004700E28400000022
:102604000400000004000000404710D61A02000035
:102614000400000004000000004710D610000194DC
:102624001102014011020000305900FE8481017D35
:102634001330012E13300000005900000400000084
:102644000000000000000000205910D61000000017
:102654000000000000000000005910D61C0A000011
:10266400040000000400000010590153840000001D
:102674000400000004000000005900000A0A0000E1
:102684000400000004000000205910D610000000CF
:1026940004000000040000000059015384000000FD
:1026A4000400000004000000305900FE8400000013
:1026B40004000000040000000059000004000000B1
:1026C4000400000004000000405910D6100000006F
:1026D4000400000004000000005901538400010DAF
:1026E4001000015310000000505900FE8400000047
:1026F4000000000000000000005900E28400017D99
:102704001C0A012E1C0A0000605910D61A0200008F
:102714000000000000000000005910D61000015312
:10272400140000FE140001FC104700FE8481000028
:102734000400000004000000004700000400000042
:102744000400000004000000204710D61000000020
:102754000400000004000000004710D61C0A00001A
:10276400040000000400000030470153840000000E
:102774000400000004000000004700000A0A0000F2
:102784000400000004000000404710D610000000C0
:10279400040000000400000000470153840000000E
:1027A4000400000004000000504700FE8400000004
:1027B40004000000040000000047000004000000C2
:1027C4000400000004000000604710D61000000060
:1027D40004000000040000000047015384000000CE
:1027E4000400000004000000504700FE84000000C4
:1027F4000400000004000000004700E28400000020
:102804000400000004000000404710D61A02000033
:102814000400000004000000004710D6100000006F
:102824000601000006010000304700FE848100001C
:10283400060000000600000000470000040000003D
:102844000601000006010000204710D61000000019
:102854000600000006000000004710D61C0A000015
:102864000601000006010000104701538400000027
:102874000600000006000000004700000A0A0000ED
:102884000601000006010000204710D610000000D9
:102894000600000006000000004701538400000009
:1028A4000601000006010000304700FE840000001D
:1028B40006000000060000000047000004000000BD
:1028C4000601000006010000404710D61000000079
:1028D40006000000060000000047015384000000C9
:1028E4000601000006010000504700FE84000000BD
:1028F4000600000006000000004700E2840000001B
:102904000601000006010000604710D61A0200000C
:102914000600000006000000004710D6100000FE6C
:10292400100000000C00012E1037012E84810000DD
:102934002000000000000000003700000400000038
:10294400300000FE1C100000203710D610000000DC
:102954004000000004820000003710D61C0A00006A
:10296400500000000400000030370194840000008F
:102974006000000004000000003700000A0A010D96
:102984005000000004000000403710D61000000082
:10299400400000000400000000370194840000009F
:1029A4003000010D040000005037012E84000000A7
:1029B40020000000040000000037000004000000B4
:1029C4001000000004000000603710D61000000062
:1029D40020000000040000000037019484000194EA
:1029E40030000000040000005037012E8400000075
:1029F400400000000400000000370194840000003F
:102A04005000019404000000403710D61A02000060
:102A14006000000004000000003710D61000000021
:102A240050000000040000003037012E84810000B3
:102A34004000000004000000003700000400000013
:102A44003000000004000000203710D61000000001
:102A54002000000004000000003710D61C0A00000B
:102A640010000000040000001037019484000000EE
:102A74002000000004000000003700000A0A0000E3
:102A84003000000004000000203710D610000000C1
:102A9400400000000400000000370194840000009E
:102AA40050000000040000003037012E84000000B4
:102AB4006000000004000000003700000400000073
:102AC4005000000004000000403710D61000000041
:102AD400400000000400000000370194840001530A
:102AE40030000000040000005037012E8400000074
:102AF400200000000400000000370194840000005E
:102B04001A02015304000000603710D61A020000B4
:102B14002000000004000000003710D610000168F7
:102B2400310100000A02017D1047017D84810153B7
:102B340043030000040000000047000004000000FC
:102B4400530001680C100000204710D6100000004C
:102B54006300015303030000004710D61C0A000061
:102B64005000000004000000304701FC8400000015
:102B74004000000004000000004700000A0A012E83
:102B84003302000004000000404710D6100000008B
:102B94002300000004000000004701FC8400000042
:102BA4001300012E030200005047017D8400000041
:102BB40023000000030000000047000004000000A0
:102BC4003300000003000000604710D6100000002E
:102BD4004000000003000000004701FC84000000E6
:102BE40050000000030000005047017D84000000F5
:102BF400600000000400000000470153840001FC51
:102C04005000000004000000404710D61A020000E3
:102C14004000000004000000004710D6100000002F
:102C2400300001FC040000003047017D8481000075
:102C34002000000004000000004700000400000021
:102C44001000000004000000204710D6100000000F
:102C54002000000004000000004710D61C0A0000F9
:102C64003000000004000000104701FC8400000054
:102C74004000000004000000004700000A0A0000B1
:102C84005000000004000000204710D6100000008F
:102C94006000000004000000004701FC8400000004
:102CA40050000000040000003047017D8400000053
:102CB4004000000004000000004700000400000081
:102CC4003000000004000000404710D6100000004F
:102CD4002000000004000000004701FC8400000004
:102CE40016010000040000005047017D840000002C
:102CF40006010000040000000047015384000000A6
:102D04000601000006010000604710D61A02000008
:102D14000601000006010000004710D61000025C06
:102D2400100000000601012E1037012E84810000DE
:102D3400200000000601000000370000040000002D
:102D44003000025C0C100000203710D61000000088
:102D54004000000004000000003710D61C0A0000E8
:102D6400500000000400000030370194840000008B
:102D74006000000004000000003700000A0A032875
:102D84005000000004000000403710D6100000007E
:102D9400400000000400000000370194840000009B
:102DA40030000328040000005037012E8400000086
:102DB40020000000040000000037000004000000B0
:102DC4001000000004000000603710D6100000005E
:102DD400200000000400000000370194840001FC7E
:102DE40030000000040000005037012E8400000071
:102DF400400000000400000000370194840000003B
:102E0400500001FC04000000403710D61A020000F4
:102E14006000000004000000003710D6100000001D
:102E240050000000040000003037012E84810000AF
:102E3400400000000400000000370000040000000F
:102E44003000000004000000203710D610000000FD
:102E54002000000004000000003710D61C0A000007
:102E640010000000040000001037019484000000EA
:102E74002000000004000000003700000A0A0000DF
:102E84003000000004000000203710D610000000BD
:102E9400400000000400000000370194840000009A
:102EA40050000000040000003037012E84000000B0
:102EB400600000000400000000370000040000006F
:102EC4005000000004000000403710D6100000003D
:102ED400400000000400000000370194840001C594
:102EE40010000000040000005037012E8400000090
:102EF400200000000400000000370194840000005A
:102F0400100001C504000000603710D61A0200004A
:102F14002000000004000000003710D61000023A20
:102F24001101000004000153104701538481021A67
:102F340013300000040000000047000004000000FB
:102F44005300023A01010000204710D6100000008F
:102F54006300021A03300000004710D61C0A000068
:102F64005000000003000000304701C58400000049
:102F74004000000003000000004700000A0A02A607
:102F84001000000004000000404710D610000000AC
:102F94002000000004000000004701C58400000078
:102FA400100002A6040000005047015384000000F2
:102FB400200000000400000000470000040000009E
:102FC4003000000004000000604710D6100000002C
:102FD4004000000004000000004701C58400000018
:102FE400500000000400000050470153840000001A
:102FF40060000000040000000047012E8400025C11
:103004005000000004000000404710D61A020000DF
:103014004000000004000000004710D6100000002B
:103024003000025C0400012E1037012E8481000060
:10303400200000000400000000370000040000002D
:103044001000000004000000203710D6100000001B
:103054002000000004000000003710D61C0A000005
:1030640030000000040000003037019484000000A8
:103074004000000004000000003700000A0A0000BD
:103084005000000004000000403710D6100000007B
:103094006000000004000000003701948400000078
:1030A40050000000040000005037012E840000008E
:1030B400400000000400000000370000040000008D
:1030C4003000000004000000603710D6100000003B
:1030D4002000000004000000003701948400000078
:1030E4001000000004000000503710D61A0200003F
:1030F4000C0000000C0000000C0010D61A010000A7
:103104000000000000000000000010D61A010000BA
:103114000000000000000000000010D610000000B5
:10312400000000007878787878788888888888889B
:10313400000000000000000078787878788888889B
:10314400888888880000000000000000787878787B
:10315400888888888888888800000000000000002B
:10316400787878888888888888888888000000002B
:10317400000000007878888888888888888888880B
:10318400000000000000000078888888888888880B
:10319400888888880000000000009A00C49AAC9ACD
:1031A4009A9A9A9A9A9A9A9A9A9A9A9A9A9A9A9A7B
:1031B4009A9A9A9A9A9A00000000BF00E5C6DACE5D
:1031C400BFBFB7B1A9A1A0A0A0A0A0A0A0A0A0A08B
:1031D400A0A0A0A0A0A0A0A0A0A0A0A0A0A0A0A0EB
:1031E400A0A0A0A0A0A0A0A0A0A0A0A0A0A0A0A0DB
:1031F400A0A0A0A0A0A0A0A0A0A0A0A0A0A0A0A0CB
:10320400A0A0A0A0A0A0A0A0A0A0A0A0A0A0A0A0BA
:10321400A0A0A0A0A0A0A0A0A0A0A0A0A0A0A0A1A9
:10322400A6B1B7BFCBD5DDE5ECF4FB00080C141B4D
:10323400232B323B41494F5700000000000078889F
:103244008888888888888888888800000000AC9AE4
:103254009A9A9A9A9A9A9A9A9A9A00000000000066
:103264003A56E2227F726946047F2E7527707F40AA
:10327400547019E7E91ED6EFEAB38FD78080AB9D6F
:103284008B808080D8DCB5CE8FC9E8FD0A1AF8F5AA
:1032940009557F2077742E7C7F657F7F767F6E7FD4
:1032A4007F5ED413001CF10005E8C0A994888080D7
:1032B40091B49E91AB9499808084A6C3DBE2E1092A
:1032C40023320E53F31C4E1EEB664B7F3F7F5B464F
:1032D4002D7C10286E3F59596F24F9F32AD106FE2C
:1032E40015B8C5F0D9A6D0A380B7E1AF8FB9C8B2DD
:1032F400C9BE07C4C60CBEF1CD093A221023E9D0D9
:10330400273145470C3C3EE4457F412D7F5A2F7FB2
:103314007F36327F0E3ABFEF01DAFFE5D680D2E680
:10332400F9B202DED686C8D0808080FECD9EFD0D27
:10333400B8041BE5BE1F3D5CF17F2E3F31044FDA1C
:103344007F7F11653E32CA07D3DF0EF163FAF3FEC5
:1033540006EEE3E50CF3EAE811CCEB1EBA87B6A956
:10336400D807B8A4C00DFDB2E60B30B61A02EC249F
:103374001D09574208040337FB25D8EE22303338A1
:103384005710001D2A0CF21CAFEEE8F6CE2CDC041C
:103394001AF702E9DB12DE02E2E5BBD219A7A1B2F9
:1033A400C71EE2261ADC053312164A5B344F675BEC
:1033B4002C0932E5001E43EEDF3E28190B05FF0100
:1033C400D117C11A1BDAFA0F853401C2DEE9CDBF69
:1033D400B4AFECDC0400F4FFDADACD0B0CEF1143EC
:1033E40045E3F0040D61123A1D2E22D01D4006F370
:1033F4004C170F27550A161723EAD92038B215F4AB
:103404000FF0C9F2E1C1F5F7FEC1F1F4C5D30FED38
:10341400EF4E0E000DDEF20B08E8081DF7F315144D
:1034240030C1380CC7094213F60A102729F8C42EF4
:10343400FDCEF30CF5D2CA3B1AF411ECD5DBC4FD76
:10344400E8F6F4CC100CC7FC24F6F1EDC6DE05E278
:10345400EA0808B4F31AF5EA52161808141E1929D2
:10346400FAEF1A24083C402D2B430104EE4D23F8B7
:103474001DE6EF012B15F52306D1F8F904DCDED89F
:10348400EE0ADBD2E5EB19D3ECF30719FBFAD9FA10
:103494003425021B36ED2B1C14402EFB135420261E
:1034A40003F02927110C3E26F9FCFACE00DFEB14B9
:1034B400EBC6F5F1DBEAF4E6F2ECCFE1E5D1020389
:1034C400E70705EEEFCF0C1C03131D172535060384
:1034D400141A1803073B17F44910F8FA240C0104D2
:1034E400181CF00FD1240015F9DEDBE4C7F905E060
:1034F400E9FDF0EBD6B6F306F6CFFD0BCBF00AB838
:10350400103517F9092BFB1B4F100F1C06363FDC37
:10351400391E050F1B0C1F162F17EC0F0638190B3D
:10352400FEF113FCCDFCC8F302D3C8DBD7E5C0CF52
:10353400FD040800E90CFDF7CFF83101FD11F30695
:10354400E614270A243227263AF813221E0D1B0BF1
:10355400391A0AFA073A1F151B16F3F4ECF7D4EEDE
:10356400F5FF01FEF8CEE219EBF6FBE8E0DFEDE74C
:10357400E9F00DCA1CFEF2EB0010F60805FBF1049D
:103584001CF92AFE163B1D1B3A49100F352119FA66
:103594001B33FFFC120EFE0A13EF13EB0D0FEFDECD
:1035A400D504F9F4E20D13091300ECF50EE0EAF486
:1035B4000A0BFDFFF002FA11F62702420201F7049A
:1035C4000D031229F9F403FFFD10091D02F911106E
:1035D4001C1DFAF8FB01FD00ED05FFF500E5FE01F9
:1035E4000922FFF50D09E5DBF904FFF30DF819FDD8
:1035F400F7FDF900F9FCFAF906F906F4FE0B0CFEE6
:103604001F1DFFEA031BEEFE070B0600F3040AF777
:10361400FEEBFF01EFF2FB1505FB11F10406F20AC4
:1036240016151210FC020A0F1CFC1B2A03011814A5
:103634002000240504EA200F08150902FC09DD0412
:1036440004F8F5FCF7F5F8FDF2F6F205F0071E00B4
:10365400FA11071BFA09E5F405220B08212F07FDCF
:1036640004072C1C1909FCFB061112FF0B01F7F9C6
:103674001E05FEEEFFF8DAE300E6F9040A0820FC72
:1036840006060002E3ED01F810F7000C0D0EF1FB45
:103694000004220205E9FCFCFE0A1412FC05F900F0
:1036A40004101E15130B0F00090E0D01F60C0AF978
:1036B400FF0D1300FBF102F5EAEB0BF6F9F5FFF54C
:1036C400EA0601F600F7F7F7F0F205FD020520031C
:1036D4001A0A0C050F0C08F1000A0002FF0B07235D
:1036E4001012FF060B1808010810F20AFD03FAF67F
:1036F400FAF7F9F0F6F2F405060600F60A03F50007
:10370400EEECF8F6F30009FC1201040907F7050BC7
:10371400060515100C0A00FFFE0C0E0B0110081113
:10372400F0020401071116000403FAF8FC03FD007B
:10373400FD03FC0A03FDFAFDFAFDFDF7F700FF00A7
:103744000002F506FAFF0700F802F402FE04FE0880
:1037540004100600030905F9FE0D0203080D07FB1A
:10376400FE05050906000410040005FC0300FA0721
:10377400FD08FC0606FBFCFEFC02F30006FCFEFC56
:10378400F4FCF100FBFE00FFFCF705040205F7075B
:1037940009070304070205010AF60D1001070F06C5
:1037A4000709090200F900F2FAFA00FBFE05040613
:1037B400FC0601FDFFFAFDF8FFFFF9FE00FD040021
:1037C4000200FB00F90001FE07030203090D0D0BC3
:1037D4000A000D03010605080C030A05010106068B
:1037E4000208FFFD0300FD0705F301050304FFFFC5
:1037F400FBFBFE01FFF9FC09000000FBFEFD0304D6
:1038040003040000FD06030204000A000603040981
:103814000800FC0301FF06FFFD0105FDFEFF00FF9C
:103824000100FEFF000001FD04FB0A06000202FA8B
:1038340006040404FCFD07FFF7FFFDFA00FEFC008C
:10384400FDFFFEFEFEFCFC0000FBFF040303000082
:10385400040408000302020D02090A04070101041A
:1038640000040607FE0200020103FC020001FF003F
:103874000003FFFFFEFA00FDFB00FBFDFDFFFEFE63
:103884000403000205FE0303010001020201060015
:10389400060104000003050403040103FE010400FF
:1038A400030000000105000104020002FFFFFF0005
:1038B40000FEFDFFFFFD00FC00FF0000FE00000015
:1038C40000FFFF000001FE010102030301010400E7
:1038D400040206050304000102020201010002FFC2
:1038E4000000FFFFFB000000FF00000101FD0000DD
:1038F4000000000002020101FF00020001010201B8
:10390400010100010001010300FE030001000001A8
:0A39140003000000000000000000A6
:00000001FF
