:1000000012C021C020C01FC01EC01DC01CC01BC00C
:100010001BC019C018C017C016C015C014C013C02B
:1000200012C011C010C011241FBECFE5D4E0DEBF46
:10003000CDBF10E0A0E6B0E001C01D92A336B1072D
:10004000E1F74ED056C0DCCF1F920F920FB60F9241
:1000500011242F933F938F93809160008823C1F4E4
:1000600020916100309162002F5F3F4F309362001A
:100070002093610083E02F3F380709F13BBD2ABD83
:100080008F913F912F910F900FBE0F901F90189559
:10009000813029F02091610030916200EFCF2091F2
:1000A0006100309162002150304030936200209313
:1000B00061002115310511F710926000DFCF81E05A
:1000C00080936000DBCF83E88FBD8EB581608EBDED
:1000D0001BBC1ABC82E087BB84E089BF789408957A
:1000E000F2DF85B7806885BF889585B78F7785BF34
:0600F000F8CFF894FFCFE9
:00000001FF
