:100000009DC00000C4C00000C2C00000C0C000000D
:10001000BEC00000BCC00000BAC00000B8C00000F4
:10002000B6C00000B4C000000C94610AB0C000006B
:10003000AEC00000ACC00000AAC00000A8C0000014
:10004000A6C00000A4C00000A2C00000A0C0000024
:100050009EC000009CC000009AC0000098C0000034
:1000600096C0000094C0000092C0000090C0000044
:100070008EC000008CC000008AC0000088C0000054
:1000800086C0000084C0000082C0000080C0000064
:100090007EC000007CC00000120100020000004091
:1000A000EB031A20001001020301090220000101E4
:1000B0000080320904000002080650000705810292
:1000C000400000070502024000000C0341005400FC
:1000D0004D0045004C002203410056005200200014
:1000E0005500530042002000530054004F005200BE
:1000F00041004700450020001C0330003000300064
:10010000300030003000300030003000300030006F
:10011000300030000403090441544D454C20202098
:1001200041543930555342313238204D205320202C
:10013000302E3030008003021F00000011241FBE4B
:10014000CFEFD0E2DEBFCDBF80E090E020E80FB679
:10015000F89420936100809361000FBE81E011E06C
:10016000A0E0B1E0E8E1F2E200E00BBF02C00790DE
:100170000D92A030B107D9F711E0A0E0B1E001C0C5
:100180001D92A833B107E1F7A3D50C940A1138CF1B
:100190008FB7F89497EF94BF98E10FB6F8949093C7
:1001A0006000109260000FBE87FF01C07894089530
:1001B0008091000108950F931F938A01C0D0C80158
:1001C0002AD1182F26D120E030E0112311F421E0AC
:1001D00030E0C9011F910F91089590910001809125
:1001E0000101981729F09093010123E030E008C045
:1001F0008BD0813019F022E030E002C020E030E006
:10020000C9010895FC018FEF9FE1A0E0B0E0808379
:100210009183A283B383E1CF54C008950F931F93BA
:10022000CF93DF938B019C01EA0180910001882329
:1002300041F4C901B801ECD2CE0171D3882321F475
:1002400040D021E030E003C039D320E030E0C901E4
:10025000DF91CF911F910F91089581E0089580E083
:100260000895882319F021E030E005C0CB01BA01E0
:10027000A901D4DF9C01C9010895882319F021E068
:1002800030E005C0CB01BA01A90195DF9C01C9018D
:100290000895882311F081E008958ACF882319F00A
:1002A00021E030E003C0CB01ADDF9C01C90108951E
:1002B000882319F021E030E002C08FDF9C01C901E2
:1002C0000895239884B1876184B985B18F6185B918
:1002D0008CB580618CBD8CB5837F8CBD8CB58C60FA
:1002E0008CBD84B1866084B98CB58C7F8CBD8CB597
:1002F0008CBD8DB581608DBD8CB580648CBD109238
:100300000601109207010895109207012C9A2C986B
:1003100087ED8EBD0DB407FEFDCF1EBC0DB407FEEC
:10032000FDCF8EB58C73843329F0109207012C9A7F
:1003300080E008952C9A81E080930701089549E0B8
:10034000660F771F881F991F4A95D1F760930201A6
:1003500070930301809304019093050110920701AB
:100360008091060180FF18C08E7F809306012C9A31
:100370002C9887ED8EBD0DB407FEFDCF1EBC0DB4CD
:1003800007FEFDCF04C01EBC0DB407FEFDCF0EB4AA
:1003900007FEF9CF2C9A8EB52C9A2C9882ED8EBD43
:1003A0000DB407FEFDCF2091030180910401880F59
:1003B000922F991F9927991F892B8EBD0DB407FE87
:1003C000FDCF822F90E08E7F880F991F2170282B00
:1003D0002EBD0DB407FEFDCF809102018EBD0DB480
:1003E00007FEFDCF8FEF8EBD0DB407FEFDCF8FEF63
:1003F0008EBD0DB407FEFDCF8FEF8EBD0DB407FE91
:10040000FDCF8FEF8EBD0DB407FEFDCF8EB581E021
:1004100008952C9A0895CF93DF93EC0198E0F89417
:100420001EBC0DB407FEFDCF8EB58093F1001EBC3F
:100430000DB407FEFDCF8EB58093F1001EBC0DB448
:1004400007FEFDCF8EB58093F1001EBC0DB407FEF4
:10045000FDCF8EB58093F1001EBC0DB407FEFDCF1D
:100460008EB58093F1001EBC0DB407FEFDCF8EB596
:100470008093F1001EBC0DB407FEFDCF8EB58093B6
:10048000F1001EBC0DB407FEFDCF8EB58093F100C8
:100490001EBC0DB407FEFDCF8EB58093F1001EBCCF
:1004A0000DB407FEFDCF8EB58093F1001EBC0DB4D8
:1004B00007FEFDCF8EB58093F1001EBC0DB407FE84
:1004C000FDCF8EB58093F1001EBC0DB407FEFDCFAD
:1004D0008EB58093F1001EBC0DB407FEFDCF8EB526
:1004E0008093F1001EBC0DB407FEFDCF8EB5809346
:1004F000F1001EBC0DB407FEFDCF8EB58093F10058
:100500001EBC0DB407FEFDCF8EB58093F1001EBC5E
:100510000DB407FEFDCF8EB58093F1001EBC0DB467
:1005200007FEFDCF8EB58093F1001EBC0DB407FE13
:10053000FDCF8EB58093F1001EBC0DB407FEFDCF3C
:100540008EB58093F1001EBC0DB407FEFDCF8EB5B5
:100550008093F1001EBC0DB407FEFDCF8EB58093D5
:10056000F1001EBC0DB407FEFDCF8EB58093F100E7
:100570001EBC0DB407FEFDCF8EB58093F1001EBCEE
:100580000DB407FEFDCF8EB58093F1001EBC0DB4F7
:1005900007FEFDCF8EB58093F1001EBC0DB407FEA3
:1005A000FDCF8EB58093F1001EBC0DB407FEFDCFCC
:1005B0008EB58093F1001EBC0DB407FEFDCF8EB545
:1005C0008093F1001EBC0DB407FEFDCF8EB5809365
:1005D000F1001EBC0DB407FEFDCF8EB58093F10077
:1005E0001EBC0DB407FEFDCF8EB58093F1001EBC7E
:1005F0000DB407FEFDCF8EB58093F1001EBC0DB487
:1006000007FEFDCF8EB58093F1001EBC0DB407FE32
:10061000FDCF8EB58093F1001EBC0DB407FEFDCF5B
:100620008EB58093F1001EBC0DB407FEFDCF8EB5D4
:100630008093F1001EBC0DB407FEFDCF8EB58093F4
:10064000F1001EBC0DB407FEFDCF8EB58093F10006
:100650001EBC0DB407FEFDCF8EB58093F1001EBC0D
:100660000DB407FEFDCF8EB58093F1001EBC0DB416
:1006700007FEFDCF8EB58093F1001EBC0DB407FEC2
:10068000FDCF8EB58093F1001EBC0DB407FEFDCFEB
:100690008EB58093F1001EBC0DB407FEFDCF8EB564
:1006A0008093F1001EBC0DB407FEFDCF8EB5809384
:1006B000F1001EBC0DB407FEFDCF8EB58093F10096
:1006C0001EBC0DB407FEFDCF8EB58093F1001EBC9D
:1006D0000DB407FEFDCF8EB58093F1001EBC0DB4A6
:1006E00007FEFDCF8EB58093F1001EBC0DB407FE52
:1006F000FDCF8EB58093F1001EBC0DB407FEFDCF7B
:100700008EB58093F1001EBC0DB407FEFDCF8EB5F3
:100710008093F1001EBC0DB407FEFDCF8EB5809313
:10072000F1001EBC0DB407FEFDCF8EB58093F10025
:100730001EBC0DB407FEFDCF8EB58093F1001EBC2C
:100740000DB407FEFDCF8EB58093F1001EBC0DB435
:1007500007FEFDCF8EB58093F1001EBC0DB407FEE1
:10076000FDCF8EB58093F1001EBC0DB407FEFDCF0A
:100770008EB58093F1001EBC0DB407FEFDCF8EB583
:100780008093F1001EBC0DB407FEFDCF8EB58093A3
:10079000F1001EBC0DB407FEFDCF8EB58093F100B5
:1007A0008091E8008F778093E800789404C080916E
:1007B000EB0080FF29C08091E80085FFF8CF9150C1
:1007C00009F02DCE60910201709103018091040126
:1007D0009091050160507E4F8F4F9F4F60930201B3
:1007E00070930301809304019093050121972C9A43
:1007F00011F481E00AC059E0969587957795679541
:100800005A95D1F79CDD0ACE80E0DF91CF91089513
:10081000E9E0660F771F881F991FEA95D1F760936B
:1008200002017093030180930401909305011092DB
:1008300007018091060180FF18C08E7F809306011A
:100840002C9A2C9887ED8EBD0DB407FEFDCF1EBCF3
:100850000DB407FEFDCF04C01EBC0DB407FEFDCFD6
:100860000EB407FEF9CF2C9A8EB52C9A2C9882E8FC
:100870008EBD0DB407FEFDCF2091030180910401D0
:10088000880F922F991F9927991F892B8EBD0DB420
:1008900007FEFDCF822F90E08E7F880F991F217079
:1008A000282B2EBD0DB407FEFDCF809102018EBD19
:1008B0000DB407FEFDCF8EB581E0089517C01EBCB4
:1008C0000DB407FEFDCF8091020190910301A0912C
:1008D0000401B09105010196A11DB11D8093020193
:1008E00090930301A0930401B0930501809102014C
:1008F000882329F78091030180FDE1CF8EB52C9AE2
:1009000081E090E00090070102C0880F991F0A94CF
:10091000E2F720910601282B2093060108950F93FA
:100920001F93CF93DF93EC0101E010E098E004C047
:100930008091EB0080FFC6C18091E80085FFF8CF71
:10094000F8948091F1008EBD0DB407FEFDCF80912B
:10095000F1008EBD0DB407FEFDCF8091F1008EBD7C
:100960000DB407FEFDCF8091F1008EBD0DB407FEE2
:10097000FDCF8091F1008EBD0DB407FEFDCF8091BB
:10098000F1008EBD0DB407FEFDCF8091F1008EBD4C
:100990000DB407FEFDCF8091F1008EBD0DB407FEB2
:1009A000FDCF8091F1008EBD0DB407FEFDCF80918B
:1009B000F1008EBD0DB407FEFDCF8091F1008EBD1C
:1009C0000DB407FEFDCF8091F1008EBD0DB407FE82
:1009D000FDCF8091F1008EBD0DB407FEFDCF80915B
:1009E000F1008EBD0DB407FEFDCF8091F1008EBDEC
:1009F0000DB407FEFDCF8091F1008EBD0DB407FE52
:100A0000FDCF8091F1008EBD0DB407FEFDCF80912A
:100A1000F1008EBD0DB407FEFDCF8091F1008EBDBB
:100A20000DB407FEFDCF8091F1008EBD0DB407FE21
:100A3000FDCF8091F1008EBD0DB407FEFDCF8091FA
:100A4000F1008EBD0DB407FEFDCF8091F1008EBD8B
:100A50000DB407FEFDCF8091F1008EBD0DB407FEF1
:100A6000FDCF8091F1008EBD0DB407FEFDCF8091CA
:100A7000F1008EBD0DB407FEFDCF8091F1008EBD5B
:100A80000DB407FEFDCF8091F1008EBD0DB407FEC1
:100A9000FDCF8091F1008EBD0DB407FEFDCF80919A
:100AA000F1008EBD0DB407FEFDCF8091F1008EBD2B
:100AB0000DB407FEFDCF8091F1008EBD0DB407FE91
:100AC000FDCF8091F1008EBD0DB407FEFDCF80916A
:100AD000F1008EBD0DB407FEFDCF8091F1008EBDFB
:100AE0000DB407FEFDCF8091F1008EBD0DB407FE61
:100AF000FDCF8091F1008EBD0DB407FEFDCF80913A
:100B0000F1008EBD0DB407FEFDCF8091F1008EBDCA
:100B10000DB407FEFDCF8091F1008EBD0DB407FE30
:100B2000FDCF8091F1008EBD0DB407FEFDCF809109
:100B3000F1008EBD0DB407FEFDCF8091F1008EBD9A
:100B40000DB407FEFDCF8091F1008EBD0DB407FE00
:100B5000FDCF8091F1008EBD0DB407FEFDCF8091D9
:100B6000F1008EBD0DB407FEFDCF8091F1008EBD6A
:100B70000DB407FEFDCF8091F1008EBD0DB407FED0
:100B8000FDCF8091F1008EBD0DB407FEFDCF8091A9
:100B9000F1008EBD0DB407FEFDCF8091F1008EBD3A
:100BA0000DB407FEFDCF8091F1008EBD0DB407FEA0
:100BB000FDCF8091F1008EBD0DB407FEFDCF809179
:100BC000F1008EBD0DB407FEFDCF8091F1008EBD0A
:100BD0000DB407FEFDCF8091F1008EBD0DB407FE70
:100BE000FDCF8091F1008EBD0DB407FEFDCF809149
:100BF000F1008EBD0DB407FEFDCF8091F1008EBDDA
:100C00000DB407FEFDCF8091F1008EBD0DB407FE3F
:100C1000FDCF8091F1008EBD0DB407FEFDCF809118
:100C2000F1008EBD0DB407FEFDCF8091F1008EBDA9
:100C30000DB407FEFDCF8091F1008EBD0DB407FE0F
:100C4000FDCF8EB58091E8008B7F8093E800809186
:100C5000E8008F778093E8007894915009F06CCE8B
:100C600040910201509103016091040170910501CE
:100C700040505E4F6F4F7F4F4093020150930301EE
:100C8000609304017093050121972C9A98010090BC
:100C9000070102C0220F331F0A94E2F78091060178
:100CA000822B80930601209711F481E00CC0F9E0BB
:100CB0007695679557954795FA95D1F7CB01BA0187
:100CC000A7DD34CE80E0DF91CF911F910F91089581
:100CD0005FDA80E090E020E80FB6F894209361009E
:100CE000809361000FBED4D480E090E008957894A2
:100CF000E8EDF0E080818F76808380818069808359
:100D000080818F7B8083789408958EE089BD09B4BB
:100D100000FEFDCFF8948091D8008F7D8093D8009D
:100D20007FD08091E0008E7F8093E0007894809166
:100D3000E20081608093E2008091E200886080930D
:100D4000E20008958091D90080FF13C080910801CE
:100D5000882379F481E08093080110920A01809140
:100D60000B0190910C01826090930C0180930B0118
:100D7000CCDF8091D90080FD18C034C010920801EA
:100D80001092190180910B0190910C018460909355
:100D90000C0180930B018091E00081608093E00062
:100DA0008091D80080628093D80080910B0190914F
:100DB0000C0190FF10C080910B0190910C019E7F5F
:100DC00090930C0180930B0181E08093EA001092D4
:100DD000EA00109219011092E9008091E80083FF67
:100DE00006C01AC1809108018130F9F6C7CF089575
:100DF0009091EB0091609093EB008093EC008091D8
:100E0000ED008270862B8093ED008091ED00826072
:100E10008093ED008091EE00881F8827881F089539
:100E20008091D8008F7B8093D8008091D90081FF7A
:100E300021C01092E9008091EB0080FD1BC0109250
:100E4000E9008091EB0081608093EB0082E0809369
:100E5000EC008091ED00827080638093ED008091C2
:100E6000ED0082608093ED008091EE00881F88275E
:100E7000881F089580E0089580E00895892B19F572
:100E800081E08093E9008091EB0080618093EB002A
:100E900092E09093EA001092EA008091EB00886063
:100EA0008093EB009093E9008091EB008061809348
:100EB000EB0084E08093EA001092EA008091EB005E
:100EC00088608093EB000895833031F5613069F0DC
:100ED000613028F0623079F06330F1F412C084E0C0
:100EE00080931A0184E191E011C08CE080931A0193
:100EF0008AEC90E00BC082E280931A0186ED90E0CC
:100F000005C08CE180931A0188EF90E090931C015A
:100F100080931B0181E0089580E008950F931F9353
:100F200009EE10E081E0F801808381E864E360DF8E
:100F300082E0F801808380E864E35ADF1F910F911B
:100F40000895DF93CF9300D0CDB7DEB79091F10035
:100F50002091F100813221F56F3F09F057C09923AC
:100F600009F054C0222309F051C08091F100898317
:100F70008091F1008A8389819A81892B09F046C08A
:100F80008091E800877F8093E8008091E8008E7F61
:100F90008093E8008091E80080FFFCCF81E037C0BB
:100FA000813AA1F56E3F91F5992381F5222371F5E0
:100FB0008091F10089838091F1008A8389819A81EF
:100FC000892B21F58091E800877F8093E80045D93F
:100FD00081508093F1008091E8008E7F8093E8003B
:100FE0008091E80080FFFCCF8091E80082FFFCCF79
:100FF0008091E8008B7F8093E8008091E8008F77F4
:101000008093E80081E08093110101C080E00F909F
:101010000F90CF91DF9108950F931F93DF93CF939C
:1010200000D0CDB7DEB78091E8008B7F8093E800D9
:101030001091F1000091F1000630F9F0073068F4EA
:10104000013009F432C1013008F49FC1033009F4C2
:1010500060C1053009F01CC2ECC0093009F40EC1B2
:101060000A3020F4083009F013C2B9C00A3009F47C
:10107000BFC10B3009F00CC2E4C1103809F008C23E
:101080006091F1008091F100813019F0823089F493
:1010900006C082E180931A0188E990E005C080E2F1
:1010A00080931A018AEA90E090931C0180931B01BF
:1010B00004C00ADF882309F4EBC18091F10080911C
:1010C000F1008091F10089838091F1008A83809101
:1010D000E800877F8093E80029813A8180911A0196
:1010E00090E08217930730F48F739070892B21F46E
:1010F00061E003C020931A0160E08091E8008F7ED8
:101100008093E80030911B0140911C0120911A014D
:101110002DC08091E80084FF05C0832F942FFC012F
:1011200090E013C08091D90080FFF7CF8091E80054
:1011300080FFEFCFF2CF522F5150903451F09F5F8C
:1011400084918093F1003196252F3E2F4F2F22233B
:1011500091F78091E80084FD16C08091D90080FF4E
:1011600012C08091E8008E7F8093E800222339F43A
:1011700030931B0140931C0110921A010AC0809108
:10118000E80084FFD3CF30931B0140931C012093D0
:101190001A016130B9F48091E80084FF05C012C0E3
:1011A0008091D90080FF04C08091E80080FFF8CFD3
:1011B0008091E8008E7F8093E80004C08091D90080
:1011C00080FF04C08091E80084FFF8CF8091E800A0
:1011D0008F7E8093E8008091E8008B7F27C01038D5
:1011E00009F056C18091E800877F8093E8008091E4
:1011F00019018093F1008091E8008E7F8093E800D0
:101200008091E8008F778093E80004C08091D90036
:1012100080FF04C08091E80082FFF8CF8091E80051
:101220008B7F8093E8008091E8008F778093E800BF
:1012300041C1112309F02CC19091F1008091E3008C
:101240009F778078982B9093E3008091E800877FC8
:101250008093E8008091E8008E7F8093E80004C0CE
:101260008091D90080FF04C08091E80080FFF8CF12
:101270008091E30080688093E3001CC1112309F092
:1012800007C19091F100923008F002C18091E8000E
:10129000877F8093E800909319018091E8008E7F0A
:1012A0008093E800892F3ADE05C11123C1F1123085
:1012B00009F0EEC08091F1009091F100882309F0CF
:1012C000E7C0E091F100EF77E093E9008091EB0057
:1012D00080FF43C0EE23B1F08091EB0080618093EA
:1012E000EB0081E090E00E2E02C0880F991F0A9457
:1012F000E2F78093EA001092EA008091EB008860A8
:101300008093EB001092E900F0E0EE5EFE4F108259
:1013100033C0112321F0123009F0BAC003C080910C
:10132000F100B6C08091F1009091F100882309F09E
:10133000AFC0E091F100EF7751F48091EB00806253
:101340008093EB008091E800877F8093E800E09332
:10135000E9008091EB0080FD03C01092E90098C085
:101360008091EB0080628093EB001092E900F0E046
:10137000EE5EFE4F81E080838091E800877F80935E
:10138000E8008091E8008E7F51CF8091F10080913C
:10139000F100E091F100113829F0123859F01038BD
:1013A00009F076C08091E800877F8093E800109272
:1013B000F1000DC08091E800877F8093E800F0E0A5
:1013C000EF77F070EE5EFE4F80818093F100109217
:1013D000F1008091E8008E7F8093E80004C0809146
:1013E000D90080FF1BCF8091E80082FFF8CF16CF95
:1013F000113809F04DC08091F1008091F100909179
:10140000F10099839091F1009A83882309F040C0FC
:101410008091E800877F8093E80089819A812CDDA4
:101420008093F1008091E8008E7F8093E80004C0F3
:101430008091D90080FFF2CE8091E80082FFF8CF42
:10144000EDCE113029F56091F1008091F10090917D
:10145000F10099839091F1009A838823C9F48091D7
:10146000E800877F8093E80089819A8107DD1092E8
:10147000E9008091E8008E7F8093E80004C08091AD
:10148000D90080FF17C08091E80080FFF8CF12C01C
:10149000812F602F56DD882369F48091EB008062F4
:1014A0008093EB008091E800877F8093E80081E0E3
:1014B000809312010F900F90CF91DF911F910F91A8
:1014C00008951F920F920FB60F920BB60F92112430
:1014D0002F933F934F935F936F937F938F939F933C
:1014E000AF93BF93EF93FF938091E10082FF08C019
:1014F0008091E20082FF04C08BEF8093E10051D520
:101500008091E10080FF40C08091E20080FF3CC0FC
:1015100080910A018130D9F4809119018823B9F0B2
:101520008091E2008E7F8093E2008FEE8093E10055
:101530008091E20080618093E20089B58D7F89BD52
:1015400019BC8091D80080628093D8001DC08FEEB6
:101550008093E10080910B0190910C018062909347
:101560000C0180930B018EEF8093E1008091E200EB
:1015700080618093E2008091D80080628093D800DF
:1015800089B58D7F89BD19BC8091E10084FF27C09A
:101590008091E20084FF23C009B400FC05C08EE006
:1015A00089BD09B400FEFDCF8091D8008F7D809366
:1015B000D8008FEE8093E1008091E2008F7E8093CF
:1015C000E20080910B0190910C01806490930C01DA
:1015D00080930B018091E20081608093E200809112
:1015E000E10085FF1AC08091E20085FF16C080915E
:1015F000E2008F7E8093E2008FED8093E100809186
:10160000E2008F7D8093E20080910B0190910C01AC
:10161000806890930C0180930B018091E10083FF1F
:1016200011C08091E20083FF0DC087EF8093E1003D
:10163000F7DB80910B0190910C01916090930C016C
:1016400080930B01FF91EF91BF91AF919F918F918B
:101650007F916F915F914F913F912F910F900BBEB2
:101660000F900FBE0F901F9018956CCB0895E7ED6B
:10167000F0E080818160808380818F7B80838081A6
:101680008068808334CBF1DF98D5FDCFF0DFACC527
:10169000FDDFF9CFDF93CF93CDB7DEB762970FB6FB
:1016A000F894DEBF0FBECDBF40912501433108F055
:1016B00042E180E789831A82809132018B831C8208
:1016C0001D821E821F828AE0888719861A861B86E1
:1016D0001C86809133018D87809134018E871F860F
:1016E000188A198A1A8A9E012F5F3F4FF90103C099
:1016F00081918093F1008E2F821B8417C8F3809113
:10170000E8008F778093E80080911D0190911E0181
:10171000A0911F01B0912001841B9109A109B10979
:1017200080931D0190931E01A0931F01B09320018F
:101730001092310110923201109233011092340153
:1017400081E062960FB6F894DEBF0FBECDBFCF9199
:10175000DF9108958091220190E083709070892B31
:1017600021F480912301882369F081E08093310185
:1017700085E08093320184E280933301109234013A
:1017800080E0089590912501913608F090E620E0E0
:10179000E4E3F1E015C0283019F4E8E1F1E009C014
:1017A000203119F4E0E2F1E004C0203211F4E0E36A
:1017B000F1E084918093F1002F5F243219F031968B
:1017C000291748F38091E8008F778093E800809193
:1017D0001D0190911E01A0911F01B0912001821B5B
:1017E0009109A109B10980931D0190931E01A09355
:1017F0001F01B0932001109231011092320110921A
:1018000033011092340181E008951F93182F88232B
:1018100011F01092F1006093F1001092F1008091AC
:1018200035010E944901882321F080E88093F1006E
:1018300002C01092F100112331F01092F1001092C9
:10184000F1001092F1001092F1001F9108951F9382
:10185000282F882319F01091290102C01091250129
:101860008091230190E08F7390708C31910541F04D
:101870008F33910509F456C0019709F0F1C020C0DB
:10188000822F6FE0C2DF8CE18093F1008AE08093C9
:10189000F1001092F10085E08093F1001092F100C8
:1018A0001092F1001092F1001092F1001092F100EC
:1018B0001092F1001092F10081E08093F10021C0BC
:1018C000822F6FE0A2DF81E08093F1008AE08093B5
:1018D000F10090E89093F10083E08093F100109282
:1018E000F1001092F1001092F1001092F1001D3001
:1018F00040F09093F1001092F1001092F1001092DC
:10190000F1008091E8008F778093E80080911D01BD
:1019100090911E01A0911F01B09120014097A10953
:10192000B10939C0222359F01D3110F06BE102C01A
:10193000612F6250822F69DF1830B1F50BC01C3166
:1019400010F06BE102C0612F615080E05EDF143067
:1019500059F511C08091E8008F778093E80080915D
:101960001D0190911E01A0911F01B09120010897C7
:10197000A109B10910C08091E8008F778093E80039
:1019800080911D0190911E01A0911F01B091200135
:101990000497A109B10980931D0190931E01A093A2
:1019A0001F01B093200169C071E07093F1006AE0FB
:1019B0006093F10090E89093F10083E08093F10050
:1019C0001092F1001092F1001092F1001092F100CB
:1019D00020911D0130911E0140911F015091200165
:1019E0001D3060F19093F1001092F1001092F1001F
:1019F0001092F1008CE18093F1006093F10010925D
:101A0000F10085E08093F1001092F1001092F10056
:101A10001092F1001092F1001092F1001092F1007A
:101A20001092F1007093F1008091E8008F7780931D
:101A3000E8002C5130404040504009C08091E800FF
:101A40008F778093E800211B3109410951092093C8
:101A50001D0130931E0140931F01509320010DC0C2
:101A600081E08093310185E08093320184E28093AC
:101A700033011092340180E009C0109231011092BC
:101A80003201109233011092340181E01F910895C8
:101A90000F931F93DF93CF9300D000D000D0CDB72A
:101AA000DEB7FE0133968091230183838091240168
:101AB0008283809125018183809126018B8380918F
:101AC00028018A83809129018983809136018130A0
:101AD00039F48093310185E08093320184E294C02F
:101AE00080911D0190911E01A0911F01B0912001D4
:101AF0000097A105B105C1F489819A81892B39F438
:101B000010923101109232011092330109C081E02C
:101B10008093310185E08093320184E28093330128
:101B20001092340181E07EC0809135010E9449010C
:101B3000813039F48093310187E08093320187E26C
:101B400063C04B815C816D817E8100911D0110918C
:101B50001E0120911F0130912001E9E03695279563
:101B600017950795EA95D1F78091350198010E9464
:101B7000310182309105C9F183309105F1F1892B52
:101B800009F045C029813A8140E050E080911D0173
:101B900090911E01A0911F01B091200169E0B695BE
:101BA000A795979587956A95D1F7281739074A071A
:101BB0005B0739F410923101109232011092330117
:101BC00009C081E08093310185E08093320184E295
:101BD000809333011092340110921D0110921E0166
:101BE00010921F01109220019DCF81E0809331015E
:101BF00082E0809332018AE307C081E08093310163
:101C000086E08093320188E28093330108C081E04E
:101C10008093310184E0809332011092330110925D
:101C2000340180E026960FB6F894DEBF0FBECDBF1C
:101C3000CF91DF911F910F9108950F931F93DF9321
:101C4000CF9300D000D000D0CDB7DEB7FE013396E1
:101C500080912301838380912401828380912501D7
:101C60008183809126018B83809128018A838091D2
:101C70002901898380913601882341F481E0809392
:101C8000310185E08093320184E281C000911D0121
:101C900010911E0120911F013091200101151105A5
:101CA00021053105B9F489819A81892B39F4109283
:101CB0003101109232011092330109C081E080930A
:101CC000310185E08093320184E2809333011092E8
:101CD00034014CC04B815C816D817E81A9E03695D9
:101CE000279517950795AA95D1F780913501980109
:101CF0000E943D0182309105D9F18330910509F4AC
:101D00003FC0892B09F046C029813A8140E050E06C
:101D100080911D0190911E01A0911F01B0912001A1
:101D2000F9E0B695A79597958795FA95D1F7281775
:101D300039074A075B0739F41092310110923201DA
:101D40001092330109C081E08093310185E08093D6
:101D5000320184E2809333011092340110921D010C
:101D600010921E0110921F011092200181E01DC0EF
:101D700081E08093310182E0809332018AE307C0E1
:101D800081E08093310186E08093320188E2809384
:101D9000330108C081E08093310184E080933201F7
:101DA000109233011092340180E026960FB6F89419
:101DB000DEBF0FBECDBFCF91DF911F910F91089570
:101DC0000F931F93DF93CF9300D000D0CDB7DEB732
:101DD000809135018E010F5F1F4FB8010E944E01A7
:101DE0008230910509F43FC08330910509F443C066
:101DF000892B09F04AC0F80183818093F100828128
:101E00008093F10081818093F10080818093F100C3
:101E10001092F1001092F10082E08093F100109294
:101E2000F1008091E8008F778093E80080911D0198
:101E300090911E01A0911F01B09120010897A10966
:101E4000B10980931D0190931E01A0931F01B093CF
:101E50002001109231011092320110923301109240
:101E6000340181E01DC081E08093310182E08093E4
:101E700032018AE307C081E08093310186E08093DC
:101E8000320188E28093330108C081E08093310100
:101E900084E080933201109233011092340180E08B
:101EA0000F900F900F900F90CF91DF911F910F9196
:101EB0000895809135010E9458018230910551F0BA
:101EC0008330910579F0892BB9F410923101109289
:101ED000320118C081E08093310182E080933201A9
:101EE0008AE307C081E08093310186E0809332016C
:101EF00088E28093330108C081E08093310184E05F
:101F000080933201109233011092340181E00895E0
:101F1000809121018A3221F45F9ABADD5F98089599
:101F2000883221F45D9A89DE5D9808958B3111F134
:101F30008C3160F48330B1F0843018F48823A1F040
:101F400023C0823181F08A31F9F410C0853269F002
:101F5000863218F48E31C1F40DC08F3259F08A35B3
:101F600099F406C097CBF6CBA4CF2ACF80E001C06E
:101F700081E06DCC10923101109232011092330148
:101F80001092340181E0089581E08093310185E071
:101F90008093320180E2809333011092340180E01B
:101FA0000895809137018F5F8093370108951F93C3
:101FB00081E08093E90011E00DC08091D90080FF9D
:101FC00067C01092E9008091E80083FF01C024D827
:101FD0001093E9008091EB0085FDEFCF82E08093C4
:101FE000E90012E00DC08091D90080FF51C010922D
:101FF000E9008091E80083FF01C00ED81093E9004A
:102000008091EB0085FDEFCF81E08093E90008C06F
:102010008091D90080FF3CC08091EB0080FF38C0E8
:102020008091E80085FFF4CF85E58093F10093E58A
:102030009093F10082E48093F1009093F1008091FD
:102040000D018093F10080910E018093F100809149
:102050000F018093F100809110018093F100809135
:102060001D018093F10080911E018093F100809109
:102070001F018093F100809120018093F1008091F5
:1020800031018093F1008091E8008F778093E80020
:102090001F91089582E08093E9002091F1008091E2
:1020A000F100833519F490E0253509F091E0809135
:1020B000F100823409F091E08091F100833411F451
:1020C0009923A9F08091E8008B7F8093E8008091AC
:1020D000E8008F778093E80091E09093E900809189
:1020E000EB0080628093EB00909313010895809140
:1020F000F10080930D018091F10080930E01809199
:10210000F10080930F018091F10080931001809184
:10211000F10080931D018091F10080931E01809158
:10212000F10080931F018091F10080932001809144
:10213000F100882321F081E08093360102C01092E3
:1021400036018091F100809335018091110188233F
:1021500021F40E942F01809335018091F100E1E28A
:10216000F1E08091F100819381E0E133F807C9F754
:102170008091E8008B7F8093E8008091E8008F7762
:102180008093E80080913601813011F48093E9005A
:10219000BFDE813089F08091EB0080628093EB009C
:1021A00080913601813011F0E2E001C0E1E0F0E021
:1021B000EE5EFE4F81E0808308951F9903C081E0A9
:1021C00080930001659902C010920001809119016D
:1021D000882349F082E08093E9008091E80082FF43
:1021E00002C058DFE4CE08958AB1806F8AB984B105
:1021F0008F7184B985B1806E85B98DB18F7C8DB9B1
:102200008EB180638EB9E2EEF0E0808184608083DD
:082210000C940C01F894FFCFBF
:00000001FF
