:020000020000FC
:040000001DC055C00A
:10000E004F934CB178944FB65798B03258F4AF9393
:10001E00A0917E004D93A13A09F4A0E8A0937E0032
:10002E00B395AF914F914FBEF894579A189548ECEF
:10003E004DBFBB27DD27FF27D0937C0040E84093C0
:10004E007D0040937E00BB2715D126D1C2D0C29A27
:10005E0048E642BB48EF48BB909A4CE049B9539AE8
:10006E00549A579A4FE045BF40E44BBF7894B09BEB
:10007E0005C0023069F0033041F0F9CF4FEFB0996F
:10008E00F6CF4A95E1F7A5D0F2CF2BD304E0EFCF10
:10009E00C0E66C2D17D19AD125D10BD204E0E7CF53
:1000AE005FB64F933F9343E032E0B09BFECFB19BE0
:1000BE00FECFB19B05C043E03A95000099F0F9CF11
:1000CE0032E04A950000A9F707C06F90AF911F91DB
:1000DE002F91CF916F91522D3F914F915FBE80E442
:1000EE008ABF1895252E86B36F93CF9356E06EE098
:1000FE00CEE676B37370A1F07795881F5A95C9F73F
:10010E00000076B3737061F07795881F57E089937E
:10011E0086B3837029F05A9500006A9551F7D9CFAE
:10012E00C137B8F240916E0030916F0081F44237C2
:10013E0021F43F1561F491E0CCCF403521F43E150A
:10014E0031F493E0C6CF4E3411F43F1551F04832DE
:10015E0011F0463321F4913081F09330B1F090E0FC
:10016E00B8CF2F931F93AF936F920430B9F43BD057
:10017E009630B1F092E003E0A8CF2F931F93AF9388
:10018E006F927FD012D002E0A0CF2F931F93AF9328
:10019E006F92023019F075D0002797CF84D095CF8B
:1001AE00F090A100E090A20090CF573029F0539527
:1001BE00881F5A95E9F789936C2F6D56C62ECEE699
:1001CE00A1E649914D936A95E1F764E5609360006D
:1001DE0008954AEAE42EF42E9927992488240027BC
:1001EE003324112408956D2DCFEC30E0162F23E02B
:1001FE007991C198C09AB99AB89A48B357E000005D
:10020E00779508F0422748BB5A95C9F770FF4227E9
:10021E001A95799148BB91F7582D503041F077954A
:10022E0008F0422748BB00005A95C9F778810000B4
:10023E004C7F48BB55E05A95F1F7C09AC09AB998D1
:10024E00B898C09808954091D0004B3443EC09F013
:10025E004BE44093D000089543EC4093D00040E827
:10026E004093CF00F0DF40E04093D1004093D200A6
:10027E0064E0089540E84093CC0042ED4093CD00F9
:10028E000895CF935F938F92CCEC62E08824ADDF1C
:10029E008F905F91CF91089540E84093C9004AE551
:1002AE004093CA0008958F92C9EC62E088249DDFC6
:1002BE008F90089540E84093CF004EE14093D000D8
:1002CE0062E00895CF936F936C0F4FEF479548817F
:1002DE00242F2795242720952993C617B9F76F91B8
:1002EE00CF910895112777247A94CF936F93312F5E
:1002FE0048E0340F6A95E9F726E06F916F936C0F23
:10030E0063956395488158E0479508F027E02A9554
:10031E00A1F4371526E088F43A95732E513011F476
:10032E0059E0C3955A9590FA1EF037D01A9502C02F
:10033E001BD013956F91CF91D8CF3A9521F05A9546
:10034E0019F7C395DFCF6F91CF9190FA3EF0103031
:10035E0051F06A95185F38F46A950895812E1850F9
:10036E0010F06395812E0895452F59E0541B388166
:10037E00331F2FEF220F5A95E9F73223209526953A
:10038E0048814223342B4881441F3993C61301C040
:10039E0008953881331F3993F9CF452F59E0541BF7
:1003AE004C2F4395C62F3A9137953883C413FBCF04
:1003BE003A9137952FEF5A9511F0220FFCCF322339
:1003CE00209548814223342B38830895CF936F9321
:1003DE00C0E603D06F91CF9108956C0F488138E03D
:1003EE004795221F3A95E1F72993C617B9F7089555
:1003FE00CF936F93CFEC0AD04095309539934883C5
:10040E00CA9562E0EADF6F91CF9108956C0FC395A4
:10041E004991433C11F04B34A9F44FEF3FEF299132
:10042E0018E037FB50F95227441F331F4E7F269595
:10043E00579520F450E8352755E045271A9589F74A
:10044E00C61769F70895C895099231966A95D9F736
:10045E002BC0C895099233FA36F43196C895099295
:10046E00E89433F802C0002409923196625089F75D
:10047E001BC000800992E3956A95D9F715C0EEBBB3
:10048E00E09A0DB20992E3956A95C9F70DC040E85E
:10049E004093CF0068E0C1ED332009F4D4CF32FC95
:1004AE00D8CF30FCE6CFEBCF37FC3324CCDEC0ED1B
:1004BE00089506D09394CFEC15DFD62E9924089587
:1004CE0033244091620030916300407689F47DC000
:1004DE007AC04091640049B976C009B053C04091CA
:1004EE0064004CB9539B6FC05E9BFCCF6CC08CC03C
:1004FE00FF27313069F3323061F13330B1F13430EE
:10050E00C1F13530C1F13630D1F13730D1F138305B
:10051E0009F1393029F13A3011F33B3041F33C30D7
:10052E00C1F23D30D1F23E3091F1343629F03536FC
:10053E0071F0363669F0B1C04091640000000000E1
:10054E00000000000000E42F339440EE7DC03BC05D
:10055E005BC039C0E091640042E0342E40E874C0C4
:10056E00E09164000090660032C16090640013D187
:10057E002AC02AD107C06090640013D124C021D1B3
:10058E0001C015D1E0E041E8342E41E05DC04B2FB3
:10059E004030C9F0609068004395641608F4462D0B
:1005AE004A9530917D00340F313A18F0315A431B81
:1005BE0030E8E0917D0030937D00EA95B41BB08366
:1005CE004395339441C041E020C03030E9F03130E2
:1005DE00D1F03330C1F0353079F0363029F1373083
:1005EE0009F13830A9F0393061F03A30B9F03B30CA
:1005FE0051F03C30B9F051C03091640050D096E0CB
:10060E004CC01090640049C042E0F7E0E0E41CC02A
:10061E001120C9F241E0F7E0E7E316C0F7E0EEE3A0
:10062E0041E012C047DE089530916500313029F067
:10063E00323039F03330D9F00895F7E0E0E242E19C
:10064E0003C0F7E0E2E349E1A0906800A41608F0C9
:10065E00A42E4A2DBB24477009F0B3944A2D46951B
:10066E0046954695B40E43EC4093D00043C03CE013
:10067E00332E30916400303059F0323029F018F6B4
:10068E00F7E0E0E542E0E0CFF7E0E2E54EE5DCCF73
:10069E003324F7E0ECE444E0D7CFDEDD0895232FDA
:1006AE00132F3F3709F43FEB1770173019F40894E6
:1006BE00221F277F2093A20008D06092A1003091C4
:1006CE00A20003D06092A2000895662421E018E0F3
:1006DE00462D379508F042274795661C1A95C1F7A7
:1006EE00089502D0E7DE08954B2D413011F4B7DDA9
:1006FE000895BA943A2D385018E018F41A2DBB24E8
:10070E00B394A32EC4DE62E0610F72DE639563952F
:10071E0008951201010100000008EB03FE21020002
:10072E0001020001090219000101008017090400ED
:10073E000001000000000705810008000A00040304
:10074E00090402035E034156523330393A5553427F
:10075E0020746F20554152542070726F746F636F06
:10076E006C20636F6E766572746572202873696D86
:10077E00706C652960FA43F961FA45F962FA46F937
:10078E0063FA33F964FA34F965FA35F966FA36F92B
:10079E0067FA37F9089541B337B3ECDF41BB37BB86
:1007AE00089542B338B3E6DF42BB38BB089546B373
:1007BE0030B333FB40F935FB41F936FB42F9042ED9
:1007CE00089548B332B3F5CF47B331B3F2CFEEBB92
:1007DE000DBAF894E29A7894E19AE199FECFF3CEAD
:00000001FF
