:1000000083C00000AAC00000A8C00000A6C0000075
:10001000A4C00000A2C00000A0C000009EC000005C
:100020009CC000009AC000000C94AE110C946C0BA4
:1000300094C0000092C0000090C000008EC000007C
:100040008CC000008AC0000088C0000086C000008C
:1000500084C0000082C0000080C000007EC000009C
:100060007CC000007AC0000078C0000076C00000AC
:1000700074C0000072C0000070C000006EC00000BC
:100080006CC000006AC0000068C0000066C00000CC
:1000900064C0000062C000001201000200000040C5
:1000A000EB03000000100102000109023000020110
:1000B00000803209040000020000000007058102F0
:1000C0004000000705020240000009040100010091
:1000D00055AA00070583034000140C034100540097
:1000E0004D0045004C001E03410056005200200008
:1000F00055005300420020004400450056004900CE
:10010000430045000403090411241FBECFEFD0E2D1
:10011000DEBFCDBF80E090E020E80FB6F8942093DA
:100120006100809361000FBE81E011E0A0E0B1E0CA
:10013000EEE2FBE200E00BBF02C007900D92A83197
:10014000B107D9F714E0A8E1B1E001C01D92A333D3
:10015000B107E1F7E1D00C94951552CF8FB7F89421
:1001600097EF94BF98E10FB6F894909360001092C7
:1001700060000FBE87FF01C078940895982F3FB7A5
:10018000F89487EF84BF93FD02C028E001C028E205
:100190009770292B88E190E00FB6F894A89580938A
:1001A00060000FBE2093600037FF01C0789408956F
:1001B0009091EB0091609093EB008093EC00809124
:1001C000ED008270862B8093ED008091ED008260BF
:1001D0008093ED008091EE00881F8827881F089586
:1001E0008091D8008F7B8093D8008091D90081FFC7
:1001F00021C01092E9008091EB0080FD1BC010929D
:10020000E9008091EB0081608093EB0082E08093B5
:10021000EC008091ED00827080638093ED0080910E
:10022000ED0082608093ED008091EE00881F8827AA
:10023000881F089580E00895E9EAF0E090819160D8
:1002400090838093AA00EBEAF0E060838081826073
:1002500080838091AC00807808958930910510F4F6
:1002600080E008958131910510F481E00895813294
:10027000910510F482E008958134910510F483E033
:1002800008958138910510F484E0089521E08130CB
:10029000920710F485E008958150924010F087E0B5
:1002A000089586E0089520E030E041E050E0CA0182
:1002B000022E02C0880F991F0A94E2F78093A800CB
:1002C0001092A8002093A7008091AB008D7F8093AF
:1002D000AB008091A9008E7F8093A9002F5F3F4FD4
:1002E0002730310521F708958091F80020E030E0B3
:1002F000682F70E0422FCB01022E02C095958795A2
:100300000A94E2F780FD06C02F5F3F4F273031058A
:1003100089F748E0842F089521DF80E090E020E80D
:100320000FB6F89420936100809361000FBE10D047
:1003300080E090E008950E94A2130E9403140E949E
:10034000A614F9CF0E94BF130E94E8130C947814EE
:10035000F9DFF1CF7894E8EDF0E080818F7680834B
:1003600080818069808380818F7B808378940895E9
:100370008EE089BD09B400FEFDCF8091D8008F7D4D
:100380008093D8002DDF8091E0008E7F8093E00085
:100390008091E20081608093E2008091E2008860B9
:1003A0008093E20008958091D90080FF13C080916E
:1003B0001801882379F481E08093180110921A01C2
:1003C000809121019091220182609093220180937B
:1003D0002101CEDF8091D90080FD13C02FC0109283
:1003E000180110922E0180912101909122018460C8
:1003F00090932201809321018091D80080628093A4
:10040000D800809121019091220190FF10C080912D
:100410002101909122019E7F9093220180932101DE
:1004200081E08093EA001092EA0010922E0110926F
:10043000E9008091E80083FF06C084C08091180124
:100440008130F9F6CCCF0895E1EFF0E08081E081D2
:1004500080E0089580E00895009721F581E0809381
:10046000E9008091EB0080618093EB0092E0909333
:10047000EA001092EA008091EB0088608093EB0024
:100480009093E9008091EB0080618093EB0084E021
:100490008093EA001092EA008091EB0088608093DC
:1004A000EB000895019791F483E08093E900809137
:1004B000EB0080618093EB0088E08093EA0010926B
:1004C000EA008091EB0088608093EB000895833010
:1004D000F1F4613059F0613018F06230C1F40CC0B1
:1004E00084E080932F0184E091E00BC08CE0809346
:1004F0002F018AED90E005C08EE180932F0186EEFA
:1005000090E0909331018093300181E0089580E084
:1005100008950F931F9309EE10E081E0F8018083A6
:1005200060E381E845DE82E0F801808360E380E8F3
:100530003FDE83E0F801808360E383E839DE1F91CA
:100540000F9108950F931F93DF93CF9300D0CDB7F2
:10055000DEB78091E8008B7F8093E8001091F10076
:100560000091F1000630F9F0073068F4013009F429
:1005700013C1013008F480C1033009F441C10530D2
:1005800009F0EDC1D2C0093009F4EFC00A3020F4FF
:10059000083009F0E4C1A4C00A3009F49BC10B3053
:1005A00009F0DDC1BAC1103809F0D9C16091F1007C
:1005B0008091F100813019F0823089F406C082E127
:1005C00080932F0188E990E005C080E380932F019C
:1005D0008AEA90E0909331018093300104C077DF84
:1005E000882309F4BCC18091F1008091F1008091D1
:1005F000F10089838091F1008A838091E800877FF0
:100600008093E80029813A8180912F0190E0821740
:10061000930730F48F739070892B21F461E003C04D
:1006200020932F0160E08091E8008F7E8093E800A6
:10063000209130013091310140912F0122C08091F1
:10064000E80084FF03C0F90190E00FC08091E8004A
:1006500080FFF5CFF8CF542F5150903449F09F5F71
:1006600084918093F1003196452F9F01442399F79F
:100670008091E80084FD12C08091E8008E7F809315
:10068000E800442339F42093300130933101109273
:100690002F010AC08091E80084FFD8CF2093300159
:1006A0003093310140932F01613069F48091E8006B
:1006B00084FD09C08091E80080FFFCCF8091E800B4
:1006C0008E7F8093E8008091E80084FFFCCF8091CA
:1006D000E8008F7E8093E8008091E8008B7F22C045
:1006E000103809F03CC18091E800877F8093E800D2
:1006F00080912E018093F1008091E8008E7F80939D
:10070000E8008091E8008F778093E8008091E8000E
:1007100082FFFCCF8091E8008B7F8093E80080917E
:10072000E8008F778093E8002CC1112309F017C1EE
:100730009091F1008091E3009F778078982B9093BF
:10074000E3008091E800877F8093E8008091E800D3
:100750008E7F8093E8008091E80080FFFCCF80913D
:10076000E30080688093E3000CC1112309F0F7C017
:100770009091F100923008F0F2C08091E800877FFC
:100780008093E80090932E018091E8008E7F809303
:10079000E800892FBEDEF5C01123C1F1123009F047
:1007A000DEC08091F1009091F100882309F0D7C05C
:1007B000E091F100EF77E093E9008091EB0080FF9A
:1007C00043C0EE23B1F08091EB0080618093EB0099
:1007D00081E090E00E2E02C0880F991F0A94E2F784
:1007E0008093EA001092EA008091EB008860809389
:1007F000EB001092E900F0E0E95DFE4F108233C09B
:10080000112321F0123009F0AAC003C08091F10039
:10081000A6C08091F1009091F100882309F09FC05B
:10082000E091F100EF7751F48091EB0080628093CA
:10083000EB008091E800877F8093E800E093E90077
:100840008091EB0080FD03C01092E90088C0809188
:10085000EB0080628093EB001092E900F0E0E95D2C
:10086000FE4F81E080838091E800877F8093E800DD
:100870008091E8008E7F56CF8091F1008091F10049
:10088000E091F100113829F0123859F0103809F0D0
:1008900066C08091E800877F8093E8001092F100A5
:1008A0000DC08091E800877F8093E800F0E0EF774B
:1008B000F070E95DFE4F80818093F1001092F100AD
:1008C0008091E8008E7F8093E8008091E80082FFAD
:1008D000FCCF20CF113809F042C08091F100809107
:1008E000F1009091F10099839091F1009A8388230F
:1008F000B1F58091E800877F8093E80089819A8133
:10090000A9DD8093F1008091E8008E7F8093E8005C
:100910008091E80082FFFCCFFDCE113001F560919F
:10092000F1008091F1009091F10099839091F10094
:100930009A838823A1F48091E800877F8093E80060
:1009400089819A8189DD1092E9008091E8008E7F8B
:100950008093E8008091E80080FFFCCF12C0602FF8
:10096000812F72DD882369F48091EB00806280938F
:10097000EB008091E800877F8093E80081E080931E
:1009800027010F900F90CF91DF911F910F91089544
:100990000F931F93CF93DF9380911B0190E02AE484
:1009A00030E0829FF001839FF00D929FF00D1124A3
:1009B000DF01A65CBE4F809187018C9380918801F6
:1009C00011968C93DF01A85CBE4F809189018C93B6
:1009D00080918A0111968C93EE5CFE4F0085118503
:1009E00050E0EF012696A52FB0E0FD01EE0FFF1FAE
:1009F000E050FF4F8081918180179107E9F4BD019C
:100A00006F5F7F4FFB01EE0FFF1FE050FF4F4081F4
:100A100011C0FB01E40FF11DEE0FFF1FE050FF4F6F
:100A200020813181888199812817390711F481E06B
:100A30000DC04150442369F7AA0FBB1FAE5FBE4FE4
:100A40008C918E5F580F593070F280E0DF91CF911A
:100A50001F910F9108952F923F924F925F927F9234
:100A60008F929F92AF92BF92CF92DF92EF92FF92BE
:100A70000F931F93DF93CF9300D0CDB7DEB7809154
:100A80008001823011F080E086C04091810149836D
:100A9000809182018A8380911B0190E02AE430E0FA
:100AA000B901869F9001879F300D969F300D1124CC
:100AB000F901EE5CFE4F809186018287809187016B
:100AC0008387742E50E040E015E1412E512C4901FE
:100AD000B5E0CB2ED12CCE0EDF1E57C08081580F33
:100AE00054C0652F70E0FB01E158FE4F81818430D6
:100AF000A9F7A580B680378120E0A2E0EA2EF12C8C
:100B0000EE0EFF1E8F010D5F1F4F1F0184E090E06E
:100B1000280E391EE22FF0E0EE5EFE4F80818A152E
:100B200051F581818B1539F58281831721F5842F49
:100B300090E0849DF001859DF00D949DF00D1124B1
:100B4000E80DF91DEE5CFE4FD7018C918487D8012A
:100B50008C918587A6861786B08A118A328B138A74
:100B6000D1018C91848B4F5FF60180818F5F8083F0
:100B7000433080F42D5F2D5F263060F261587E4F48
:100B8000DB018C91580F5B3F18F4571508F4A9CF7F
:100B9000842F411181E00F900F90CF91DF911F9131
:100BA0000F91FF90EF90DF90CF90BF90AF909F900C
:100BB0008F907F905F904F903F902F900895282FB7
:100BC00090917F0118C08081980F9B3F10F090E0BA
:100BD00014C0A92FB0E0FD01E158FE4F818184309F
:100BE00091F78281821719F48381861731F0A15819
:100BF000BE4F8C91980F9A3F60F3892F0895482F2C
:100C000080911B01682F70E08AE490E0689FF001FA
:100C1000699FF00D789FF00D1124E95BFE4F20E0F5
:100C200030E028C0E2E0F0E0EE0FFF1FEE0FFF1F04
:100C300085E190E0AC01249FC001259F900D349F79
:100C4000900D1124E80FF91F8AE490E09C01629F47
:100C5000C001639F900D729F900D1124E80FF91F42
:100C6000EE5CFE4F868908952F5F3F4F75962330C7
:100C7000310581F08081841719F4E0E0F0E0D4CFF1
:100C80008481841719F4E1E0F0E0CECF80858417E9
:100C900059F7C8CF80E008951F93DC0120911B0114
:100CA00030E085E290E0289FF001299FF00D389F09
:100CB000F00D1124EE0FFF1FEC5CFE4F10818AE453
:100CC00090E0289FF001299FF00D389FF00D11242E
:100CD000EE5CFE4F81818093A10080912101909173
:100CE00022019D7F90932201809321012091A000F9
:100CF0008091A00080628093A00004C08091D90000
:100D000081FD51C1809121019091220191FFF6CF87
:100D100025FD05C08091A0008F7D8093A0001092DA
:100D2000A7008091AA008F7C8093AA008091A600E2
:100D3000877F8093A6008091A9008F7B8093A90074
:100D40003091E2023093AF008091E3028093AF00D4
:100D50008091E4028093AF008091E5028093AF0020
:100D60008091E6028093AF008091E7028093AF000C
:100D70008091E8028093AF008091E9028093AF00F8
:100D80008091A6008F778093A60008C08091D9003B
:100D900081FD09C18091A60084FD15C18091A60046
:100DA00083FFF4CF80912101909122019D7F909348
:100DB0002201809321012091A0008091A0008062F7
:100DC0008093A0008091A90080648093A900409145
:100DD000E8025091E90204C08091D90081FDE3C08E
:100DE000809121019091220191FFF6CF25FD05C050
:100DF0008091A0008F7D8093A00037FF79C0809103
:100E0000A9008F7D8093A9008091AA008F7C8061CA
:100E10008093AA00612F70E03DC08091A9008F7B74
:100E20008093A9000CC08091D90081FDBCC0809145
:100E3000A60084FDC8C08091A60081FDCEC080912F
:100E4000A60080FFF0CF2091F600211739F48091A1
:100E5000EA02813019F0461B570B02C040E050E017
:100E6000FD01922F04C08091AF008193915099238E
:100E7000D1F7A20FB11D8091A90080648093A900D1
:100E80008091A6008E7F8093A6008091A6008F7728
:100E90008093A6004115510509F0BFCF8091AA00AB
:100EA0008F7C80628093AA008091A9008F7B8093C1
:100EB000A9008091A6008B7F8093A6008091A60058
:100EC0008F778093A6000CC08091D90081FD6BC004
:100ED0008091A60084FD77C08091A60081FD7DC031
:100EE0008091A60082FFF0CF8091A6008B7F8DC0FD
:100EF0008091AA008F7C80628093AA008091A600D6
:100F00008B7F8093A600612F70E035C08091A9008F
:100F10008F7B8093A9004617570730F4242F40E0B9
:100F200050E0FD01922F08C0461B570B212FF9CF2F
:100F300081918093AF0091509923D1F7A20FB11DF9
:100F40008091A6008F778093A6000CC08091D90075
:100F500081FD29C08091A60084FD35C08091A60046
:100F600081FD3BC08091A60082FFF0CF8091A6005A
:100F70008B7F8093A6004115510541F68091A90011
:100F800080648093A9008091AA008F7C8061809307
:100F9000AA008091A9008F7B8093A90025C0809131
:100FA000D90081FF0CC08091A90080648093A900C2
:100FB00081E08093A8001092A80088E029C0809169
:100FC000A60084FF06C08091F5008F711092F50095
:100FD0001FC08091A60081FF07C08091A6008D7F71
:100FE0008093A60080E214C08091A60080FFD7CF36
:100FF0008091A6008E7F8093A6008091A9008064D6
:101000008093A9008091A6008F778093A60080E04E
:101010001F910895CF93DF93682F70E08091320184
:1010200090E09B012F5F3F4F82179307B1F520E0BF
:1010300030E0C5E1D0E08AE490E0689FD001699F8C
:10104000B00D789FB00D112417C08081882359F00E
:101050009091A7008093A7008091AB008D7F809333
:10106000AB009093A7004F5F3496433071F72F5F2A
:101070003F4F2330310589F02F5F3F4F2C9FF00108
:101080002D9FF00D3C9FF00D112421503040EA0FB0
:10109000FB1FED5CFE4F40E0D8CF8AE490E0689FF4
:1010A0009001699F300D789F300D1124D901AE5CFD
:1010B000BE4F11961C92119785E290E0689FF00157
:1010C000699FF00D789FF00D1124EE0FFF1FEC5C6F
:1010D000FE4F1082118214961C92149715961C9242
:1010E000159717961C921E92169719961C921E928F
:1010F00018971A961C921A971B961C92F901E25C9B
:10110000FE4F80E0108211821382128215821482B7
:10111000178216821086118612861386148615860B
:1011200016861786108A118A128A138A148A8F5F8C
:101130007596833039F7DF91CF91089580E06ADFAB
:1011400010921B01809133018093A1001092320113
:1011500008952F923F924F925F926F927F928F925B
:101160009F92AF92BF92CF92DF92EF92FF920F9336
:101170001F93DF93CF9300D000D00F92CDB7DEB78F
:10118000809132018150282F30E08AE490E0289F3E
:10119000F001299FF00D389FF00D1124EE5CFE4FF9
:1011A00045814A839091A700882483948092A70068
:1011B0008091AB0081FF04C0839456E08516B1F79F
:1011C0009093A7008AE490E0DC012A9FC0012B9F46
:1011D000900D3A9F900D1124BEE3CB2EB1E0DB2E93
:1011E000C80ED91E662477241C01DAC0F60161817D
:1011F0008081E5DCE82FF0E0E158FE4F9080980E0A
:10120000D6011896BC91B150B9831B82E5E1F0E09C
:101210006E9E20016F9E500C7E9E500C1124B5C016
:101220008081980EFAEFF91508F4C5C0092D10E079
:10123000F801E158FE4F8181853091F7A3E0AA2E95
:10124000B12CA00EB11EF501E158FE4F8081833014
:1012500071F4D60112968D919C911397089739F4E9
:1012600018968C911897815018968C938BC0809209
:10127000A7008091A9008E7F8093A9008091AB0088
:101280008D7F8093AB008091A90081608093A9003D
:101290008092A700F801E158FE4F86818093AD004F
:1012A000F4E0EF2EF12CE00EF11EF701E158FE4FB5
:1012B000808190E00E942D01682FF501E158FE4FDA
:1012C0008081F8013296FD83EC83E158FE4FE08186
:1012D000E7FD02C090E201C090E16295607F64602A
:1012E0008295880F880F807CEF778E2B892B0E9448
:1012F0001C01FB81AF2FB0E09D01220F331F220F95
:10130000331F240D351D220D331D2E5C3E4F4C81A5
:101310005D8141585E4FFA018081F901858B868A93
:101320009D01220F331F220F331F2E5F3F4F240DCD
:10133000351D220D331D2E5C3E4F4FE751E0E40E6C
:10134000F51EF7018081F901858B1396AA0FBB1F4B
:10135000AA0FBB1FA40DB51DA20DB31DAE5CBE4FE1
:10136000A40EB51EF50180811C968C93040F151FE9
:10137000D801EC91B6E0B815F0F09E0E8394EB81A5
:10138000EF5FEB83F981F150F98329812F3F09F059
:101390004DCF0894611C711C45E150E0C40ED51E70
:1013A0005A81651608F422CF80917D018460809374
:1013B0007D0181E001C080E00F900F900F900F90B1
:1013C0000F90CF91DF911F910F91FF90EF90DF90E1
:1013D000CF90BF90AF909F908F907F906F905F90D5
:1013E0004F903F902F90089520E030E0F90174E095
:1013F000EE0FFF1F7A95E1F7E21BF30BE758FD4F65
:101400008081813031F02F5F3F4F2730310571F7F8
:1014100080E00895CF93DF93E9018093A700282F00
:1014200030E0F90194E0EE0FFF1F9A95E1F7E21B1F
:10143000F30BE758FD4F8081813011F480E069C0E3
:10144000A0E0B0E0FD0184E0EE0FFF1F8A95E1F718
:10145000EA1BFB0BE758FD4F8081813029F0119684
:10146000A730B10579F758C0F901A4E0EE0FFF1FCE
:10147000AA95E1F7E21BF30BE758FD4F81E080836B
:10148000728361831482138250874783D287C18716
:10149000148680E190E0968785871092230181E091
:1014A00090E002C0880F991F2A95E2F78093A80068
:1014B0001092A8008091AE0082608093AE0080916F
:1014C000AE0080648093AE008091AE008061809316
:1014D000AE008091AE0081608093AE008091A60046
:1014E0008D7F8093A6008091A6008F7B8093A600BD
:1014F0008091A90080628093A9008091AA008F7CCE
:1015000080618093AA008091A9008F7B8093A900BD
:1015100081E0DF91CF9108958091A00090E0E5E017
:1015200096958795EA95E1F781708093EC0280911A
:10153000A00080628093A00097CFCF93DF93EA0151
:101540008093A700482F50E0FA0194E0EE0FFF1FB0
:101550009A95E1F7E41BF50BE758FD4F8081813048
:1015600011F480E0A5C0A0E0B0E0FD0184E0EE0F42
:10157000FF1F8A95E1F7EA1BFB0BE758FD4F8081BF
:10158000813029F01196A730B10579F794C0FA019E
:10159000A4E0EE0FFF1FAA95E1F7E41BF50BE75857
:1015A000FD4F81E080837283618314821382D08730
:1015B000C78332872187148680E190E096878587EC
:1015C0001682158281E090E0042E02C0880F991FD8
:1015D0000A94E2F78093A8001092A8008091A900D5
:1015E0008F7B8093A9008091AB0090E08077907012
:1015F00024E0959587952A95E1F728E030E002C030
:10160000220F331F8A95E2F7822F90E0681779073F
:1016100008F4262FFA01B4E0EE0FFF1FBA95E1F7A8
:10162000E41BF50BE758FD4F85819681820F911DD4
:1016300096838583FE0104C081918093AF00215081
:101640002223D1F710922301FA01A4E0EE0FFF1F2D
:10165000AA95E1F7E41BF50BE758FD4F148680913E
:10166000A6008B7F8093A6008091A6008D7F80933B
:10167000A6008091A6008F7B8093A6008091AE008B
:1016800082608093AE008091AE0080618093AE0056
:101690008091AE0080648093AE008091AE00846043
:1016A0008093AE008091A6008F778093A60081E0A2
:1016B000DF91CF9108958091A00090E0E5E09695AC
:1016C0008795EA95E1F781708093EC028091A00004
:1016D00080628093A0005BCF1F920F920FB60F9293
:1016E0000BB60F921124EF92FF920F931F932F933B
:1016F0003F934F935F936F937F938F939F93AF939A
:10170000BF93CF93DF93EF93FF938091A7008093D4
:10171000EB020E9474018093A700C82FD0E0FE0165
:1017200034E0EE0FFF1F3A95E1F7EC1BFD0BE75895
:10173000FD4FE184F2848091A60084FF2DC080914A
:10174000F5008F71838710828091AE008B7F80932C
:10175000AE008091AE008E7F8093AE008091AE008F
:101760008D7F8093AE008091AE008F7E8093AE001F
:101770008091AE008F7B8093AE0081E090E00C2ED4
:1017800002C0880F991F0A94E2F78093A800109274
:10179000A8001092F500ACC18091A60081FF02C0A4
:1017A00080E21BC08091A60086FF1AC08091A6002F
:1017B0008F7B8093A6008585968501979687858780
:1017C00085859685892B61F48091AA0082958695FE
:1017D00086958370833021F080E48387108263C113
:1017E0008091A60080FFBAC0FE0124E0EE0FFF1F2B
:1017F0002A95E1F7EC1BFD0BE758FD4F078110859B
:1018000083819481080F191FA181B2818381948102
:10181000A81BB90B8091A90080648093A900409116
:10182000F7002091F600942F80E030E0822B932B7C
:10183000A817B90708F45EC04091F7002091F600A0
:10184000942F80E030E0822B932B8A179B0700F5C2
:101850006091F7008091F6002091AB00562F40E098
:1018600090E0482B592B30E02077307094E035958C
:1018700027959A95E1F788E090E002C0880F991FBC
:101880002A95E2F74817590718F4A0E0B0E00BC01A
:101890004091F7002091F600942F80E030E0822BF9
:1018A000932BA81BB90BFE0184E0EE0FFF1F8A9556
:1018B000E1F7EC1BFD0BE758FD4F6381748140910C
:1018C000F7002091F600942F80E030E0822B932BDC
:1018D000860F971F948383838091F7009091F60081
:1018E00006C08091AF00F80181938F019150992338
:1018F000C1F712C0838194818A0F9B1F94838383D5
:101900009A2F06C08091AF00F80181938F0191500A
:101910009923C1F7A0E0B0E08091A6008E7F80936C
:10192000A600FE0114E0EE0FFF1F1A95E1F7AB2BA6
:10193000B9F08091A9008F7B8093A9008091A600C7
:101940008F778093A60010922301EC1BFD0BE758C4
:10195000FD4F148680E190E09687858760E02CC07B
:10196000EC1BFD0BE758FD4F108213868091AE00F3
:101970008B7F8093AE008091AE008E7F8093AE000F
:101980008091AE008D7F8093AE008091AE008F7EFF
:101990008093AE008091AE008F7B8093AE0081E09B
:1019A00090E00C2E02C0880F991F0A94E2F78093F2
:1019B000A8001092A80061E08091A60082FF99C063
:1019C0008091A6008B7F8093A600FE01A4E0EE0F1D
:1019D000FF1FAA95E1F7EC1BFD0BE758FD4F238194
:1019E000348185819681820F931F9483838316822D
:1019F000158207811085A381B48141815281838141
:101A00009481481B590B09F44CC08091A9008F7B2D
:101A10008093A9008091AB0090E080779070E4E023
:101A200095958795EA95E1F728E030E002C0220F0E
:101A3000331F8A95E2F7822F90E04817590708F480
:101A4000242FA00FB11FFE0174E0EE0FFF1F7A9547
:101A5000E1F7EC1BFD0BE758FD4F85819681820F66
:101A6000911D9683858304C08D918093AF00215092
:101A70002223D1F710922301FE0154E0EE0FFF1F45
:101A80005A95E1F7EC1BFD0BE758FD4F148680E1FA
:101A900090E0968785878091A6008F778093A60037
:101AA00028C0108213868091AE008B7F8093AE0099
:101AB0008091AE008E7F8093AE008091AE008D7FCE
:101AC0008093AE008091AE008F7E8093AE008091B7
:101AD000AE008F7B8093AE0081E090E00C2E02C0C0
:101AE000880F991F0A94E2F78093A8001092A8002B
:101AF00061E08091EB028093A70020E030E0F901E3
:101B000044E0EE0FFF1F4A95E1F7E21BF30BE758A5
:101B1000FD4F8081813059F02F5F3F4F27303105D5
:101B200071F717C08091A0008F7D8093A00066237D
:101B3000A9F0FE0124E0EE0FFF1F2A95E1F7EC1B50
:101B4000FD0BE758FD4F638174818385F70109958B
:101B500005C08091EC02882329F3E9CFFF91EF9132
:101B6000DF91CF91BF91AF919F918F917F916F91B5
:101B70005F914F913F912F911F910F91FF90EF90A7
:101B80000F900BBE0F900FBE0F901F9018951F93D4
:101B900080917E01853009F49DC2863090F48230B8
:101BA00009F468C1833030F48823D9F0813009F01A
:101BB000A0C35CC0833009F47CC1843009F099C3B0
:101BC0005FC2883009F4E2C2893020F4863009F01F
:101BD00090C3D9C28A3009F488C38A3008F432C36A
:101BE00088C380917D01887F80937D0110922201BE
:101BF0001092210110921E0110921B018091DF00B2
:101C000082FD04C08091DF0081FF0FC08091DF0062
:101C10008B7F8093DF008091DF008D7F8093DF00DA
:101C20008091DD0081608093DD008091D8008F7EFF
:101C30008093D800779A6F9A8091D7008F7E809397
:101C4000D7008091DF0080FF56C38091DF008E7F38
:101C50008093DF008091D80080618093D8008091CC
:101C6000DD0082608093DD0081E040C380919F00B1
:101C700080FD05C080911D01813009F0BFC08EEF4D
:101C800080939F0090917D0110922201109221017A
:101C900010921E0110921D018091A000826080931D
:101CA000A0007894987F90937D0180919E00816040
:101CB00080939E008091A00080628093A00010928B
:101CC000200110921F0120E030E019C08091210115
:101CD0009091220191FF0BC08091210190912201EE
:101CE0009D7F90932201809321012F5F3F4F809130
:101CF000D90081FD74C08091DF0082FD70C0243660
:101D0000310520F38091A0008D7F8093A000809109
:101D10009E00826080939E0080912101909122011B
:101D20009D7F909322018093210180919E0081FDEF
:101D3000FCCF8BEF80939F001092200110921F0127
:101D400020E030E017C0809121019091220191FFA5
:101D50000FC080919F0081FF0BC030932001209322
:101D60001F018EEF80939F008DEF80939F000AC02C
:101D70002F5F3F4F8FEF2F3F380729F73093200118
:101D800020931F018091A00082608093A000109298
:101D9000A7001092AD0060E380E00E941C01109249
:101DA000200110921F0120E030E01EC0809121012F
:101DB0009091220191FF0BC080912101909122010D
:101DC0009D7F90932201809321012F5F3F4F80914F
:101DD000D90081FD04C08091DF0082FF05C03093EF
:101DE000200120931F010AC024363105F8F282E059
:101DF00080937E011092200110921F018091DF00DC
:101E000082FD08C08091DF0081FD04C08091D9006F
:101E100080FD71C28091DF008B7F8093DF00809115
:101E2000DD008B7F8093DD0010927E018091DD00CC
:101E300081608093DD008091D8008F7E8093D800F0
:101E40008091D80080618093D8008091DF008D7FE1
:101E50008093DF008091DD0082608093DD008091BF
:101E6000DD0084608093DD0080919E008E7F8093F2
:101E70009E0041C2809121019091220191FF3BC2BD
:101E800080912101909122019D7F90932201809366
:101E9000210180911F0190912001019690932001D2
:101EA00080931F0101978436910508F424C283E0D2
:101EB0001DC210921B01809133018093A10088E024
:101EC0008093340180E88093E20286E08093E3020D
:101ED00080E091E09093E5028093E4021092E702A3
:101EE0001092E60280E490E09093E9028093E80289
:101EF00081E08093EA028FE791E00E944C068823FC
:101F000009F03FC11092200110921F0120E030E043
:101F100019C0809121019091220191FF0BC0809105
:101F20002101909122019D7F9093220180932101B4
:101F30002F5F3F4F8091D90081FD07C08091DF0066
:101F400082FD03C02431310520F33093200120931A
:101F50001F018091A0008D7F8093A00080919E0042
:101F6000826080939E0080912101909122019D7F4B
:101F7000909322018093210180919E0081FDFCCFEE
:101F80008BEF80939F001092200110921F0120E0A0
:101F900030E017C0809121019091220191FF0FC084
:101FA00080919F0081FF0BC03093200120931F017F
:101FB0008EEF80939F008DEF80939F000AC02F5F6C
:101FC0003F4F8FEF2F3F380729F7309320012093A1
:101FD0001F018091A00082608093A00010922001D8
:101FE00010921F011092A7001092AD0060E380E0F4
:101FF0000E941C0120911F013091200119C0809185
:1020000021019091220191FF0BC0809121019091BB
:1020100022019D7F90932201809321012F5F3F4FEA
:102020008091D90081FD07C08091DF0082FD03C04F
:10203000283C310520F33093200120931F0180912B
:102040008601809334011092E20215E01093E302BE
:1020500085E090E09093E5028093E4021092E7021D
:102060001092E6021092E9021092E8021092EA023F
:102070008FE791E00E944C061093330184E036C153
:1020800080E88093E20286E08093E30280E091E0C2
:102090009093E5028093E4021092E7021092E60228
:1020A00082E190E09093E9028093E8021092EA02C4
:1020B0008FE791E00E944C06882309F062C00E94DD
:1020C000C804813029F480917D01816080937D0175
:1020D00085E00CC180E88093E20216E01093E302F1
:1020E00080E092E09093E5028093E4021092E70290
:1020F0001092E6028FEF90E09093E9028093E8025D
:102100001092EA028FE791E00E944C068823C9F5FD
:102110000E942B058823A9F1809132018F5F809363
:10212000320117D8882309F4E6C01092E20289E050
:102130008093E30281E090E09093E5028093E402D3
:102140001092E7021092E6021092E9021092E80261
:102150001092EA028FE791E00E944C06882389F4EE
:1021600010937E018091A00082608093A0008091F6
:10217000A0008F7D8093A00081E080931E01789461
:10218000BAC087E0B3C010921E01B5C080911B0198
:1021900090E02AE430E0829FF001839FF00D929F4F
:1021A000F00D1124EE5CFE4F828585FF19C0109260
:1021B000E20283E08093E30281E090E09093E50205
:1021C0008093E4029093E7028093E6021092E90282
:1021D0001092E8021092EA028FE791E00E944C060A
:1021E0008091A00090E045E0969587954A95E1F7AB
:1021F000817090709093200180931F018091A000C6
:102200008F7D8093A00080919F008F7D80939F00A1
:1022100080919E008E7F80939E0080919F008F7B97
:1022200080939F008091A00080648093A0008091A3
:10223000D80080628093D80089B58D7F89BD19BC94
:1022400089E054C0809121019091220192FD05C046
:1022500080911C01813009F04EC080911C018130B9
:10226000A1F48091A0008F7B8093A0008EE089BDB7
:1022700009B400FEFDCF8091D8008F7D8093D800F7
:1022800080919F008F7B80939F0080919E00816052
:1022900080939E0080919E00846080939E00809138
:1022A0009F0083FFFCCF80919F008F7E80939F00D3
:1022B00010921C0180919F00877F80939F008091E6
:1022C0002101909122019B7F909322018093210113
:1022D00080911F0190912001892B29F08091A0000D
:1022E00080628093A00086E001C08BE080937E0135
:1022F00002C010927E011F9108958EE089BD09B43D
:1023000000FEFDCF8091D8008F768093D800809119
:10231000D80080698093D8008091D8008F7D809309
:10232000D8008091E0008E7F8093E0008091D700FC
:1023300080618093D7008091D80080648093D8001A
:102340008091DD0084608093DD008091A000826038
:102350008093A00010927E010C949E081F920F9211
:102360000FB60F920BB60F921124EF92FF920F93BC
:102370001F932F933F934F935F936F937F938F930D
:102380009F93AF93BF93CF93DF93EF93FF9380918E
:10239000E10082FF08C08091E20082FF04C08BEF61
:1023A0008093E1009FD28091E10080FF40C0809146
:1023B000E20080FF3CC080911A018130D9F4809105
:1023C0002E018823B9F08091E2008E7F8093E20095
:1023D0008FEE8093E1008091E20080618093E200C3
:1023E00089B58D7F89BD19BC8091D80080628093AA
:1023F000D8001DC08FEE8093E10080912101909163
:102400002201806290932201809321018EEF8093BC
:10241000E1008091E20080618093E2008091D80029
:1024200080628093D80089B58D7F89BD19BC809169
:10243000E10084FF27C08091E20084FF23C009B43B
:1024400000FC05C08EE089BD09B400FEFDCF80917F
:10245000D8008F7D8093D8008FEE8093E10080912B
:10246000E2008F7E8093E200809121019091220111
:10247000806490932201809321018091E200816029
:102480008093E2008091E10085FF1AC08091E20014
:1024900085FF16C08091E2008F7E8093E2008FED71
:1024A0008093E1008091E2008F7D8093E200809133
:1024B0002101909122018068909322018093210153
:1024C0008091E10083FF12C08091E20083FF0EC083
:1024D00087EF8093E1000E94F000809121019091AC
:1024E0002201916090932201809321018091DA0072
:1024F00081FF2DC08091D80081FF29C08091D90033
:1025000081FF02C082E001C081E0809324018DEF51
:102510008093DA00909124018091ED029817B9F030
:102520008091D90081FF06C0809121019091220104
:10253000886005C080912101909122018061909373
:1025400022018093210180E00E94BE00FFCF809194
:102550009F0081FF17C08091A00081FF13C00E94DF
:1025600053018DEF80939F008AE080937E018091DC
:102570002101909122019860909322018093210182
:102580000E949E0880919F0080FF09C08091A0005A
:1025900080FF05C08EEF80939F000E9453018091C1
:1025A0009F0085FF91C08091A00085FF8DC0809124
:1025B0009F008F7D80939F00809121019091220147
:1025C00092609093220180932101809123018F5F7B
:1025D00080932301809123018A3F08F475C01092F3
:1025E0002301C0E0D0E000E821E0E22EF12CFE0162
:1025F00094E0EE0FFF1F9A95E1F7EC1BFD0BE758F7
:10260000FD4F8081813009F05AC01091A700C0931E
:10261000A70084858F5F84878485823008F44DC04D
:102620008091AA008295869586958370833009F4FF
:1026300044C0108203878091AE008B7F8093AE00F0
:102640008091AE008E7F8093AE008091AE008D7F32
:102650008093AE008091AE008F7E8093AE0080911B
:10266000AE008F7B8093AE00C7010C2E02C0880F96
:10267000991F0A94E2F78093A8001092A8000E9484
:10268000F409882349F48091EC02882329F480918D
:10269000A0008F7D8093A000FE0184E0EE0FFF1F5D
:1026A0008A95E1F7EC1BFD0BE758FD4F218532853C
:1026B0006381748180E8F90109951093A700219640
:1026C000C730D10509F093CF80919F0086FF21C0CC
:1026D0008091A00086FF1DC08091A0008F7B809319
:1026E000A0008EE089BD09B400FEFDCF8091D80026
:1026F0008F7D8093D80080919F008F7B80939F0077
:102700008091210190912201946090932201809305
:102710002101FF91EF91DF91CF91BF91AF919F91F7
:102720008F917F916F915F914F913F912F911F9169
:102730000F91FF90EF900F900BBE0F900FBE0F9078
:102740001F9018958091D90081FF02C082E001C0DE
:1027500081E0809324019091ED02809124019817EB
:1027600021F080E00E94BE00FFCF9093ED029130F7
:1027700021F0923019F40C94D30109CA0895809184
:10278000D70081608093D7008091D70080648093C8
:10279000D70082B1109224018091D90081FF06C038
:1027A00082E0809324010E94AA010DC081E0809301
:1027B00024018DEF8093DA008091D80082608093AD
:1027C000D80078949ADD809124018093ED020895D9
:1027D00084B18F7184B985B1806E85B98DB18F7CDC
:1027E0008DB98EB180638EB96A98729A8AB1806F02
:1027F0008AB91092EF02E2EEF0E08081846080837B
:102800001092EE02089580912E01882309F469C088
:102810008091EF0287FF02C05C9A01C05C9882E061
:102820008093E9008091E80082FF1AC08091F30054
:102830009091F200E0EFF2E004C08091F10081930A
:1028400091509923D1F78091E8008B7F8093E80025
:102850008091E8008F778093E80081E08093EE021A
:1028600081E08093E9008091E80080FF19C08091A9
:10287000EE028130A9F4E0EFF2E081918093F10063
:1028800083E0E033F807C9F78091E8008E7F8093FA
:10289000E8008091E8008F778093E8001092EE02C4
:1028A00083E08093E9008091E80085FF1AC0809161
:1028B00025018093F1008F5F8093F1008F5F8093FB
:1028C000F1008F5F8093F1009091E8009E7F9093DC
:1028D000E8009091E8009F779093E8008F5F8093E5
:1028E000250108958091EF028F5F8093EF02089594
:1028F00080E090E0FC01EE50FC4F80830196803434
:102900009105C1F78AB1806F8AB984B18F7184B99A
:1029100085B1806E85B98DB18F7C8DB98EB18063A4
:102920008EB96A98729A0895882311F4109226013C
:102930000895882351F424E934E142EF53E060E440
:1029400070E08091F0030C940A0A0895AF92BF9250
:10295000DF92EF92FF920F931F93CF93DF938091BB
:102960007E01863009F0CDC080911E01882309F4D4
:1029700098C0DD249AE4E92EF12C85E1A82EB12C33
:102980007FC00D2D10E00A9DE0010B9DD00D1A9D1A
:10299000D00D1124F901EC0FFD1FEE5CFE4F868572
:1029A0009785892BB9F580899189892B99F5828939
:1029B0009389892B79F5858987FF14C00E94FF05CB
:1029C0008093F00380911B0190E08E9DF0018F9D1C
:1029D000F00D9E9DF00D1124EC0FFD1FEE5CFE4FDF
:1029E000818D14C0818D0E94FF058093F00380913A
:1029F0001B0190E08E9DF0018F9DF00D9E9DF00DCE
:102A00001124EC0FFD1FEE5CFE4F85890E94FF052F
:102A10008093320480911B0190E00A9DF0010B9D90
:102A2000F00D1A9DF00D11249C012E9DC0012F9DCB
:102A3000900D3E9D900D1124E80FF91FEE5CFE4FA6
:102A400086859785892BD9F480899189853591056B
:102A5000B1F4828993898A3A910589F485890E9423
:102A6000FF058093F1038093A7008091A900806205
:102A70008093A9008091A9008F7B8093A900D394B3
:102A800080911B0190E08E9D90018F9D300D9E9D49
:102A9000300D1124F901EE5CFE4F8581D81608F443
:102AA00070CF80912601882369F481E0809326010C
:102AB00029E934E142EF53E060E470E080913204B0
:102AC0000E949D0A8091F1038093A7008091A60047
:102AD00080FF12C08091A60081FD04C08091AF00EC
:102AE0008091AF008091A6008E7F8093A600809198
:102AF000A6008F778093A600629903C088E0809338
:102B00007E0180917E018850823028F41D9903C097
:102B100081E080931C01DF91CF911F910F91FF9075
:0E2B2000EF90DF90BF90AF900895F894FFCF34
:102B2E00EB0302001C2014202301030000200021CF
:082B3E0058120000000055AA26
:00000001FF
