:10000000ACC00000D3C00000D1C00000CFC00000D1
:10001000CDC00000CBC00000C9C00000C7C00000B8
:10002000C5C00000C3C000000C942F22BFC0000058
:10003000BDC00000BBC00000B9C00000B7C00000D8
:10004000B5C00000B3C00000B1C00000AFC00000E8
:10005000ADC00000ABC00000A9C00000A7C00000F8
:10006000A5C00000A3C00000A1C000009FC0000008
:100070009DC000009BC0000099C0000097C0000018
:1000800095C0000093C0000091C000008FC0000028
:100090008DC000008BC0000041544D454C202020F5
:1000A00041543930555342313238204D20532020AD
:1000B000302E3030008000021F00000012010002CC
:1000C00000000040EB03322000100102030109028E
:1000D00020000101008032090400000208065000DF
:1000E00007058102400000070502024000000C03E2
:1000F000410054004D0045004C00400341005600B3
:100100005200200055005300420020004D005500D1
:100110004C005400490020004D00410053005300A2
:100120002000530054004F0052004100470045009A
:100130002000440045004D004F001C0330003000FB
:10014000300030003000300030003000300030002F
:100150003000300030000403090411241FBECFEF2B
:10016000D0E2DEBFCDBF80E090E020E80FB6F8948B
:1001700020936100809361000FBE81E011E0A0E058
:10018000B1E0E8EDFDE500E00BBF02C007900D9285
:10019000AC30B107D9F71CE0ACE0B1E001C01D9272
:1001A000AE3CB107E1F781D10C94EA2E29CF0F9331
:1001B0001F93CF93DF938C01EB01009731F461150E
:1001C000710519F420E030E037C06EE070E081E0A6
:1001D00090E038D0FC019C01009771F180E88383A6
:1001E000209771F0D387C28781E883838091C40C04
:1001F0009091C50C892B21F4F093C50CE093C40CAD
:1002000001151105C9F011870087838182608383FE
:100210008091C60C9091C70C892B71F4F093C70C98
:10022000E093C60C8091C80C9091C90C892B21F4E5
:10023000F093C90CE093C80CC901DF91CF911F91D5
:100240000F9108950F931F93CF93DF93689F8001C1
:10025000699F100D789F100D1124C8010DD0EC017D
:10026000009721F0A80160E070E008D1CE01DF9195
:10027000CF911F910F910895CF93DF93BC018230EE
:10028000910510F462E070E0A091CC0CB091CD0C1F
:10029000ED01E0E0F0E040E050E021C0888199818C
:1002A0008617970769F48A819B81309719F09383A9
:1002B000828304C09093CD0C8093CC0CFE0134C09B
:1002C0006817790738F44115510519F08417950717
:1002D00008F4AC01FE018A819B819C01E901209711
:1002E000E9F641155105A9F1CA01861B970B049740
:1002F00008F4BA01E0E0F0E02AC08D919C911197DA
:1003000084179507F9F46417750781F412968D9197
:100310009C911397309719F09383828304C0909334
:10032000CD0C8093CC0CFD0132964CC0CA01861BCB
:10033000970BFD01E80FF91F6193719302978D935D
:100340009C9340C0FD01828193819C01D90110974B
:10035000A1F68091CA0C9091CB0C892B41F480912D
:100360000801909109019093CB0C8093CA0C4091A5
:100370000A0150910B014115510541F44DB75EB78B
:100380008091060190910701481B590B2091CA0CDE
:100390003091CB0CCA01821B930B8617970780F014
:1003A000AB014E5F5F4F8417950750F0420F531F0C
:1003B0005093CB0C4093CA0CF9016193719302C026
:1003C000E0E0F0E0CF01DF91CF910895CF93DF938C
:1003D000009709F450C0EC0122971B821A82A09169
:1003E000CC0CB091CD0C109709F140E050E0AC1767
:1003F000BD0708F1BB83AA83FE0121913191E20F71
:10040000F31FAE17BF0779F48D919C911197280FB8
:10041000391F2E5F3F4F3983288312968D919C910F
:1004200013979B838A834115510571F4D093CD0CAA
:10043000C093CC0C20C012968D919C911397AD0166
:10044000009711F0DC01D3CFFA01D383C28321914D
:100450003191E20FF31FCE17DF0769F4888199818C
:10046000280F391F2E5F3F4FFA01318320838A8185
:100470009B8193838283DF91CF910895DC0101C03A
:100480006D9341505040E0F708958FB7F89497EF7F
:1004900094BF98E10FB6F8949093600010926000BA
:1004A0000FBE87FF01C078940895EFDF80E090E0F1
:1004B00020E80FB6F89420936100809361000FBE8E
:1004C0000E94A62E64EC7EE28BEB9EE270DE8AB187
:1004D000806F8AB984B18F7184B985B1806E85B916
:1004E0008DB18F7C8DB98EB180638EB96A98729A06
:1004F0008AB1806A8AB98BB18F758BB9239884B120
:10050000876084B985B1896085B987B18F7387B9F0
:1005100087B18F6387B988B18C6788B988B18C7FC0
:1005200088B984B18E6F84B9289A8DB183608DB9F2
:100530008EB18C7F8EB912B881B18FEF81B981E015
:100540000E949A10813049F40E9414230E94FB1FDC
:100550000E94BF2780E090E00895FFCF239884B1E8
:10056000876184B985B18F6185B98CB580618CBD97
:100570008CB5837F8CBD8CB58C608CBD84B186605E
:1005800084B98CB58C7F8CBD8CB58CBD8DB58160EC
:100590008DBD8CB580648CBD10921001109211013C
:1005A0000895109211012C9A2C9887ED8EBD0DB4F0
:1005B00007FEFDCF1EBC0DB407FEFDCF8EB58C73BC
:1005C000843329F0109211012C9A80E008952C9A1E
:1005D00081E080931101089549E0660F771F881F1D
:1005E000991F4A95D1F760930C0170930D01809388
:1005F0000E0190930F01109211018091100180FF64
:1006000018C08E7F809310012C9A2C9887ED8EBD98
:100610000DB407FEFDCF1EBC0DB407FEFDCF04C018
:100620001EBC0DB407FEFDCF0EB407FEF9CF2C9A09
:100630008EB52C9A2C9882ED8EBD0DB407FEFDCFA1
:1006400020910D0180910E01880F922F991F9927FB
:10065000991F892B8EBD0DB407FEFDCF822F90E030
:100660008E7F880F991F2170282B2EBD0DB407FE99
:10067000FDCF80910C018EBD0DB407FEFDCF8FEF35
:100680008EBD0DB407FEFDCF8FEF8EBD0DB407FEFE
:10069000FDCF8FEF8EBD0DB407FEFDCF8FEF8EBD6A
:1006A0000DB407FEFDCF8EB581E008952C9A089514
:1006B000CF93DF93EC0198E0F8941EBC0DB407FED5
:1006C000FDCF8EB58093F1001EBC0DB407FEFDCFAB
:1006D0008EB58093F1001EBC0DB407FEFDCF8EB524
:1006E0008093F1001EBC0DB407FEFDCF8EB5809344
:1006F000F1001EBC0DB407FEFDCF8EB58093F10056
:100700001EBC0DB407FEFDCF8EB58093F1001EBC5C
:100710000DB407FEFDCF8EB58093F1001EBC0DB465
:1007200007FEFDCF8EB58093F1001EBC0DB407FE11
:10073000FDCF8EB58093F1001EBC0DB407FEFDCF3A
:100740008EB58093F1001EBC0DB407FEFDCF8EB5B3
:100750008093F1001EBC0DB407FEFDCF8EB58093D3
:10076000F1001EBC0DB407FEFDCF8EB58093F100E5
:100770001EBC0DB407FEFDCF8EB58093F1001EBCEC
:100780000DB407FEFDCF8EB58093F1001EBC0DB4F5
:1007900007FEFDCF8EB58093F1001EBC0DB407FEA1
:1007A000FDCF8EB58093F1001EBC0DB407FEFDCFCA
:1007B0008EB58093F1001EBC0DB407FEFDCF8EB543
:1007C0008093F1001EBC0DB407FEFDCF8EB5809363
:1007D000F1001EBC0DB407FEFDCF8EB58093F10075
:1007E0001EBC0DB407FEFDCF8EB58093F1001EBC7C
:1007F0000DB407FEFDCF8EB58093F1001EBC0DB485
:1008000007FEFDCF8EB58093F1001EBC0DB407FE30
:10081000FDCF8EB58093F1001EBC0DB407FEFDCF59
:100820008EB58093F1001EBC0DB407FEFDCF8EB5D2
:100830008093F1001EBC0DB407FEFDCF8EB58093F2
:10084000F1001EBC0DB407FEFDCF8EB58093F10004
:100850001EBC0DB407FEFDCF8EB58093F1001EBC0B
:100860000DB407FEFDCF8EB58093F1001EBC0DB414
:1008700007FEFDCF8EB58093F1001EBC0DB407FEC0
:10088000FDCF8EB58093F1001EBC0DB407FEFDCFE9
:100890008EB58093F1001EBC0DB407FEFDCF8EB562
:1008A0008093F1001EBC0DB407FEFDCF8EB5809382
:1008B000F1001EBC0DB407FEFDCF8EB58093F10094
:1008C0001EBC0DB407FEFDCF8EB58093F1001EBC9B
:1008D0000DB407FEFDCF8EB58093F1001EBC0DB4A4
:1008E00007FEFDCF8EB58093F1001EBC0DB407FE50
:1008F000FDCF8EB58093F1001EBC0DB407FEFDCF79
:100900008EB58093F1001EBC0DB407FEFDCF8EB5F1
:100910008093F1001EBC0DB407FEFDCF8EB5809311
:10092000F1001EBC0DB407FEFDCF8EB58093F10023
:100930001EBC0DB407FEFDCF8EB58093F1001EBC2A
:100940000DB407FEFDCF8EB58093F1001EBC0DB433
:1009500007FEFDCF8EB58093F1001EBC0DB407FEDF
:10096000FDCF8EB58093F1001EBC0DB407FEFDCF08
:100970008EB58093F1001EBC0DB407FEFDCF8EB581
:100980008093F1001EBC0DB407FEFDCF8EB58093A1
:10099000F1001EBC0DB407FEFDCF8EB58093F100B3
:1009A0001EBC0DB407FEFDCF8EB58093F1001EBCBA
:1009B0000DB407FEFDCF8EB58093F1001EBC0DB4C3
:1009C00007FEFDCF8EB58093F1001EBC0DB407FE6F
:1009D000FDCF8EB58093F1001EBC0DB407FEFDCF98
:1009E0008EB58093F1001EBC0DB407FEFDCF8EB511
:1009F0008093F1001EBC0DB407FEFDCF8EB5809331
:100A0000F1001EBC0DB407FEFDCF8EB58093F10042
:100A10001EBC0DB407FEFDCF8EB58093F1001EBC49
:100A20000DB407FEFDCF8EB58093F1001EBC0DB452
:100A300007FEFDCF8EB58093F1008091E8008F779F
:100A40008093E800789404C08091EB0080FF29C077
:100A50008091E80085FFF8CF915009F02DCE60918C
:100A60000C0170910D0180910E0190910F01605069
:100A70007E4F8F4F9F4F60930C0170930D018093B9
:100A80000E0190930F0121972C9A11F481E00AC076
:100A900059E096958795779567955A95D1F79CDD9E
:100AA0000ACE80E0DF91CF910895E9E0660F771FCD
:100AB000881F991FEA95D1F760930C0170930D017F
:100AC00080930E0190930F011092110180911001FB
:100AD00080FF18C08E7F809310012C9A2C9887ED90
:100AE0008EBD0DB407FEFDCF1EBC0DB407FEFDCFBD
:100AF00004C01EBC0DB407FEFDCF0EB407FEF9CF37
:100B00002C9A8EB52C9A2C9882E88EBD0DB407FED7
:100B1000FDCF20910D0180910E01880F922F991F1A
:100B20009927991F892B8EBD0DB407FEFDCF822F0B
:100B300090E08E7F880F991F2170282B2EBD0DB459
:100B400007FEFDCF80910C018EBD0DB407FEFDCFD9
:100B50008EB581E0089517C01EBC0DB407FEFDCF11
:100B600080910C0190910D01A0910E01B0910F01A7
:100B70000196A11DB11D80930C0190930D01A093CE
:100B80000E01B0930F0180910C01882329F7809109
:100B90000D0180FDE1CF8EB52C9A81E090E00090B0
:100BA000110102C0880F991F0A94E2F720911001E9
:100BB000282B2093100108950F931F93CF93DF9359
:100BC000EC0101E010E098E004C08091EB0080FFB0
:100BD000C6C18091E80085FFF8CFF8948091F100BC
:100BE0008EBD0DB407FEFDCF8091F1008EBD0DB41A
:100BF00007FEFDCF8091F1008EBD0DB407FEFDCF45
:100C00008091F1008EBD0DB407FEFDCF8091F10003
:100C10008EBD0DB407FEFDCF8091F1008EBD0DB4E9
:100C200007FEFDCF8091F1008EBD0DB407FEFDCF14
:100C30008091F1008EBD0DB407FEFDCF8091F100D3
:100C40008EBD0DB407FEFDCF8091F1008EBD0DB4B9
:100C500007FEFDCF8091F1008EBD0DB407FEFDCFE4
:100C60008091F1008EBD0DB407FEFDCF8091F100A3
:100C70008EBD0DB407FEFDCF8091F1008EBD0DB489
:100C800007FEFDCF8091F1008EBD0DB407FEFDCFB4
:100C90008091F1008EBD0DB407FEFDCF8091F10073
:100CA0008EBD0DB407FEFDCF8091F1008EBD0DB459
:100CB00007FEFDCF8091F1008EBD0DB407FEFDCF84
:100CC0008091F1008EBD0DB407FEFDCF8091F10043
:100CD0008EBD0DB407FEFDCF8091F1008EBD0DB429
:100CE00007FEFDCF8091F1008EBD0DB407FEFDCF54
:100CF0008091F1008EBD0DB407FEFDCF8091F10013
:100D00008EBD0DB407FEFDCF8091F1008EBD0DB4F8
:100D100007FEFDCF8091F1008EBD0DB407FEFDCF23
:100D20008091F1008EBD0DB407FEFDCF8091F100E2
:100D30008EBD0DB407FEFDCF8091F1008EBD0DB4C8
:100D400007FEFDCF8091F1008EBD0DB407FEFDCFF3
:100D50008091F1008EBD0DB407FEFDCF8091F100B2
:100D60008EBD0DB407FEFDCF8091F1008EBD0DB498
:100D700007FEFDCF8091F1008EBD0DB407FEFDCFC3
:100D80008091F1008EBD0DB407FEFDCF8091F10082
:100D90008EBD0DB407FEFDCF8091F1008EBD0DB468
:100DA00007FEFDCF8091F1008EBD0DB407FEFDCF93
:100DB0008091F1008EBD0DB407FEFDCF8091F10052
:100DC0008EBD0DB407FEFDCF8091F1008EBD0DB438
:100DD00007FEFDCF8091F1008EBD0DB407FEFDCF63
:100DE0008091F1008EBD0DB407FEFDCF8091F10022
:100DF0008EBD0DB407FEFDCF8091F1008EBD0DB408
:100E000007FEFDCF8091F1008EBD0DB407FEFDCF32
:100E10008091F1008EBD0DB407FEFDCF8091F100F1
:100E20008EBD0DB407FEFDCF8091F1008EBD0DB4D7
:100E300007FEFDCF8091F1008EBD0DB407FEFDCF02
:100E40008091F1008EBD0DB407FEFDCF8091F100C1
:100E50008EBD0DB407FEFDCF8091F1008EBD0DB4A7
:100E600007FEFDCF8091F1008EBD0DB407FEFDCFD2
:100E70008091F1008EBD0DB407FEFDCF8091F10091
:100E80008EBD0DB407FEFDCF8091F1008EBD0DB477
:100E900007FEFDCF8091F1008EBD0DB407FEFDCFA2
:100EA0008091F1008EBD0DB407FEFDCF8091F10061
:100EB0008EBD0DB407FEFDCF8091F1008EBD0DB447
:100EC00007FEFDCF8091F1008EBD0DB407FEFDCF72
:100ED0008091F1008EBD0DB407FEFDCF8EB58091DF
:100EE000E8008B7F8093E8008091E8008F77809303
:100EF000E8007894915009F06CCE40910C0150912B
:100F00000D0160910E0170910F0140505E4F6F4FC7
:100F10007F4F40930C0150930D0160930E0170932D
:100F20000F0121972C9A98010090110102C0220F05
:100F3000331F0A94E2F780911001822B80931001F5
:100F4000209711F481E00CC0F9E0769567955795EC
:100F50004795FA95D1F7CB01BA01A7DD34CE80E0F1
:100F6000DF91CF911F910F91089583E0089580E064
:100F70000895E82FCB01BA01E13059F0E13028F0B3
:100F8000E23051F021E030E00BC0A9010E94151EB3
:100F900006C0A9018AD003C0A9010E94F10F9C01DB
:100FA000C9010895E82FCB01BA01E13059F0E130D1
:100FB00028F0E23051F021E030E00BC0A9010E949E
:100FC000221F06C0A9013ED003C0A9010E9419102A
:100FD0009C01C9010895813041F0813020F08230B8
:100FE00029F081E008950C94C01229C0D0C7813047
:100FF00059F0813028F0823051F021E030E00BC010
:10100000CB010E94DA1F06C0CB0143D003C0CB0145
:101010000E9441109C01C9010895813051F0813036
:1010200028F0823041F021E030E007C00E94FB1F31
:1010300003C01AD001C0ADD79C01C90108958091A9
:10104000120108950F931F938A01C6DAC80130DB9D
:10105000182F2CDB20E030E0112311F421E030E0E8
:10106000C9011F910F910895909112018091130170
:10107000981729F09093130123E030E008C091DA2B
:10108000813019F022E030E002C020E030E0C901F8
:101090000895FC018FEF9FE1A0E0B0E08083918391
:1010A000A283B383E1CF5ACA08950F931F93CF93BE
:1010B000DF938B019C01EA0180911201882341F4A6
:1010C000C901B801F2DCCE0177DD882321F446DACC
:1010D00021E030E003C03FDD20E030E0C901DF91D6
:1010E000CF911F910F9108958CB580618CBD8CB507
:1010F000837F8CBD8CB58CBD84B1866084B98CB582
:101100008C7F8CBD8CB58CBD8DB581608DBD8CB553
:1011100080648CBD0895982F8FEF8EBD0DB407FEAF
:10112000FDCF90649EBD0DB407FEFDCF872F99279C
:10113000AA27BB278EBD0DB407FEFDCFCB01AA2782
:10114000BB278EBD0DB407FEFDCFBB27A72F962F63
:10115000852F8EBD0DB407FEFDCF4EBD0DB407FE2D
:10116000FDCF85E98EBD0DB407FEFDCF8FEF8093D7
:10117000580390E02FEF06C09F5F9B3019F48093D7
:10118000580308952EBD0DB407FEFDCF8EB58F3FD9
:1011900099F38093580308952898BDDF80935803EE
:1011A000289A0895FF920F931F9360914E03F09138
:1011B0004F0350915003E091510340915203F0903E
:1011C0004D038FE0F822809143038823C1F4242F3C
:1011D00030E0C9018C7790709595879595958795A6
:1011E000082F23703070B3E0220F331FBA95E1F758
:1011F00010915303129516951770122B0AC0042FE5
:101200000F73000F80915303881F8827881F080FD2
:1012100010E070E063707070762F6627770F770F9D
:101220005295569556955370650F711D2F2F30E0CE
:10123000220F331F220F331F620F731F6F5F7F4F09
:1012400080E090E0E370EE0F441F4427441FE40F5A
:10125000F0E0329621E030E002C0220F331FEA9521
:10126000E2F7442737FD4095542F0E94CB2E615062
:101270007040804090406093440370934503809396
:1012800046039093470349E04F15D8F480914403F7
:1012900090914503A0914603B09147032F2D30E074
:1012A0002950304004C0880F991FAA1FBB1F2A95E0
:1012B000D2F78093440390934503A0934603B093E1
:1012C00047032091440330914503409146035091D8
:1012D000470361E070E002C0660F771FFA94E2F7FF
:1012E000882777FD8095982F2F5F3F4F4F4F5F4F97
:1012F0000E94CB2E60933B0370933C0380933D038D
:1013000090933E03212F30E02F5F3F4F802F90E0DE
:101310000196AC01249FC001259F900D349F900D34
:1013200011249093400380933F031F910F91FF90EE
:101330000895289880E090E03FEF0AC0019643ECC2
:101340008035940729F420935803289A80E0089563
:101350003EBD0DB407FEFDCF2EB52F3F79F720938C
:101360005803289A81E00895CF93DF93EC01E1DFE1
:10137000882309F445C0289840E050E060E070E020
:1013800089E0C9DE80935803882319F490E02FEF99
:101390000CC0289A1092140105C0993029F480934A
:1013A0005803289A80E02CC09F5F2EBD0DB407FE25
:1013B000FDCF8EB58E3F89F78093580320E030E053
:1013C0009FEF9EBD0DB407FEFDCF8EB5FE01E20F6F
:1013D000F31F80832F5F3F4F2031310591F78FEF4F
:1013E0008EBD0DB407FEFDCF8FEF8EBD0DB407FE91
:1013F000FDCF8FEF8EBD0DB407FEFDCF289A81E0A3
:10140000DF91CF9108951F93CF93DF936DDE1092FC
:10141000140110924303C0E0D0E01FEF40E050E021
:1014200060E070E080E0B8DE809358031EBD0DB42C
:1014300007FEFDCF2196C536D10509F478C081306D
:1014400069F740E050E060E070E087E3A5DE80935C
:1014500058038FEF8EBD0DB407FEFDCF40E050E086
:1014600060E070E089E298DE982F809358038FEF58
:101470008EBD0DB407FEFDCF9E7F21F481E08093E9
:10148000430318C010924303C0E0D0E01FEF40E0D8
:1014900050E060E070E080E07FDE809358031EBD86
:1014A0000DB407FEFDCF2196C536D10509F43FC026
:1014B000813069F7C0E0D0E01FEF40E050E060E02D
:1014C00070E081E069DE809358031EBD0DB407FE15
:1014D000FDCF219693ECC035D90749F1882369F7F0
:1014E00040E050E060E070E08BE356DE809358030C
:1014F0008FEF8EBD0DB407FEFDCF40E052E060E0FF
:1015000070E080E149DE982F809358038FEF8EBD05
:101510000DB407FEFDCF992351F488E493E024DF56
:10152000882329F03FDE81E08093140101C080E030
:10153000DF91CF911F9108951F93CF93DF938091F7
:1015400014018823B9F4C0E0D0E01FEF08C01EBD2D
:101550000DB407FEFDCF2196CB30D105B9F040E0A8
:1015600050E060E070E080E017DE80935803813047
:1015700071F70EC040E050E060E070E08BE30CDEFD
:1015800080935803882321F01092140180E001C059
:1015900081E0DF91CF911F910895CEDF813011F06E
:1015A00090E00BC080911401882309F42CDF90E0B7
:1015B00080911401813009F491E0892F089529E088
:1015C000660F771F881F991F2A95D1F76093150121
:1015D000709316018093170190931801AACE089575
:1015E00039E0660F771F881F991F3A95D1F76093EE
:1015F000150170931601809317019093180199CEED
:1016000008958F929F92AF92BF92CF92DF92EF9206
:10161000FF921F93C0901501D0901601E090170122
:10162000F09018011FEF20E032E040E050E0C20EE1
:10163000D31EE41EF51E01974C01AA24BB2449E0E9
:10164000880C991CAA1CBB1C4A95D1F78C0C9D1CBC
:10165000AE1CBF1C80E09EEFAFEFBFEFC80ED91EDF
:10166000EA1EFB1E2898B701A60181E154DD809394
:1016700058038823B1F0C0921501D0921601E09270
:101680001701F092180127C0019769F4C092150163
:10169000D0921601E0921701F0921801209358039E
:1016A0001AC080E395E71EBD0DB407FEFDCF2EB531
:1016B0002F3F51F3209358032E3F79F0C09215012C
:1016C000D0921601E0921701F09218018FEF8EBDB3
:1016D0000DB407FEFDCF289A05C298E0F8941EBD10
:1016E0000DB407FEFDCF8EB58093F1001EBD0DB485
:1016F00007FEFDCF8EB58093F1001EBD0DB407FE31
:10170000FDCF8EB58093F1001EBD0DB407FEFDCF59
:101710008EB58093F1001EBD0DB407FEFDCF8EB5D2
:101720008093F1001EBD0DB407FEFDCF8EB58093F2
:10173000F1001EBD0DB407FEFDCF8EB58093F10004
:101740001EBD0DB407FEFDCF8EB58093F1001EBD0A
:101750000DB407FEFDCF8EB58093F1001EBD0DB414
:1017600007FEFDCF8EB58093F1001EBD0DB407FEC0
:10177000FDCF8EB58093F1001EBD0DB407FEFDCFE9
:101780008EB58093F1001EBD0DB407FEFDCF8EB562
:101790008093F1001EBD0DB407FEFDCF8EB5809382
:1017A000F1001EBD0DB407FEFDCF8EB58093F10094
:1017B0001EBD0DB407FEFDCF8EB58093F1001EBD9A
:1017C0000DB407FEFDCF8EB58093F1001EBD0DB4A4
:1017D00007FEFDCF8EB58093F1001EBD0DB407FE50
:1017E000FDCF8EB58093F1001EBD0DB407FEFDCF79
:1017F0008EB58093F1001EBD0DB407FEFDCF8EB5F2
:101800008093F1001EBD0DB407FEFDCF8EB5809311
:10181000F1001EBD0DB407FEFDCF8EB58093F10023
:101820001EBD0DB407FEFDCF8EB58093F1001EBD29
:101830000DB407FEFDCF8EB58093F1001EBD0DB433
:1018400007FEFDCF8EB58093F1001EBD0DB407FEDF
:10185000FDCF8EB58093F1001EBD0DB407FEFDCF08
:101860008EB58093F1001EBD0DB407FEFDCF8EB581
:101870008093F1001EBD0DB407FEFDCF8EB58093A1
:10188000F1001EBD0DB407FEFDCF8EB58093F100B3
:101890001EBD0DB407FEFDCF8EB58093F1001EBDB9
:1018A0000DB407FEFDCF8EB58093F1001EBD0DB4C3
:1018B00007FEFDCF8EB58093F1001EBD0DB407FE6F
:1018C000FDCF8EB58093F1001EBD0DB407FEFDCF98
:1018D0008EB58093F1001EBD0DB407FEFDCF8EB511
:1018E0008093F1001EBD0DB407FEFDCF8EB5809331
:1018F000F1001EBD0DB407FEFDCF8EB58093F10043
:101900001EBD0DB407FEFDCF8EB58093F1001EBD48
:101910000DB407FEFDCF8EB58093F1001EBD0DB452
:1019200007FEFDCF8EB58093F1001EBD0DB407FEFE
:10193000FDCF8EB58093F1001EBD0DB407FEFDCF27
:101940008EB58093F1001EBD0DB407FEFDCF8EB5A0
:101950008093F1001EBD0DB407FEFDCF8EB58093C0
:10196000F1001EBD0DB407FEFDCF8EB58093F100D2
:101970001EBD0DB407FEFDCF8EB58093F1001EBDD8
:101980000DB407FEFDCF8EB58093F1001EBD0DB4E2
:1019900007FEFDCF8EB58093F1001EBD0DB407FE8E
:1019A000FDCF8EB58093F1001EBD0DB407FEFDCFB7
:1019B0008EB58093F1001EBD0DB407FEFDCF8EB530
:1019C0008093F1001EBD0DB407FEFDCF8EB5809350
:1019D000F1001EBD0DB407FEFDCF8EB58093F10062
:1019E0001EBD0DB407FEFDCF8EB58093F1001EBD68
:1019F0000DB407FEFDCF8EB58093F1001EBD0DB472
:101A000007FEFDCF8EB58093F1001EBD0DB407FE1D
:101A1000FDCF8EB58093F1001EBD0DB407FEFDCF46
:101A20008EB58093F1001EBD0DB407FEFDCF8EB5BF
:101A30008093F1001EBD0DB407FEFDCF8EB58093DF
:101A4000F1001EBD0DB407FEFDCF8EB58093F100F1
:101A50001EBD0DB407FEFDCF8EB58093F1007894C6
:101A60008091E8008F778093E80004C08091EB00BC
:101A700080FF30C08091E80085FFF8CF915009F0D9
:101A80002DCE20E032E040E050E0C20ED31EE41E36
:101A9000F51E1EBD0DB407FEFDCF1EBD0DB407FE25
:101AA000FDCF1EBD0DB407FEFDCF1EBD0DB407FE5C
:101AB000FDCF289AC814D904EA04FB0409F0D2CD5A
:101AC000C0921501D0921601E0921701F092180110
:101AD00081E009C0C0921501D0921601E092170171
:101AE000F092180180E01F91FF90EF90DF90CF906F
:101AF000BF90AF909F908F9008957F928F929F920A
:101B0000AF92BF92CF92DF92EF92FF920F931F930B
:101B1000C0901501D0901601E0901701F0901801C7
:101B20000FEF6EEF762E20E032E040E050E0C20E84
:101B3000D31EE41EF51E01974C01AA24BB2459E0D4
:101B4000880C991CAA1CBB1C5A95D1F78C0C9D1CA7
:101B5000AE1CBF1C80E09EEFAFEFBFEFC80ED91EDA
:101B6000EA1EFB1E10E003C01F5F1A3029F1E1DB03
:101B70008823D1F32898B701A60188E1CCDA8093B5
:101B80005803882359F0C0921501D0921601E092B3
:101B90001701F0921801289A90E0ECC10EBD0DB427
:101BA00007FEFDCF7EBC0DB407FEFDCF18E00DC0D3
:101BB0008091EB0080FD09C0C0921501D092160102
:101BC000E0921701F0921801E7CF8091E80085FFBD
:101BD000EFCFF8948091F1008EBD0DB407FEFDCFDC
:101BE0008091F1008EBD0DB407FEFDCF8091F10014
:101BF0008EBD0DB407FEFDCF8091F1008EBD0DB4FA
:101C000007FEFDCF8091F1008EBD0DB407FEFDCF24
:101C10008091F1008EBD0DB407FEFDCF8091F100E3
:101C20008EBD0DB407FEFDCF8091F1008EBD0DB4C9
:101C300007FEFDCF8091F1008EBD0DB407FEFDCFF4
:101C40008091F1008EBD0DB407FEFDCF8091F100B3
:101C50008EBD0DB407FEFDCF8091F1008EBD0DB499
:101C600007FEFDCF8091F1008EBD0DB407FEFDCFC4
:101C70008091F1008EBD0DB407FEFDCF8091F10083
:101C80008EBD0DB407FEFDCF8091F1008EBD0DB469
:101C900007FEFDCF8091F1008EBD0DB407FEFDCF94
:101CA0008091F1008EBD0DB407FEFDCF8091F10053
:101CB0008EBD0DB407FEFDCF8091F1008EBD0DB439
:101CC00007FEFDCF8091F1008EBD0DB407FEFDCF64
:101CD0008091F1008EBD0DB407FEFDCF8091F10023
:101CE0008EBD0DB407FEFDCF8091F1008EBD0DB409
:101CF00007FEFDCF8091F1008EBD0DB407FEFDCF34
:101D00008091F1008EBD0DB407FEFDCF8091F100F2
:101D10008EBD0DB407FEFDCF8091F1008EBD0DB4D8
:101D200007FEFDCF8091F1008EBD0DB407FEFDCF03
:101D30008091F1008EBD0DB407FEFDCF8091F100C2
:101D40008EBD0DB407FEFDCF8091F1008EBD0DB4A8
:101D500007FEFDCF8091F1008EBD0DB407FEFDCFD3
:101D60008091F1008EBD0DB407FEFDCF8091F10092
:101D70008EBD0DB407FEFDCF8091F1008EBD0DB478
:101D800007FEFDCF8091F1008EBD0DB407FEFDCFA3
:101D90008091F1008EBD0DB407FEFDCF8091F10062
:101DA0008EBD0DB407FEFDCF8091F1008EBD0DB448
:101DB00007FEFDCF8091F1008EBD0DB407FEFDCF73
:101DC0008091F1008EBD0DB407FEFDCF8091F10032
:101DD0008EBD0DB407FEFDCF8091F1008EBD0DB418
:101DE00007FEFDCF8091F1008EBD0DB407FEFDCF43
:101DF0008091F1008EBD0DB407FEFDCF8091F10002
:101E00008EBD0DB407FEFDCF8091F1008EBD0DB4E7
:101E100007FEFDCF8091F1008EBD0DB407FEFDCF12
:101E20008091F1008EBD0DB407FEFDCF8091F100D1
:101E30008EBD0DB407FEFDCF8091F1008EBD0DB4B7
:101E400007FEFDCF8091F1008EBD0DB407FEFDCFE2
:101E50008091F1008EBD0DB407FEFDCF8091F100A1
:101E60008EBD0DB407FEFDCF8091F1008EBD0DB487
:101E700007FEFDCF8091F1008EBD0DB407FEFDCFB2
:101E80008091F1008EBD0DB407FEFDCF8091F10071
:101E90008EBD0DB407FEFDCF8091F1008EBD0DB457
:101EA00007FEFDCF8091F1008EBD0DB407FEFDCF82
:101EB0008091F1008EBD0DB407FEFDCF8091F10041
:101EC0008EBD0DB407FEFDCF8091F1008EBD0DB427
:101ED00007FEFDCF8EB58091E8008B7F8093E800F0
:101EE0008091E8008F778093E8007894115009F092
:101EF0006CCE0EBD0DB407FEFDCF0EBD0DB407FEBA
:101F0000FDCF0EBD0DB407FEFDCF9EB590935803D7
:101F1000892F8F71853051F0C0921501D092160132
:101F2000E0921701F0921801289A24C00EBD0DB45A
:101F300007FEFDCF289A20E032E040E050E0C20EDC
:101F4000D31EE41EF51EC814D904EA04FB0409F0EC
:101F500009CEC0921501D0921601E0921701F092BD
:101F6000180104C01F5F1A3009F416CEE2D9882385
:101F7000C9F391E0892F1F910F91FF90EF90DF90AF
:101F8000CF90BF90AF909F908F907F90089580E00A
:101F9000089580911901813069F0813018F0823004
:101FA000D1F414C010921401F8DA813089F48093CE
:101FB000190113C0F2DA813019F420E030E00FC0CB
:101FC00082E0809319011092140107C01092190148
:101FD00022E030E004C01092190123E030E0C90192
:101FE0000895EF92FF920F931F93CF93DF937B019E
:101FF0008C01EA0180911401882309F404DA8091AC
:102000001401813061F4C801B701EADACE0175DD4F
:10201000182FF6DA113019F420E030E002C022E087
:1020200030E0C901DF91CF911F910F91FF90EF90A8
:102030000895EF92FF920F931F93CF93DF937B014D
:102040008C01EA0180911401882309F4DCD9809184
:102050001401813061F4C801B701B1DACE01D1DADF
:10206000182FBDDA113019F420E030E002C022E070
:1020700030E0C901DF91CF911F910F91FF90EF9058
:102080000895CF93DF93EC0180911401882309F424
:10209000BAD980911401813019F022E030E00EC0ED
:1020A0008091440390914503A0914603B09147036A
:1020B00088839983AA83BB8320E030E0C901DF9144
:1020C000CF910895882319F4439A42980895429A2B
:1020D00043980895282F90E030E74FEF28C09923C8
:1020E00019F4439A429802C0429A4398409A309316
:1020F00000314098809100308091003085FFFCCF06
:102100008091003085FFFCCF409A40930031409889
:10211000409A309300314098809100308091003097
:1021200085FFFCCF8091003085FFFCCF9F5F921729
:10213000B0F208951F93182F833008F012E08091B9
:10214000750087608093750080917400806880932B
:102150007400812FBFDF90E030E720E926C099238B
:1021600019F4439A429802C0429A4398409A309395
:1021700000314098809100308091003085FFFCCF85
:102180008091003085FFFCCF409A20930031409829
:10219000419A109200324198809100308C3241F483
:1021A000809100308A3D21F49F5F9117C0F2912FFA
:1021B000892F1F910895409A80E7809300314098BD
:1021C000809100308091003085FFFCCF80910030FD
:1021D00085FFFCCF8091003081700895DF93CF930D
:1021E00000D000D000D0CDB7DEB769837A838B836F
:1021F0009C835E834D83409A80E7809300314098B2
:10220000809100308091003085FFFCCF80910030BC
:1022100085FFFCCF409A109200314098419A8D8101
:10222000809300324198419A8E8180930032419888
:10223000419AFE0131968981809300324198419AFA
:102240008181809300324198419A8281809300324B
:102250004198409A80E3809300314098409A80E70B
:10226000809300314098809100308091003085FF4C
:10227000FCCF8091003085FFFCCF409A1092003156
:10228000409826960FB6F894DEBF0FBECDBFCF9113
:10229000DF910895DF93CF9300D000D000D0CDB769
:1022A000DEB769837A838B839C835E834D83409AF8
:1022B00080E7809300314098809100308091003019
:1022C00086FFFCCF8091003086FFFCCF409A80E8EB
:1022D000809300314098419A8D81809300324198DB
:1022E000419A8E81809300324198419AFE01319645
:1022F0008981809300324198419A81818093003294
:102300004198419A828180930032419826960FB677
:10231000F894DEBF0FBECDBFCF91DF910895DF935C
:10232000CF9300D000D0CDB7DEB769837A838B839B
:102330009C83442339F440E058E050DF8091003022
:102340008F3F51F5409A80E780930031409880910B
:1023500000308091003085FFFCCF8091003085FFF8
:10236000FCCF409A80E6809300314098419AFE016C
:1023700031968981809300324198419A818180937E
:1023800000324198419A8281809300324198409A6C
:1023900080ED8093003140980F900F900F900F9038
:1023A000CF91DF9108953F924F925F926F927F920B
:1023B0008F929F92AF92BF92CF92DF92EF92FF9255
:1023C0000F931F93162F072FF82EE92E41E0A7DF5A
:1023D000812F902FAF2DBE2D7C018D0171E4372E02
:1023E00064E7462E5DE6552E45E6642E3CE6732EE8
:1023F00020E2922E90E1892E8FE3A82EB12CC12CE1
:10240000D12CAE0CBF1CC01ED11E48EF57E0C80136
:10241000B70140DF309200304092003050920030DF
:1024200060920030709200309092003090920030B4
:102430009092003080E410920030109200301092A0
:102440000030109200308450B1F7409A80920031F1
:102450004098EA14FB040C051D0531F00894E11CBA
:10246000F11C011D111DD1CF1F910F91FF90EF9015
:10247000DF90CF90BF90AF909F908F907F906F90A4
:102480005F904F903F900895FF920F931F93182FE6
:10249000092FF62ECA01B90140E058E09FDE212F36
:1024A000302FC901FC0190E004C08091003081937D
:1024B0009F5F9F15D1F71F910F91FF900895409A4C
:1024C00080E7809300314098809100308091003007
:1024D00085FFFCCF8091003085FFFCCF0895DF930E
:1024E000CF9300D000D0CDB7DEB769837A838B83DA
:1024F0009C83409A80E7809300314098809100301F
:102500008091003085FFFCCF8091003085FFFCCFAB
:10251000409A109200314098419A109200324198AE
:10252000419A109200324198419AFE013196898178
:10253000809300324198419A818180930032419882
:10254000419A8281809300324198409A85E380933A
:1025500000314098409A80E7809300314098809104
:1025600000308091003085FFFCCF8091003085FFE6
:10257000FCCF0F900F900F900F90CF91DF910895A7
:1025800080E008959C0140E050E096E0220F331F68
:10259000441F551F9A95D1F7B901CA010895EF92CA
:1025A000FF920F931F93E0902701F0902801009174
:1025B000290110912A016091220170912301CB0120
:1025C000A0E0B0E0A8019701237030704070507017
:1025D000820F931FA41FB51F0497A105B10508F42E
:1025E00061C080912401AB01481B51095093230124
:1025F00040932201E80EF11C011D111DE0922701FC
:10260000F09228010093290110932A0110922601CB
:10261000109225014430510518F44093240103C061
:1026200084E08093240120917F0C20936A03E22FA1
:10263000F0E0EE0FFF1FEE0FFF1FEB57F34F80810F
:102640009181A281B3818093660390936703A093E5
:102650006803B09369030196A11DB11D8083918326
:10266000A283B3832F5F20937F0C213011F410924B
:102670007F0CE0917F0CF0E0EE0FFF1FEE0FFF1FCD
:10268000EB57F34F80819181A281B38180935B03EB
:1026900090935C03A0935D03B0935E03452B11F010
:1026A00080E007C084E090E090932C0180932B01A0
:1026B00081E01F910F91FF90EF900895982F990F4F
:1026C000990F990F11C1F894809100308093F10017
:1026D000809100308093F100809100308093F10070
:1026E000809100308093F100809100308093F10060
:1026F000809100308093F100809100308093F10050
:10270000809100308093F100809100308093F1003F
:10271000809100308093F100809100308093F1002F
:10272000809100308093F100809100308093F1001F
:10273000809100308093F100809100308093F1000F
:10274000809100308093F100809100308093F100FF
:10275000809100308093F100809100308093F100EF
:10276000809100308093F100809100308093F100DF
:10277000809100308093F100809100308093F100CF
:10278000809100308093F100809100308093F100BF
:10279000809100308093F100809100308093F100AF
:1027A000809100308093F100809100308093F1009F
:1027B000809100308093F100809100308093F1008F
:1027C000809100308093F100809100308093F1007F
:1027D000809100308093F100809100308093F1006F
:1027E000809100308093F100809100308093F1005F
:1027F000809100308093F100809100308093F1004F
:10280000809100308093F100809100308093F1003E
:10281000809100308093F100809100308093F1002E
:10282000809100308093F100809100308093F1001E
:10283000809100308093F100809100308093F1000E
:10284000809100308093F100809100308093F100FE
:10285000809100308093F100809100308093F100EE
:10286000809100308093F100809100308093F100DE
:10287000809100308093F100809100308093F100CE
:10288000809100308093F100809100308093F100BE
:10289000809100308093F100809100308093F100AE
:1028A000809100308093F100809100308093F1009E
:1028B000809100308093F100809100308093F1008E
:1028C000809100308093F10078948091E8008F77B8
:1028D0008093E80004C08091EB0080FF08C08091E5
:1028E000E80085FFF8CF9150992309F0ECCE0895C8
:1028F000982F990F990F990F15C18091EB0080FFC8
:1029000014C18091E80085FFF8CFF8948091F10020
:10291000809300308091F100809300308091F1002D
:10292000809300308091F100809300308091F1001D
:10293000809300308091F100809300308091F1000D
:10294000809300308091F100809300308091F100FD
:10295000809300308091F100809300308091F100ED
:10296000809300308091F100809300308091F100DD
:10297000809300308091F100809300308091F100CD
:10298000809300308091F100809300308091F100BD
:10299000809300308091F100809300308091F100AD
:1029A000809300308091F100809300308091F1009D
:1029B000809300308091F100809300308091F1008D
:1029C000809300308091F100809300308091F1007D
:1029D000809300308091F100809300308091F1006D
:1029E000809300308091F100809300308091F1005D
:1029F000809300308091F100809300308091F1004D
:102A0000809300308091F100809300308091F1003C
:102A1000809300308091F100809300308091F1002C
:102A2000809300308091F100809300308091F1001C
:102A3000809300308091F100809300308091F1000C
:102A4000809300308091F100809300308091F100FC
:102A5000809300308091F100809300308091F100EC
:102A6000809300308091F100809300308091F100DC
:102A7000809300308091F100809300308091F100CC
:102A8000809300308091F100809300308091F100BC
:102A9000809300308091F100809300308091F100AC
:102AA000809300308091F100809300308091F1009C
:102AB000809300308091F100809300308091F1008C
:102AC000809300308091F100809300308091F1007C
:102AD000809300308091F100809300308091F1006C
:102AE000809300308091F100809300308091F1005C
:102AF000809300308091F100809300308091F1004C
:102B0000809300308091F100809300308091E80044
:102B10008B7F8093E8008091E8008F778093E800B6
:102B200078949150992309F0ECCE089590E0805864
:102B30009F4F44E0880F991F4A95E1F7409A25E896
:102B4000209300314098419A809300324198419AF5
:102B50009093003241989FEF25C09093003090935E
:102B6000003010920030909300309093003090939A
:102B700000308091F90B809300308091F80B8093A6
:102B800000309093003090930030909300309093F9
:102B900000309093003090930030909300309093E9
:102BA000003061506623C9F60895FC0132C080816F
:102BB0008093003081818093003082818093003047
:102BC000838180930030848180930030858180935D
:102BD000003086818093003087818093003080852B
:102BE000809300308185809300308285809300300F
:102BF0008385809300308485809300308585809321
:102C000000308685809300308785809300307096F1
:102C10006150662361F60895FC0132C08091003056
:102C20008083809100308183809100308283809105
:102C300000308383809100308483809100308583CD
:102C400080910030868380910030878380910030AE
:102C500080878091003081878091003082878091C9
:102C60000030838780910030848780910030858791
:102C70008091003086878091003087877096615000
:102C8000662361F60895EF92FF920F931F93CF93FF
:102C9000DF939C01432F46954695042F10E08091C9
:102CA000610390E001970817190729F480915F03E9
:102CB0009091600304C08091620390916303C0E02F
:102CC000D0E07E01440F440FF42EE701C0E08034D1
:102CD000910568F43093FC0B2093FB0B215030409E
:102CE000820F931F9093FE0B8093FD0B1FC0AC01CE
:102CF0004C0F5D1FC901805C9F4F4817590758F062
:102D00003093FC0B2093FB0B215C3F4F3093FE0B69
:102D10002093FD0B0BC0CA0101979093FE0B80938B
:102D2000FD0BCF979093FC0B8093FB0B80E0CAD9EF
:102D30004091FB0B5091FC0B4C1B5D0B440F551F3E
:102D4000F801EE0FFF1FE251F44F6081718180E0C6
:102D500090E0B6E0660F771F881F991FBA95D1F7EC
:102D60000F57134FF8012081620F711D811D911DB6
:102D700035DA2091FD0B3091FE0B2F5F3F4F809194
:102D8000FB0B9091FC0B281B390B90E00BC0EE0F56
:102D9000FF1F80910030E150F44F8183809100301B
:102DA00080839F5FE92FF0E0E217F30780F38091C3
:102DB000FA0B81608093FA0BDF91CF911F910F91F5
:102DC000FF90EF90089510926C038091830C909186
:102DD000840C8132910510F080E290E080936D03C5
:102DE00080E070D96091F60B7091F70B80E090E075
:102DF00026E0660F771F881F991F2A95D1F720912B
:102E00006403620F711D811D911D40E050E0E6D901
:102E100020916D03EEE6F3E090E008C08091003071
:102E200081838091003080839F5F32969217B0F348
:102E300080916B03816080936B03089580E042D999
:102E40006091590370915A0380E090E056E0660F5C
:102E5000771F881F991F5A95D1F741E060CADF9309
:102E6000CF9300D000D0CDB7DEB769837A838B8350
:102E70009C836091F20B7091F30B8091F40B909115
:102E8000F50B2DDB409A45E8409300314098419A7C
:102E900083E0809300324198419A38E030930032C9
:102EA0004198419AFE013196898180930032419880
:102EB000419A8181809300324198419A8281809326
:102EC000003241988FEF80930030409A4093003158
:102ED0004098419A86E0809300324198419A30931D
:102EE000003241982091F90B209300309091F80B1B
:102EF00090930030409A409300314098419A86E187
:102F0000809300324198419A309300324198209347
:102F1000003090930030409A409300314098419A9D
:102F200086E2809300324198419A30930032419872
:102F30002093003090930030409A409300314098A5
:102F4000419A86E3809300324198419A309300324F
:102F500041982093003090930030409A80E1809314
:102F6000003140980F900F900F900F90CF91DF910C
:102F700008956F927F929F92AF92BF92CF92DF920D
:102F8000EF92FF920F931F9380910201882309F41F
:102F90002DC1837009F424C194E0992E981AE82E6B
:102FA000FF246701DC2CCC24DD0C80917F0C8AD8B7
:102FB000A0917F0CB0E0FD01EE0FFF1FEE0FFF1F91
:102FC000EB57F34F20812F73AA0FBB1FA75ABC4F9B
:102FD0006D917C9180E090E0F6E0660F771F881F8E
:102FE000991FFA95D1F7620F711D811D911DA601E0
:102FF000F5D88091020190910301A0910401B09154
:103000000501890D911DA11DB11D809302019093B1
:103010000301A0930401B0930501192D110F00E0E5
:10302000E4E016950795EA95E1F77EEA672E73E0EE
:10303000772E6C0C7D1C602FC301EEDD80E890E0E4
:10304000E80EF91E64E0EE0CFF1C6A95E1F7A09112
:103050007F0CB0E0FD01EE0FFF1FEE0FFF1FEB57DF
:10306000F34F20812F73AA0FBB1FA75ABC4F6D913E
:103070007C9180E090E036E0660F771F881F991FF3
:103080003A95D1F7620F711D811D911DA701A6D838
:103090009EEAA92E93E0B92EAE0CBF1C692DC50186
:1030A000BBDDE0917F0CF0E0EE0FFF1FEE0FFF1F86
:1030B000EB57F34F6081718182819381A601EAD839
:1030C000602FC30172DD409A85E8809300314098FB
:1030D000419AE09200324198419A88E08093003210
:1030E0004198692DC50161DD409A80E180930031EE
:1030F000409820917F0CE22FF0E0EE0FFF1FEE0FC3
:10310000FF1FEB57F34F80819181A281B38101961C
:10311000A11DB11D80839183A283B3835AC0809186
:103120007F0C0E946210E0917F0CF0E09F01220F63
:10313000331F220F331F2B57334FD9014C914F733D
:10314000EE0FFF1FE75AFC4F80819181A0E0B0E0B5
:1031500076E0880F991FAA1FBB1F7A95D1F7840FBD
:10316000911DA11DB11D8093F20B9093F30BA093C1
:10317000F40BB093F50BF901608171818281938129
:103180006EDE20917F0CE22FF0E0EE0FFF1FEE0FBE
:10319000FF1FEB57F34F80819181A281B38101968C
:1031A000A11DB11D80839183A283B383809102010D
:1031B00090910301A0910401B09105010496A11D15
:1031C000B11D8093020190930301A0930401B09379
:1031D00005012F5F20937F0C213011F410927F0C9A
:1031E00080910201882309F09ACF28DE8FEF9FEFAC
:1031F000AFEFBFEF8093020190930301A09304010E
:10320000B09305011F910F91FF90EF90DF90CF9049
:10321000BF90AF909F907F906F90089580E00E9444
:1032200062106091F60B7091F70B80E090E026E061
:10323000660F771F881F991F2A95D1F72091640385
:10324000620F711D811D911D40E050E023D8409117
:10325000830C5091840CEEEAF3E020E030E09FEF25
:103260002417350738F48081809300308181809362
:10327000003004C090930030909300302F5F3F4F98
:10328000329684E02030380759F79FEF9093003052
:1032900084EB809300308091840C80930030809187
:1032A000830C8093003081E0809300309093003055
:1032B00090930030909300309093003090930030C2
:1032C0009093003080910101809300308091000143
:1032D00080930030909300309093003090930030B2
:1032E000409A80E18093003140980E94DB1090E08A
:1032F000813009F491E0892F0895CF92DF92FF92F7
:103300000F931F93DF93CF930F92CDB7DEB7082FA4
:1033100080E00E9462106091F60B7091F70BA09113
:1033200064038A2F8F5F80936403803421F0CC2460
:10333000DD24198218C080916C03E82FF0E0EE0FB5
:10334000FF1FE559FC4F238134813093F70B209305
:10335000F60B74836383109264038F5F80936C0316
:103360006B0181E08983002319F4F0906C0302C0A3
:10337000F0906D030F2D10E0A801440F551F80E061
:1033800090E0E6E0660F771F881F991FEA95D1F756
:103390006A0F711D811D911D0E94EE104091830CDA
:1033A0005091840C401B510B440F551FEEEAF3E083
:1033B00020E030E009C080910030808380910030AF
:1033C00081832E5F3F4F329624173507A0F3D90132
:1033D000A255BC4FEEE6F3E090E009C081818C93EA
:1033E000808111968C9311979F5F129632969F154C
:1033F000A8F314DFE981E13069F4B60180E090E0E0
:1034000036E0660F771F881F991F3A95D1F741E084
:103410000E948F1180916B038D7F80936B030F90BF
:10342000CF91DF911F910F91FF90DF90CF90089582
:103430000F931F93DF93CF9300D0CDB7DEB7182F34
:10344000062F5A83498380E00E946210A02FB0E0CB
:10345000FD01EE0FFF1FE251F44F6081718180E0AA
:1034600090E026E0660F771F881F991F2A95D1F7F5
:10347000AF57B34F2C91620F711D811D911D40E01C
:1034800050E00E944A1149815A81912F990F990F5A
:10349000990F80E0FC01E255FC4F20E030E09FEF07
:1034A0002417350738F48081809300308181809320
:1034B000003004C090930030909300302F5F3F4F56
:1034C000329684E02030380759F79FEF9093003010
:1034D00088EE80930030009300309093003080910C
:1034E000610380930030909300308A818093003094
:1034F00089818093003090930030909300309093B6
:10350000003090930030909300309093003090936F
:10351000003090930030409A80E1809300314098D1
:103520000E94DB1090E0813009F491E0892F0F9028
:103530000F90CF91DF911F910F910895DF92EF923D
:10354000FF920F931F93CF93DF93D090FC0BD694F1
:10355000D694CD2DD0E08091610390E00197C817FB
:10356000D90729F400915F031091600304C0009112
:1035700062031091630380E00E946210FE01EE0F6F
:10358000FF1FE251F44F6081718180E090E0B6E06E
:10359000660F771F881F991FBA95D1F7FE01EF5765
:1035A000F34F2081620F711D811D911D40E050E09D
:1035B0000E94EE10EEEAF3E09801220F331F2E0F67
:1035C0003F1F07C08091003080838091003081834D
:1035D0003296E217F307B1F78091FB0B9091FC0B49
:1035E0002091FD0B3091FE0B2F5F3F4F281B390BB5
:1035F000DC01B370AA0FBB1FA255BC4F90E00CC0FA
:10360000EE0FFF1FE150F44F81818C938081119662
:103610008C9311979F5F1296E92FF0E0E217F30762
:1036200078F3FE01EF57F34F80818F5F8083803402
:1036300009F045C080916B0380FD01C0C4DBDE0151
:10364000AA0FBB1FA251B44FED90FC901197E091CF
:103650006C03F0E0EE0FFF1FE559FC4F838194816E
:103660008D939C93F482E382CF57D34F188280913D
:103670006B03826080936B03A8016D2D80E0D8DE20
:1036800000E010E046E0EE0CFF1C001F111F4A9501
:10369000D1F741E0C801B7010E948F1120916C035E
:1036A0002F5F20936C0330E080916D0390E00197D1
:1036B0002817390741F480E020DE85DB04C0A8012B
:1036C0006D2D80E0B5DE8091FA0B8D7F8093FA0B33
:1036D000DF91CF911F910F91FF90EF90DF900895B0
:1036E000CF93DF93EC018091270190912801A09165
:1036F0002901B0912A01282F2370892F9A2FAB2FEF
:10370000BB27AC019093F90B8093F80B10927F0CC0
:10371000822F880F109225018093260184E0821B5E
:1037200090E020912201309123012817390708F4F5
:10373000C901809324018091FA0B80FF27C0C1301A
:10374000D10541F481FF06C0F9DE8091F80B90911C
:10375000F90B99DA2091F80B3091F90B8091FB0B62
:103760009091FC0B2817390738F08091FD0B909150
:10377000FE0B8217930760F48091FA0B81FF01C062
:10378000DDDE8091F80B9091F90B01C0CA017BDA64
:1037900080916B0380FF07C0C130D10529F481FF00
:1037A00003C080E0AADD0FDB4091F80B8091FB0B9A
:1037B000481B60916C03C230D10531F5A42FB0E0F5
:1037C000AA0FBB1FA650B44F15962D913C9116978A
:1037D00030935A0320935903E62FF0E0EE0FFF1FBA
:1037E000E559FC4F8381948116969C938E9315978F
:1037F000348323838091FA0B82608093FA0B80914B
:103800006B03826080936B03E42FF0E0EE0FFF1FE9
:10381000E650F44F858196819C0140E050E076E0CF
:10382000220F331F441F551F7A95D1F72093850C23
:103830003093860C4093870C5093880C229781F428
:10384000262F2F5F20936C0330E080916D0390E072
:1038500001972817390789F580E04FDDB4DA2DC0CC
:103860008091270190912801A0912901B0912A010E
:1038700062E0B695A795979587956A95D1F7982FA9
:103880009F7380917F0C882361F0892F90E00196CF
:10389000AA2797FDA095BA2F280F391F4A1F5B1F33
:1038A00004C0290F311D411D511D2093850C3093FB
:1038B000860C4093870C5093880CE0917F0CF0E0CD
:1038C000EE0FFF1FEE0FFF1FEB57F34F808191812B
:1038D000A281B38180935B0390935C03A0935D030B
:1038E000B0935E03DF91CF910895882371F08091AA
:1038F000020190910301A0910401B09105018F5F35
:103900009F4FAF4FBF4F09F034DB81E090E0E8DE1E
:1039100080E008959F92AF92BF92CF92DF92EF9294
:10392000FF920F931F93882371F080910201909171
:103930000301A0910401B09105018F5F9F4FAF4F2C
:10394000BF4F09F016DB82E090E0CADE80E00E9403
:1039500062106091F60B7091F70B80E090E0B6E09A
:10396000660F771F881F991FBA95D1F720916403BE
:10397000620F711D811D911D46E058E00E944A11A1
:1039800010920030409A10E110930031409880E08E
:103990000E9462106091590370915A0380E090E098
:1039A000A6E0660F771F881F991FAA95D1F743E0FD
:1039B00058E00E944A1110920030409A1093003152
:1039C00040988091270190912801A0912901B09100
:1039D0002A01F2E0B695A79597958795FA95D1F7C4
:1039E000EFE39E2E9822FF249F1419F0EE24E39417
:1039F0003CC0E0907F0C39C0EA948E2D0E9462108A
:103A00000E2D10E0000F111FF801E75AFC4F8081C6
:103A10009181A0E0B0E066E0880F991FAA1FBB1F4C
:103A20006A95D1F78A0D9B1DAC1DBD1D8093F20BCD
:103A30009093F30BA093F40BB093F50B000F111FB1
:103A40000B57134FD8016D917D918D919C9107DAA1
:103A5000F80180819181A281B3810196A11DB11DE0
:103A600080839183A283B38304C0AF2CBB24CC2476
:103A7000DD24EE2009F0C0CFF3949F1408F0B4CFFA
:103A8000E0902701F09028010091290110912A016E
:103A900083E090E0A0E0B0E0E822F9220A231B23B3
:103AA00049E0EE0CFF1C001F111F4A95D1F787015A
:103AB00080917F0C0E946210EF2819F1E0917F0C39
:103AC000F0E0EE0FFF1FE75AFC4F6081718180E04C
:103AD00090E026E0660F771F881F991F2A95D1F77F
:103AE000690D711D811D911D40E050E00E94EE1096
:103AF000B701B4E076956795BA95E1F78EEA93E061
:103B00008BD8E0917F0CF0E0EE0FFF1FEE0FFF1F50
:103B1000EB57F34F608171818281938140E050E0E7
:103B20000E944A1174E0169507957A95E1F7602F87
:103B30008EEA93E03AD880E01F910F91FF90EF90CA
:103B4000DF90CF90BF90AF909F9008958091020139
:103B500090910301A0910401B09105018F5F9F4FE7
:103B6000AF4FBF4F81F005DA8091FA0B81FF04C09F
:103B7000E5DC80E090E087D880916B0381FF03C093
:103B800080E0BBDB20C90895EF92FF920F931F9353
:103B9000409A20E12093003140987C0100E010E041
:103BA00020911E0130911F0140912001509121016F
:103BB0002E193F09400B510B209327013093280108
:103BC0004093290150932A01892B19F080E090E05D
:103BD00087DD8091270190912801A0912901B09162
:103BE0002A018093020190930301A0930401B093F2
:103BF00005018091220190912301892B61F480912C
:103C00005B0390E08F739070892B29F480917F0C77
:103C1000882309F413D981E00E946A1080E090E0C3
:103C20001F910F91FF90EF900895DF92EF92FF9216
:103C30000F931F937B018C01BA014115510519F4B3
:103C400020E030E0F8C09A0140E050E02E0D3F1D2A
:103C5000401F511F8091000190910101A0E0B0E050
:103C6000BA2FA92F982F882782179307A407B50783
:103C700018F421E030E0DFC070932301609322014B
:103C8000E0922701F09228010093290110932A0164
:103C900020931E0130931F01409320015093210176
:103CA0001092650381E080931C0180931D01809137
:103CB000020190910301A0910401B0910501E81661
:103CC000F9060A071B07E1F4EE2021F480917F0C2E
:103CD0008823B1F080E090E003DD80917F0C0E94AA
:103CE0006210409125015091260160915B03709113
:103CF0005C0380915D0390915E030E944A1102C0B3
:103D000081E008DE10912401812F0E947814612F38
:103D100084E0811B0E9496158091270190912801D3
:103D2000A0912901B0912A01810F911DA11DB11D02
:103D30008093020190930301A0930401B0930501C5
:103D40000E94CF1295E1D92E00E7E02E10E8F12E67
:103D500000E16AC080915B0390E08F739070892BC3
:103D600061F480917F0C882341F4409A00930031E4
:103D7000409864D880E0CEDD38C0409AD0920031BF
:103D8000409880917F0C0E946210409AE09200312E
:103D90004098809100308091003086FFFCCF809168
:103DA000003086FFFCCF409AF09200314098419A53
:103DB00080912501809300324198419A809126019B
:103DC000809300324198419A80915B038093003246
:103DD0004198419A80915C03809300324198419AC6
:103DE00080915D0380930032419810912401812FCE
:103DF0000E947814612F80E00E949615809127011F
:103E000090912801A0912901B0912A01810F911D63
:103E1000A11DB11D8093020190930301A0930401A1
:103E2000B09305010E94CF12882309F493CF80E05C
:103E300090E0AADE9C01C9011F910F91FF90EF90C5
:103E4000DF900895EF92FF920F931F937B018C01F7
:103E5000FA018091800C882309F4FFCF41155105A8
:103E600009F499C09A0140E050E02E0D3F1D401F1B
:103E7000511F8091000190910101A0E0B0E0BA2FA4
:103E8000A92F982F882782179307A407B50718F43E
:103E900021E030E082C0F0932301E0932201E09220
:103EA0002701F09228010093290110932A01209301
:103EB0001E0130931F014093200150932101109265
:103EC000650381E080931C0180931D010EDD8091CC
:103ED0007F0C0E9462104091250150912601E091D3
:103EE0007F0CF0E0EE0FFF1FEE0FFF1FEB57F34FBD
:103EF00060817181828193810E94EE108091240102
:103F00000E945E130E94CF1210E342C080915B03B7
:103F100090E08F739070892B29F480917F0C882317
:103F200009F4E3DC80917F0C0E946210409A1092A9
:103F300000314098419A8091250180930032419848
:103F4000419A80912601809300324198419A809154
:103F50005B03809300324198419A80915C03809387
:103F600000324198419A80915D03809300324198DC
:103F7000409A1093003140980E945F12409A10922C
:103F800000314098809124010E945E130E94CF125C
:103F9000882309F4BBCF20E030E0C9011F910F91C5
:103FA000FF90EF9008958091800C882311F080E0BD
:103FB0000895E5C40F931F938C01F5DF2091000154
:103FC0003091010140E050E0542F432F322F22273F
:103FD0002150304040405040F801208331834283DB
:103FE000538320E030E0882311F021E030E0C90164
:103FF0001F910F910895D7DF20E030E0882311F062
:1040000021E030E0C90108950F931F93DF93CF9310
:1040100000D0CDB7DEB78091E8008B7F8093E800B9
:104020001091F1000091F1000630F9F0073068F4CA
:10403000013009F415C1013008F482C1033009F4DC
:1040400043C1053009F0F1C1D3C0093009F4F0C013
:104050000A3020F4083009F0E8C1A5C00A3009F49C
:104060009DC10B3009F0E1C1BDC1103809F0DDC1BF
:104070006091F1008091F100813019F0823089F473
:1040800006C082E18093910C8CEB90E005C080E249
:104090008093910C8EEC90E09093930C8093920C13
:1040A00005C00E94162E882309F4BFC18091F1003B
:1040B0008091F1008091F10089838091F1008A83E1
:1040C0008091E800877F8093E80029813A81809180
:1040D000910C90E08217930730F48F739070892BC6
:1040E00021F461E003C02093910C60E08091E8002E
:1040F0008F7E8093E8002091920C3091930C409138
:10410000910C22C08091E80084FF03C0F90190E087
:104110000FC08091E80080FFF5CFF8CF542F5150A9
:10412000903449F09F5F84918093F1003196452F40
:104130009F01442399F78091E80084FD12C080918B
:10414000E8008E7F8093E800442339F42093920C9A
:104150003093930C1092910C0AC08091E80084FF78
:10416000D8CF2093920C3093930C4093910C6130F4
:1041700069F48091E80084FD09C08091E80080FF27
:10418000FCCF8091E8008E7F8093E8008091E8006A
:1041900084FFFCCF8091E8008F7E8093E8008091BF
:1041A000E8008B7F22C0103809F03FC18091E80001
:1041B000877F8093E8008091900C8093F10080913C
:1041C000E8008E7F8093E8008091E8008F778093ED
:1041D000E8008091E80082FFFCCF8091E8008B7FAF
:1041E0008093E8008091E8008F778093E80030C1E9
:1041F000112309F01AC19091F1008091E3009F779B
:104200008078982B9093E3008091E800877F8093DB
:10421000E8008091E8008E7F8093E8008091E800BC
:1042200080FFFCCF8091E30080688093E30010C1A1
:10423000112309F0FAC09091F100923008F0F5C016
:104240008091E800877F8093E8009093900C8091A4
:10425000E8008E7F8093E800892F0E94402EF8C0EE
:104260001123C1F1123009F0E0C08091F10090916A
:10427000F100882309F0D9C0E091F100EF77E093D5
:10428000E9008091EB0080FF43C0EE23B1F0809104
:10429000EB0080618093EB0081E090E00E2E02C085
:1042A000880F991F0A94E2F78093EA001092EA00BF
:1042B0008091EB0088608093EB001092E900F0E0C1
:1042C000E757F34F108233C0112321F0123009F069
:1042D000ACC003C08091F100A8C08091F100909122
:1042E000F100882309F0A1C0E091F100EF7751F4CB
:1042F0008091EB0080628093EB008091E800877FE3
:104300008093E800E093E9008091EB0080FD03C01A
:104310001092E9008AC08091EB0080628093EB00EC
:104320001092E900F0E0E757F34F81E0808380913D
:10433000E800877F8093E8008091E8008E7F55CF6A
:104340008091F1008091F100E091F100113829F0A5
:10435000123859F0103809F068C08091E800877F62
:104360008093E8001092F1000DC08091E800877FF3
:104370008093E800F0E0EF77F070E757F34F80812B
:104380008093F1001092F1008091E8008E7F80937D
:10439000E8008091E80082FFFCCF1FCF113809F0C0
:1043A00044C08091F1008091F1009091F1009983D7
:1043B0009091F1009A838823C1F58091E800877F6E
:1043C0008093E80089819A810E94EE2D8093F1000C
:1043D0008091E8008E7F8093E8008091E80082FF62
:1043E000FCCFFBCE113009F56091F1008091F10016
:1043F0009091F10099839091F1009A838823A9F418
:104400008091E800877F8093E80089819A810E94EB
:10441000F02D1092E9008091E8008E7F8093E800F3
:104420008091E80080FFFCCF13C0602F812F0E9495
:10443000532E882369F48091EB0080628093EB0017
:104440008091E800877F8093E80081E08093890C69
:104450000F900F90CF91DF911F910F9108951F92B0
:104460000F920FB60F920BB60F9211242F933F931A
:104470004F935F936F937F938F939F93AF93BF936C
:10448000EF93FF938091E10082FF07C08091E200EB
:1044900082FF03C08BEF8093E1008091E10080FFF9
:1044A00041C08091E20080FF3DC080912D018130AC
:1044B000D9F48091900C8823B9F08091E2008E7F2E
:1044C0008093E2008FEE8093E1008091E2008061B2
:1044D0008093E20089B58D7F89BD19BC8091D80099
:1044E00080628093D8001DC08FEE8093E1008091A0
:1044F0002E0190912F01806290932F0180932E01C5
:104500008EEF8093E1008091E20080618093E20071
:104510008091D80080628093D80089B58D7F89BD55
:1045200019BC14DB8091E10084FF27C08091E20078
:1045300084FF23C009B400FC05C08EE089BD09B426
:1045400000FEFDCF8091D8008F7D8093D8008FEE44
:104550008093E1008091E2008F7E8093E200809161
:104560002E0190912F01806490932F0180932E0152
:104570008091E20081608093E2008091E10085FFFC
:104580001AC08091E20085FF16C08091E2008F7E04
:104590008093E2008FED8093E1008091E2008F7DB7
:1045A0008093E20080912E0190912F01806890937A
:1045B0002F0180932E018091E10083FF12C0809132
:1045C000E20083FF0EC087EF8093E1000E94C22DBE
:1045D00080912E0190912F01916090932F018093F3
:1045E0002E01FF91EF91BF91AF919F918F917F919C
:1045F0006F915F914F913F912F910F900BBE0F9054
:104600000FBE0F901F9018950C94562D0895E7ED4E
:10461000F0E080818160808380818F7B80838081D6
:10462000806880830C942D2D1092800C8091FA0B61
:104630008C7F8093FA0B80916B038C7F80936B034C
:104640008FEF9FEFAFEFBFEF8093020190930301D5
:10465000A0930401B09305010895FF920F931F9357
:10466000CF93DF93EC01062FF42E162F103498F41D
:10467000CE010E94C212610F711D811D911D41E08A
:1046800058E00E94EE1080910030912F900FF816A4
:1046900011F4192FEBCF812F801BDF91CF911F9148
:1046A0000F91FF900895CF93DF9380E00E946210F6
:1046B000C0911A01D0911B0121C0CE010E94C212EB
:1046C00040E058E00E94EE10809100309091003060
:1046D0008F3F99F4983E11F0943B79F4CE010E94FB
:1046E000C21241E00E948F110E94DB10813029F438
:1046F000CE010E94C2120E94D311219688E0C030E0
:10470000D807D8F2DF91CF9108956F927F928F9260
:104710009F92AF92BF92CF92DF92EF92FF920F9350
:104720001F93CF93DF938FEF9FEF9093600380935E
:104730005F0380E094E090936303809362031092A0
:10474000940C1092970C109265031092980C8FEFB6
:1047500097E09093960C8093950C80E00E946210F5
:1047600000911A0110911B01DD24EE24FF24CC24BA
:10477000C3943FE5632E33E0732E23E8822E2CE0B2
:10478000922E90E0A92E91E0B92E8FC0C8010E9410
:10479000C2129B01AC0160E189E99CE00E944412D5
:1047A0008091990C8F3F59F480919A0C883E69F062
:1047B000843BD1F18D3839F08F3F09F474C00894EF
:1047C000E11CF11C70C0D3946EC090919B0C2091A1
:1047D0009D0C20936103C092940C8091980C8F5F84
:1047E0008093980CC92FD0E0FE01EE0FFF1FE2511D
:1047F000F44F1183008330E021503040C217D307BB
:1048000041F480919F0CF30181838091A00C8093EF
:104810005F030894E11CF11C48EE61E0C8011DDF54
:10482000CF57D34F88833FC00894E11CF11C80917F
:10483000970C8130F9F01093F70B0093F60B44EBD3
:1048400061E0C8010ADF80936403C8010E94C212BC
:104850009B01AC0180916403280F311D411D511D46
:1048600060E189E99CE00E94441280919F0C8F3F97
:1048700021F081E0809365031DC080919B0CF401C1
:10488000818380919C0C8093830C80919D0C8093FC
:1048900030018091A40CF50181838091A50C809357
:1048A0000001C092970C0F5F1F4FF8E000301F0708
:1048B00008F46CCFF0923301E0923201D0923101D2
:1048C00090E080916503813009F491E0892FDF91B8
:1048D000CF911F910F91FF90EF90DF90CF90BF90FD
:1048E000AF909F908F907F906F9008950F931F933C
:1048F000CF93DF93082F10E0F801EE0FFF1FEB5668
:10490000F34FC081D1812AC0CE010E94C2129B0107
:10491000AC0168E089E99CE00E9444128091990C06
:104920008F3FD9F480919A0C8F3FB9F480919F0CFE
:104930008F3F99F48091A00C8F3F79F4000F111FE5
:104940000B56134F2197F801D183C0832196CE01D6
:10495000DF91CF911F910F910895219780911A01B6
:1049600090911B01C817D90778F68091F60B9091AA
:10497000F70B0E94C21241E00E948F11FFCF2F92CD
:104980003F924F925F926F927F928F929F92AF92DF
:10499000BF92CF92DF92EF92FF920F931F93DF931C
:1049A000CF93CDB7DEB72A970FB6F894DEBF0FBE10
:1049B000CDBFABDE382F882331F01A861E01089454
:1049C000211C311C3BC08091940C882321F08091E4
:1049D000970C882319F481E0809365032091940C4F
:1049E000213041F4909161038091980C981711F057
:1049F0002093650380910001909101012FEF8F3F7B
:104A0000920711F0892B19F481E08093650380915E
:104A10005F03909160038F5F9F4F19F481E0809353
:104A2000650380913001813019F081E08093650346
:104A300080916503882309F0C0CF7FC25A855F5FEC
:104A40005A87533011F431E07BC22DDE5EDE8823BD
:104A5000A9F780913201909133010396909333012D
:104A600080933201F090310100911A0110911B01E5
:104A7000109501951F4F0050184F081B190BB801D6
:104A800080E090E028EE33E040E050E00E94CB2E42
:104A90004AE096958795779567954A95D1F77093F3
:104AA000010160930001061B170B0F1911091093E8
:104AB000840C0093830C0630110508F4FFCF80E0CE
:104AC0000E94621080E012DF9093F70B8093F60B48
:104AD0000E94C21241E00E948F1110926103E09087
:104AE0000001F090010180916103082F10E080E047
:104AF000FDDE000F111F0251144FF80191838083D6
:104B0000E0916103F0E0DF01AF57B34F1C92EE0F6D
:104B1000FF1FE251F44F808191810E94C21241E057
:104B20000E948F11809161038F5F80936103F1E098
:104B3000EF16F4E0FF0628F040E05CEFE40EF51E0F
:104B4000D2CF1A821982F0926003E0925F0355245B
:104B5000BAC1482E4518752C770C770C6624209125
:104B600062033091630351E0541530F45301A20EF7
:104B7000B31E4424439413C0A0905F03B09060031D
:104B8000A60CB71C842D90E00197FC01E29FC001A8
:104B9000E39F900DF29F900D1124A80EB91EECEE2C
:104BA000FBE02FEF21832083329743E0EC3AF407B8
:104BB000C1F780910001909101019987888780E079
:104BC0000E946210EFEFFFEFF0935A03E093590356
:104BD00080911A0190911B019A83898399241F82E5
:104BE0009FC0C6010E94C2129B01AC0168E089E926
:104BF0009CE00E9444128091990C8F3F09F08BC079
:104C000080919A0C8F3F09F086C090919F0C9F3F36
:104C100029F48091A00C8F3F09F47DC09C83809182
:104C2000A00C8B83EB80FC8048855985E416F50643
:104C300040F0C6010E94C21241E00E948F1151E073
:104C40005F83E614F70408F466C0EA14FB0408F076
:104C500062C087011370000F111FD801A255BC4F0D
:104C60009C919F3F71F4980121553C4FF90180813F
:104C70008F3F39F4F10181818C938081F901808328
:104C80004AC09E838FEA882E83E0982E800E911E64
:104C9000F40180818D838091590390915A03FFEF35
:104CA0008F3F9F0731F00E94C21241E00E948F1196
:104CB000C5CEF092F90BE092F80BC6010E94C21229
:104CC00043E058E00E94EE10809100302D813E813B
:104CD0008F3F31F0D0925A03C0925903C9010FC0DF
:104CE00030935A032093590302551C4FF1018181DF
:104CF000F8018083F1018081F4018083C6010E9464
:104D0000C2126093850C7093860C8093870C9093ED
:104D1000880C992493940894C11CD11CDA82C9820E
:104D2000C980DA80F0E0CF16F8E0DF0608F459CF4A
:104D3000992009F478C08091590390915A038F5FAC
:104D40009F4F09F47BCE10927F0C8091F80B9091CD
:104D5000F90BA0E0B0E0BA2FA92F982F88278093F5
:104D6000020190930301A0930401B0930501FF2475
:104D700080917F0C0E94621006E018E0E0917F0CA9
:104D8000F0E0EE0FFF1FEE0FFF1FEB57F34F6081B8
:104D9000718182819381A8010E94EE108091003080
:104DA0008F3F21F4809100308F3FD1F1809102013B
:104DB00090910301A0910401B09105010196A11DFC
:104DC000B11D8093020190930301A0930401B0935D
:104DD0000501005F1F4F48E00634140779F6209163
:104DE0007F0CE22FF0E0EE0FFF1FEE0FFF1FEB57DF
:104DF000F34F80819181A281B3810196A11DB11DE4
:104E000080839183A283B3832F5F20937F0C213013
:104E100011F410927F0CF39450E4F51609F0A8CF2A
:104E20000E94B9170BCE8F81882309F007CE0E940C
:104E300062100EEA13E07501EE0CFF1CE00EF11E8D
:104E4000C301880F991FE81AF90A15C0F80180817B
:104E50008F3F79F481818F3F61F480E047DD9A8351
:104E60008983F1018181F8018083F1018081F8015A
:104E700081830E5F1F4F0E151F0541F722C0052DC0
:104E800010E08091610390E001970817190729F459
:104E900040915F035091600304C0409162035091C0
:104EA0006303652D80E00E94181A882341F0000FEB
:104EB000111F0251144FF8018081918138C04A942A
:104EC00053944420E1F680916103581608F441CED2
:104ED00080E00E9462100EEA13E0EE24FF2416C068
:104EE00080E004DD9A8389830E94C21241E00E941F
:104EF0008F11F1018181F8018083F1018081F80136
:104F000081830894E11CF11C0E5F1F4F8091830C7C
:104F10009091840CE816F90618F3109264030E942D
:104F20000E19882349F08091F60B9091F70B0E949F
:104F3000C2120E94D31182CD30E081E08093800CB8
:104F4000832F2A960FB6F894DEBF0FBECDBFCF9148
:104F5000DF911F910F91FF90EF90DF90CF90BF9066
:104F6000AF909F908F907F906F905F904F903F9009
:104F70002F90089549DB59D5FDCF49DB64C5FDDF8E
:104F8000F9CFDF93CF93CDB7DEB762970FB6F89422
:104F9000DEBF0FBECDBF4091B10C433108F042E1FE
:104FA00080E789831A828091BE0C8B831C821D82CC
:104FB0001E821F828AE0888719861A861B861C86B5
:104FC0008091BF0C8D878091C00C8E871F86188AB8
:104FD000198A1A8A9E012F5F3F4FF90103C0819100
:104FE0008093F1008E2F821B8417C8F38091E80014
:104FF0008F778093E8008091A90C9091AA0CA091E2
:10500000AB0CB091AC0C841B9109A109B109809340
:10501000A90C9093AA0CA093AB0CB093AC0C10927B
:10502000BD0C1092BE0C1092BF0C1092C00C81E00F
:1050300062960FB6F894DEBF0FBECDBFCF91DF9161
:1050400008958091AE0C90E083709070892B21F4CC
:105050008091AF0C882369F081E08093BD0C85E0DE
:105060008093BE0C84E28093BF0C1092C00C80E051
:1050700008959091B10C913608F090E620E0E4EBB1
:10508000F0E015C0283019F4E8E9F0E009C020315B
:1050900019F4E0EAF0E004C0203211F4E0EBF0E0B3
:1050A00084918093F1002F5F243219F031962917F3
:1050B00048F38091E8008F778093E8008091A90CF5
:1050C0009091AA0CA091AB0CB091AC0C821B9109F1
:1050D000A109B1098093A90C9093AA0CA093AB0CE1
:1050E000B093AC0C1092BD0C1092BE0C1092BF0C81
:1050F0001092C00C81E008951F93182F882311F09F
:105100001092F1006093F1001092F1008091C10CB7
:105110000E94EB07882321F080E88093F10002C011
:105120001092F100112331F01092F1001092F10071
:105130001092F1001092F1001F9108950F931F93A8
:10514000182F882319F00091B50C02C00091B10C02
:105150008091AF0C90E08F7390708C31910541F08D
:105160008F33910509F456C0019709F0E2C020C0C1
:105170006FE0812FC1DF8CE18093F1008AE08093A2
:10518000F1001092F10085E08093F1001092F1009F
:105190001092F1001092F1001092F1001092F100C3
:1051A0001092F1001092F10081E08093F10021C093
:1051B0006FE0812FA1DF81E08093F1008AE080938E
:1051C000F10090E89093F10083E08093F100109259
:1051D000F1001092F1001092F1001092F1000D30E8
:1051E00040F09093F1001092F1001092F1001092B3
:1051F000F1008091E8008F778093E8008091A90CFE
:105200009091AA0CA091AB0CB091AC0C4097A10965
:10521000B1092AC06BE1812F6FDF112399F00830AB
:1052200061F58091E8008F778093E8008091A90C68
:105230009091AA0CA091AB0CB091AC0C0897A1096D
:10524000B10912C00430C9F48091E8008F778093CF
:10525000E8008091A90C9091AA0CA091AB0CB091A0
:10526000AC0C0497A109B1098093A90C9093AA0CE6
:10527000A093AB0CB093AC0C66C071E07093F100DE
:105280006AE06093F10090E89093F10083E08093EE
:10529000F1001092F1001092F1001092F1001092C2
:1052A000F1002091A90C3091AA0C4091AB0C5091C7
:1052B000AC0C0D3060F19093F1001092F10010925F
:1052C000F1001092F1008CE18093F1006093F10005
:1052D0001092F10085E08093F1001092F10010929D
:1052E000F1001092F1001092F1001092F100109272
:1052F000F1001092F1007093F1008091E8008F7737
:105300008093E8002C5130404040504009C08091CB
:10531000E8008F778093E800201B3109410951098B
:105320002093A90C3093AA0C4093AB0C5093AC0C77
:105330000AC081E08093BD0C85E08093BE0C84E2BE
:105340008093BF0C06C01092BD0C1092BE0C109240
:10535000BF0C1092C00C81E01F910F910895DF9354
:10536000CF9300D000D000D0CDB7DEB7FE0133968A
:105370008091AF0C83838091B00C82838091B10CBB
:1053800081838091B20C8B838091B40C8A8380914D
:10539000B50C89838091A90C9091AA0CA091AB0CBB
:1053A000B091AC0C0097A105B105C1F489819A8137
:1053B000892B39F41092BD0C1092BE0C1092BF0CC8
:1053C00009C081E08093BD0C85E08093BE0C84E22F
:1053D0008093BF0C1092C00C81E07FC08091C10C03
:1053E0000E94EB07813039F48093BD0C87E08093F5
:1053F000BE0C87E2EDCF2091A90C3091AA0C409110
:10540000AB0C5091AC0C79E05695479537952795A4
:105410007A95D1F78B819C81AD81BE81AC01BD01B4
:105420008091C10C0E94B90782309105C9F1833087
:105430009105F1F1892B09F045C029813A8140E0BD
:1054400050E08091A90C9091AA0CA091AB0CB09166
:10545000AC0C69E0B695A795979587956A95D1F7B5
:10546000281739074A075B0739F41092BD0C1092D0
:10547000BE0C1092BF0C09C081E08093BD0C85E08A
:105480008093BE0C84E28093BF0C1092C00C1092EB
:10549000A90C1092AA0C1092AB0C1092AC0C9CCFE1
:1054A00081E08093BD0C82E08093BE0C8AE307C04C
:1054B00081E08093BD0C86E08093BE0C88E28093EF
:1054C000BF0C08C081E08093BD0C84E08093BE0CCB
:1054D0001092BF0C1092C00C80E026960FB6F89484
:1054E000DEBF0FBECDBFCF91DF910895DF93CF9385
:1054F00000D000D000D0CDB7DEB7FE01339680914A
:10550000AF0C83838091B00C82838091B10C818336
:105510008091B20C8B838091B40C8A838091B50CFE
:1055200089838091C20C882341F481E08093BD0C73
:1055300085E08093BE0C84E280C08091A90C90919C
:10554000AA0CA091AB0CB091AC0C0097A105B105D1
:10555000B9F489819A81892B39F41092BD0C10928B
:10556000BE0C1092BF0C09C081E08093BD0C85E099
:105570008093BE0C84E28093BF0C1092C00C4CC090
:10558000F9E0B695A79597958795FA95D1F74B8150
:105590005C816D817E819C018091C10C0E94D2074B
:1055A00082309105D9F18330910509F43FC0892BF0
:1055B00009F046C029813A8140E050E08091A90C71
:1055C0009091AA0CA091AB0CB091AC0CE9E0B6950F
:1055D000A79597958795EA95D1F7281739074A0730
:1055E0005B0739F41092BD0C1092BE0C1092BF0CE8
:1055F00009C081E08093BD0C85E08093BE0C84E2FD
:105600008093BF0C1092C00C1092A90C1092AA0C9F
:105610001092AB0C1092AC0C81E01DC081E0809325
:10562000BD0C82E08093BE0C8AE307C081E08093CA
:10563000BD0C86E08093BE0C88E28093BF0C08C04E
:1056400081E08093BD0C84E08093BE0C1092BF0C6F
:105650001092C00C80E026960FB6F894DEBF0FBE05
:10566000CDBFCF91DF9108950F931F93DF93CF9319
:1056700000D000D0CDB7DEB78E010F5F1F4FB8014D
:105680008091C10C0E94F70782309105C9F18330E7
:105690009105F1F1892B09F045C0F80183818093D0
:1056A000F10082818093F10081818093F1008081FB
:1056B0008093F1001092F1001092F10082E080934B
:1056C000F1001092F1008091E8008F778093E8005C
:1056D0008091A90C9091AA0CA091AB0CB091AC0C4C
:1056E0000897A109B1098093A90C9093AA0CA093E3
:1056F000AB0CB093AC0C1092BD0C1092BE0C18C049
:1057000081E08093BD0C82E08093BE0C8AE307C0E9
:1057100081E08093BD0C86E08093BE0C88E280938C
:10572000BF0C08C081E08093BD0C84E08093BE0C68
:105730001092BF0C1092C00C81E00F900F900F9050
:105740000F90CF91DF911F910F9108958091C10C1F
:105750000E940D088230910551F08330910579F057
:10576000892BB9F41092BD0C1092BE0C18C081E0C8
:105770008093BD0C82E08093BE0C8AE307C081E079
:105780008093BD0C86E08093BE0C88E28093BF0CB2
:1057900008C081E08093BD0C84E08093BE0C109221
:1057A000BF0C1092C00C81E008958091AD0C8A323C
:1057B00021F45F9AD4DD5F980895883221F45D9AD0
:1057C00095DE5D9808958A31C9F08B3138F48330C5
:1057D00089F0823181F0882379F01EC0853269F02A
:1057E000863218F48E31C1F40BC08F3249F08A35FD
:1057F00099F410C0C6CB25CCA9CF36CF80E00BC022
:105800001092BD0C1092BE0C1092BF0C1092C00CE6
:1058100081E0089581E092CC81E08093BD0C85E029
:105820008093BE0C80E28093BF0C1092C00C80E08D
:1058300008951F9381E08093E90011E00AC010925F
:10584000E9008091E80083FF02C00E9404201093C9
:10585000E9008091EB0085FDF2CF82E08093E900C2
:1058600012E00AC01092E9008091E80083FF02C0B4
:105870000E9404201093E9008091EB0085FDF2CF97
:1058800081E08093E90004C08091EB0080FF38C084
:105890008091E80085FFF8CF85E58093F10093E5DE
:1058A0009093F10082E48093F1009093F100809155
:1058B00034018093F100809135018093F100809153
:1058C00036018093F100809137018093F10080913F
:1058D000A90C8093F1008091AA0C8093F100809133
:1058E000AB0C8093F1008091AC0C8093F10080911F
:1058F000BD0C8093F1008091E8008F778093E800E1
:105900001F91089582E08093E9002091F100809139
:10591000F100833519F490E0253509F091E080918C
:10592000F100823409F091E08091F100833411F4A8
:105930009923A9F08091E8008B7F8093E800809103
:10594000E8008F778093E80091E09093E9008091E0
:10595000EB0080628093EB0090938A0C0895809115
:10596000F100809334018091F100809335018091A2
:10597000F100809336018091F1008093370180918E
:10598000F1008093A90C8091F1008093AA0C809182
:10599000F1008093AB0C8091F1008093AC0C80916E
:1059A000F100882321F081E08093C20C02C01092A4
:1059B000C20C8091F1008093C10C8091C30C8823AC
:1059C00021F40E94B7078093C10C8091F100EDEAA9
:1059D000FCE08091F10081938CE0ED3BF807C9F782
:1059E0008091E8008B7F8093E8008091E8008F77BA
:1059F0008093E8008091C20C813011F48093E9001B
:105A0000D4DE813089F08091EB0080628093EB00DE
:105A10008091C20C813011F0E2E001C0E1E0F0E0E1
:105A2000E757F34F81E0808308958091900C88239D
:105A300049F082E08093E9008091E80082FF02C093
:105A400061DFF7CE08958AB1806F8AB9E2EEF0E0A7
:105A50008081846080830C9453087894E8EDF0E0B2
:105A600080818F76808380818069808380818F7B35
:105A70008083789408958EE089BD09B400FEFDCF3F
:105A80008091D8008F7D8093D8007CD08091E000F9
:105A90008E7F8093E0008091E20081608093E2003D
:105AA0008091E20088608093E20008958091D9009F
:105AB00080FF13C080913801882379F481E08093BE
:105AC000380110922D0180912E0190912F0182605A
:105AD00090932F0180932E01CEDF8091D90080FD1D
