:020000020000FC
:0200000021C01D
:1000060088C3202863293230313021C32054532D30
:0E0016004C6162732C205CC320696E632E2047
:10002600302818393A3CFA22B9AB63CBDBA2FBEB9A
:10003600F35BD83BD9D17EC095C09FC0A9C004E070
:100046000EBF0FE50DBFDD247DD29BD202D0789482
:10005600FFCF00E00093700000E00093710000E025
:100066000093720000E00093730000E000937400B8
:1000760000E00093680000918000002315E021E075
:1000860011F41FEF222710936A00209369008091D4
:100096007F0099278FC101E0009370000FEF009356
:1000A6006A0001E00093710000E00093720004E32F
:1000B6000093730001E20093740010E0A8D27AC1A5
:1000C60002E00093700004E000936A0001E00093F0
:1000D600710000E00093720004E30093730001E2F4
:1000E6000093740012E093D265C103E000937000A0
:1000F60004E000936A0001E00093710000E00093C1
:10010600720004E30093730001E20093740014E0AC
:100116007ED250C100918000002351F400917F00EF
:1001260017E06AD20FEF0093800016E065D291CFF8
:100136000027F9CF10918000112331F010917F0034
:1001460000FD03C002FD05C008951436E9F31395BA
:1001560003C01123C9F31A9510937F00812F9927A5
:1001660029D10895809185009091860000FD39C0BF
:1001760002FD3EC003FD17C0089580918500909151
:10018600860000FD4FC002FD67C003FD0EC0089546
:10019600809185009091860000FD65C002FD6AC0D1
:1001A60003FD1DC0089510E03EC26091810070916C
:1001B60082008F939F93880F991F482F592F880F7E
:1001C600991F880F991F6817790728F00027009351
:1001D6008100009382009F918F9112E024C214E067
:1001E60022C28C3219F4913009F401C0019606C07E
:1001F600883D19F49F3F09F401C00197809385005B
:100206009093860000E00093680000E1009371007F
:1002160007E20093720000E00093730000E0009391
:100226007400C8C0883519F4923009F401C00196EB
:10023600809385009093860000E00093680000E1BB
:100246000093710007E20093720000E000937300D0
:1002560000E000937400AEC08A3019F4903009F4BF
:1002660001C00197E5CF8C3219F4913009F401C031
:100276000196C4CF853019F4903009F401C0019776
:10028600BDCF06B302600095ECEDF5E039F41AEF48
:1002960010936E0010E010936F001BC010916B005E
:1002A6000117A9F7E0916C00F0916D00319711F0FC
:1002B600002711C0E0916E00F0916F003597E43190
:1002C60010E0F10710F4E4E1F0E0E0936E00F09343
:1002D6006F0000936B00E0936C00F0936D000023B9
:1002E60009F4089507FDD7CE06FDEACE05FDFDCE3D
:1002F60004FD10CFFF27E0917000E25E099420E034
:1003060010916000133008F4209522BBE6E2FF2727
:10031600E10F249125BB0091670007FF09C00091FA
:100326006800133018F400FD16C002C001FD13C0AA
:10033600E1E6FF27E10F208100916A00011751F4E1
:100346000091690000FF04C00091670007FD02C02C
:1003560004E0202722BB1395163008F011271093CE
:1003660060000091670003950093670008958091EF
:10037600710090917200082F092B51F0019780931C
:1003860071009093720019F402E0009368000895DA
:100396008091730090917400082F092BC1F3019787
:1003A600809373009093740091F753CEA1E6B0E06A
:1003B6002FEF03C0A4E6B0E02227772799233AF46B
:1003C60080959095019601E002270D9302C064E6A0
:1003D60004D06AE002D07FEF61E0382E492E562E17
:1003E600662495D00027ECE2FF27E10D0491112049
:1003F60011F07FEF03C0772309F400E002270D9385
:10040600619D8019910908958091830090918400DF
:10041600089730F58F939F93809181009091820089
:1004260001968F939F9312E0F8D0682F792F9F91B2
:100436008F91660F771F462F572F660F771F640F12
:10044600751F8617970710F08827992780938100D4
:10045600909382009F918F9169E07DE3860F971FAD
:100466008093830090938400089510E0D6D0609125
:100476007D0070917E00EE24FF24E61AF70A8E0DA9
:100486009F1D12F4882799279F938F9312E0C5D05A
:10049600880F991F582E692E880F991F580E691EAE
:1004A600309081004090820032D0602C572C7F9093
:1004B6008F908F927F921BD08F919F91380E491EFD
:1004C6004F923F9214E0A9D0492E382E0AE0502EC2
:1004D60066241DD0612C502C7F908F9008D004E6A6
:1004E600021500270305022D08F404E60895689C0A
:1004F600412C302C579C212C679C200C311C00244D
:10050600401C589C200C311C0024401C08952224B9
:100516001124002477247394112700278894331C10
:10052600441C111F001F18F01515060520F015199B
:100536000609089401C08894771C001C111C221C13
:1005460070F7089503E003BD07E0086005BD0DE7F9
:1005560007BD00E006BD02E000680FBD08E10560CA
:100566000EBD00270BBD0ABD00EC076007B90FEEF4
:1005760006B904E809BF02E007BB0FEF01BB04BBE5
:10058600089500270093600000937500009376009D
:1005960000937700009378000093790000937A0027
:1005A600009381000093820009E0009383000DE32D
:1005B600009384000FEF00936B0000937B00009381
:1005C6007C000EEF009361000093620000936300CD
:1005D60000E000936400009365000093660016E057
:1005E60007D00093800017E003D000937F000895A2
:1005F60008D0E09A0DB3089504D00DBBE29AE19AB3
:100606000895E199FECF1EBB88248FBA089505D0C0
:1006160080938500909386000895EADF802F1395D6
:10062600E7DF902F08958091850090918600082F2E
:10063600E3DF1395092FE0DF0CCD802E772401E050
:10064600602E00E4502E53DF3BBC2ABC0895409038
:100656007A00469440907900479430907800379419
:1006660060907600669450907500579450DF009223
:100676007B0010927C00E2E2F7E0E00DF11DE00D58
:10068600F11D8591949180937D0090937E008EDE7E
:10069600002700937500009376000093770000937F
:1006A60078000093790000937A000091800000237F
:1006B60019F4DBDE00937F0000917000002321F423
:1006C60080917F00992776DE00917F00B6DF18952E
:1006D60000907700109078002090790030907A0092
:1006E600002784B195B1080E191E201E301E0092F7
:1006F6007700109278002092790030927A008091EB
:10070600750090917600019680937500909376001F
:1007160018952DDEB6DDF3DD77DE1895D8FFD8FF08
:10072600D8FFD8FFD8FFD8FFD8FFD8FFD8FFD8FF0B
:10073600D8FFD8FFD8FFD8FFD8FFD8FFD8FFD8FFFB
:10074600D8FFD8FFD8FFD8FFD8FFD8FFD8FFD8FFEB
:10075600D8FFD8FFD8FFD8FFD8FFD8FFD8FFD8FFDB
:10076600D8FFD8FFD8FFD8FFD8FFD8FFD8FFD8FFCB
:10077600D8FFD8FFD8FFD8FFD8FFD8FFD8FFD8FFBB
:10078600D8FFD8FFD8FFD8FFD8FFD8FFD8FFD8FFAB
:10079600D8FFD8FFD8FFD8FFD8FFD8FFD8FFD8FF9B
:1007A600D8FFD8FFD8FFD8FFD8FFD8FFD8FFD8FF8B
:1007B600D8FFD8FFD8FFD8FFD8FFD8FFD8FFD8FF7B
:1007C600D8FFD8FFD8FFD8FFD8FFD8FFD8FFD8FF6B
:1007D600D8FFD8FFD8FFD8FFD8FFD8FFD8FFD8FF5B
:1007E600D8FFD8FFD8FFD8FFD8FFD8FFD8FFD8FF4B
:1007F600D8FFD8FFD8FFD8FFD8FFD8FFD8FFD8FF3B
:10080600D8FFD8FFD8FFD8FFD8FFD8FFD8FFD8FF2A
:10081600D8FFD8FFD8FFD8FFD8FFD8FFD8FFD8FF1A
:10082600D8FFD8FFD8FFD8FFD8FFD8FFD9FFDAFF07
:10083600DBFFDCFFDDFFDDFFDEFFDFFFE0FFE1FFCB
:10084600E2FFE2FFE3FFE4FFE5FFE6FFE7FFE7FF86
:10085600E8FFE9FFEAFFEBFFECFFECFFEDFFEEFF41
:10086600EEFFEFFFF0FFF1FFF1FFF2FFF3FFF3FF03
:10087600F4FFF5FFF6FFF6FFF7FFF8FFF8FFF9FFC5
:10088600FAFFFBFFFBFFFCFFFDFFFDFFFEFFFFFF87
:100896000000000001000200020003000400040042
:1008A60005000600060007000800080009000A0007
:1008B6000A000B000B000C000D000D000E000F00CF
:1008C6000F00100010001100120012001300140097
:1008D600140015001500160017001700180019005F
:1008E60019001A001A001B001B001C001C001D002A
:1008F6001E001E001F001F002000200021002200F5
:1009060022002300230024002500250026002600BF
:10091600270028002800290029002A002A002B0089
:100926002B002C002D002D002E002E002F002F0056
:100936003000300031003200320033003300340022
:1009460034003500350036003600370037003800F1
:100956003800390039003A003A003B003C003C00C0
:100966003D003D003E003E003F003F00400040008D
:10097600410041004200420043004300440044005D
:10098600450045004600460046004700470048002F
:100996004800490049004A004A004B004B004C0001
:1009A6004C004D004D004E004E004F004F005000D1
:1009B60050005000510051005200520053005300A5
:1009C6005400540055005500560056005700570075
:1009D60058005800590059005A005A005A005B0046
:1009E6005B005C005C005D005D005E005E005F0019
:1009F6005F005F00600060006100610062006200ED
:100A060063006300640064006400650065006600BE
:100A16006600670067006700680068006900690093
:100A26006A006A006A006B006B006C006C006D0067
:100A36006D006E006E006E006F006F00700070003B
:100A46007000710071007200720073007300730011
:100A560074007400750075007500760076007700E6
:100A66007700780078007800790079007A007A00BB
:100A76007A007B007B007C007C007C007D007D0092
:100A86007E007E007E007F007F0080008000800068
:100A9600810081008200820082008300830084003E
:100AA6008400840085008500860086008600870015
:100AB6008700880088008800890089008A008A00EB
:100AC6008A008B008B008C008C008C008D008D00C2
:100AD6008D008E008E008F008F008F00900090009A
:100AE6009100910091009200920092009300930071
:100AF6009400940094009500950096009600960048
:100B06009700970097009800980098009900990020
:100B16009A009A009A009B009B009B009C009C00F8
:100B26009D009D009D009E009E009E009F009F00D0
:100B3600A000A000A000A100A100A100A200A200A8
:100B4600A200A300A300A400A400A400A500A50081
:100B5600A500A600A600A700A700A700A800A80059
:100B6600A800A900A900AA00AA00AA00AB00AB0031
:100B7600AB00AC00AC00AC00AD00AD00AD00AE000B
:100B8600AE00AE00AF00AF00AF00B000B000B000E6
:100B9600B100B100B100B200B200B200B300B300C0
:100BA600B400B400B400B500B500B500B600B60098
:100BB600B600B700B700B700B800B800B800B90073
:100BC600B900B900BA00BA00BA00BB00BB00BB004E
:100BD600BC00BC00BC00BD00BD00BE00BE00BE0027
:100BE600BF00BF00BF00C000C000C000C100C10000
:100BF600C100C200C200C200C300C300C300C400DB
:100C0600C400C400C500C500C500C600C600C600B5
:100C1600C700C700C700C800C800C800C900C9008F
:100C2600C900CA00CA00CA00CB00CB00CB00CC006A
:100C3600CC00CC00CD00CD00CD00CE00CE00CE0045
:100C4600CF00CF00CF00D000D000D000D100D1001F
:100C5600D100D200D200D200D200D300D300D300FC
:100C6600D400D400D400D500D500D500D600D600D7
:100C7600D600D700D700D700D700D800D800D800B4
:100C8600D900D900D900DA00DA00DA00DB00DB008F
:100C9600DB00DC00DC00DC00DC00DD00DD00DD006C
:100CA600DE00DE00DE00DF00DF00DF00E000E00047
:100CB600E000E100E100E100E100E200E200E20024
:100CC600E300E300E300E400E400E400E500E500FF
:100CD600E500E600E600E600E600E700E700E700DC
:100CE600E800E800E800E900E900E900E900EA00B8
:100CF600EA00EA00EB00EB00EB00EC00EC00EC0095
:100D0600EC00ED00ED00ED00EE00EE00EE00EF0071
:100D1600EF00EF00F000F000F000F000F100F1004D
:100D2600F100F200F200F200F200F300F300F3002B
:100D3600F400F400F400F500F500F500F500F60007
:100D4600F600F600F700F700F700F700F800F800E5
:100D5600F800F900F900F900FA00FA00FA00FA00C2
:100D6600FB00FB00FB00FC00FC00FC00FC00FD009F
:100D7600FD00FD00FE00FE00FE00FF00FF00FF007C
:100D8600FF00000100010001010101010101010153
:100D9600020102010201030103010301040104012E
:100DA600040104010501050105010601060106010C
:100DB60006010701070107010801080108010901E9
:100DC6000901090109010A010A010A010B010B01C6
:100DD6000B010B010C010C010C010D010D010D01A4
:100DE6000E010E010E010E010F010F010F01100180
:100DF600100110011001110111011101120112015E
:100E0600120113011301130113011401140114013A
:100E16001501150115011501160116011601170117
:100E260017011701180118011801180119011901F4
:100E360019011A011A011A011B011B011B011B01D1
:100E46001C011C011C011D011D011D011E011E01AD
:100E56001E011E011F011F011F012001200120018B
:100E66002101210121012201220122012301230165
:100E76002301240124012401250125012501260140
:100E8600260126012701270127012801280128011B
:100E96002901290129012A012A012A012B012B01F5
:100EA6002C012C012C012C012C012C012C012C01D4
:100EB6002C012C012C012C012C012C012C012C01C4
:100EC6002C012C012C012C012C012C012C012C01B4
:100ED6002C012C012C012C012C012C012C012C01A4
:100EE6002C012C012C012C012C012C012C012C0194
:100EF6002C012C012C012C012C012C012C012C0184
:100F06002C012C012C012C012C012C012C012C0173
:0C0F16002C012C012C012C012C012C01C1
:00000001FF
