:020000020000FC
:0200000040C0FE
:0200780037C08F
:1000800054C000E10EBF0FEF0DBF18D020D17894FF
:10009000E6E9F5E06CD08FD193D1002D90D0012D01
:1000A0008ED0022D8CD0032D8AD0042D88D05DD027
:1000B0005CD050E040E030E058D2FFCF00E0009349
:1000C000980009E00093990008ED00939A0006E07B
:1000D00000939D0000270093000200930203009309
:1000E00001020093030308950F930FB70F9300913C
:1000F00003030395B1F000930303AF93BF93A2E012
:10010000B2E0009102030395009302030A95A00F49
:100110000027B01F00919C000C9300939C00BF919E
:10012000AF910F910FBF0F9118950F930FB70F93CA
:10013000009101020023A9F00A9500930102AF93F8
:10014000BF93A0E0B1E0009100020395009300028C
:100150000A95A00F0027B01F0C9100939C00BF913F
:10016000AF910F910FBF0F911895E2E9F5E005915E
:10017000002311F003D0FBCF089500E2109101029B
:100180001395E1F3F89410910102112321F40090EA
:100190009B0005FC11C0139510930102A091000271
:1001A0001A0F1A95A0E0B1E0A10F1127B11F0C930F
:1001B000109101021A9511F400939C00189501D03A
:1001C000DCCF0F93007F029502D00F910F700A30A1
:1001D00008F0095F005DD2CF052FF3DF042FF1DFB8
:1001E000032FEDCF6F937F93E4E4F3E071E22E2FC2
:1001F000245413E00F2F010BE4DF022FE0DF60E156
:100200000191DFDF6A95E1F70DE0B8DF0AE0B6DFC4
:100210007A9569F77F916F9108950AE0AFDF66E103
:100220000BE1ACDF0BE5AADF01E4A8DF6A95C1F7BB
:100230000895C09AB89ABA9AB99A00E50DB901E042
:100240000EB90895C0980FB9779BFECF0FB10895EE
:10025000C09A08950F2FF7DF0E2FF5DF0D2FF3CF84
:100260000FE9F0DFF0DF002EEEDF102EECDF202EA6
:10027000EADF302EEDCF06E0E5DFEACF05E0E2DF92
:10028000E2DF002EE0DF102EE3CFF5DF01E0DADF62
:10029000012FD9DFDDCFEFDF01E3D4DF012FD3DF83
:1002A000D7CF03E0CFDFD6DFCEDFD2CFE4DF02E06F
:1002B000C9DFD0DF05E5C7DF0AEAC5DF08E7C3DF2E
:1002C0000EE4C1DFC5DFDADF00FCFDCF089503E3F4
:1002D00002BB02EF01BB0895809BFECF08950FEF94
:1002E0000ABB979A1BBB9598959A00270ABB0BBB34
:1002F000979808950FEF0ABB969A3BBB9598959AED
:100300004BBB9598959A969800270ABB0BBB08950E
:100310000FEF0ABB969A3BBB9598959A4BBB959865
:10032000959A5BBB9598959A969800270ABB0BBB4C
:1003300008950FEF0ABB969A00270BBB9598959AE4
:100340000BBB9598959A3BBB9598959A4BBB959806
:10035000959A969800270ABB0BBB08950FEF0ABB2E
:10036000969A00270BBB9598959A0BBB9598959AF2
:100370003BBB9598959A4BBB9598959A5BBB959886
:10038000959A969800270ABB0BBB08950FEF0ABBFE
:10039000969A00270BBB9598959A3BBB9598959A92
:1003A0004BBB9598959A5BBB9598959A9698002724
:1003B0000ABB0BBB089591981FEF91DF919A8CCFE8
:1003C000919810E98CDF0FEF0ABB969A11271BBB9F
:1003D0009598959A969800270ABB0BBB94980000B5
:1003E000000009B2949A94980000000019B2949AFF
:1003F00094980000000029B2949A9498000000009C
:1004000039B2949A94980000000049B2949A919A53
:100410000895919810E763DF94980000000009B3F5
:10042000949A919A0895919810E059DF97DF10E31C
:1004300056DF52DFA4E4B3E080E192E0949800003C
:10044000000009B3949A0D930197C1F7919A08950A
:10045000919810E044DF9ADF3FDFA4E4B3E080E14D
:1004600092E094980000000009B3949A0D930197CC
:10047000C1F7919A0895919810E831DF6FDFA4E4F5
:10048000B3E080E192E00FEF0ABB0D910BBB9598B2
:10049000959A0197D1F710E122DF06C0919810E6F6
:1004A0001EDF36DF10ED1BDF17DFB3CFE4EDF5E025
:1004B0005EDE92DEE4EEF5E05ADEF0DF82DE55DE4F
:1004C00070E20CD021D039D001E0300F0027401F5E
:1004D000501F7A95B1F7523048F30895A4DFA4E491
:1004E000B3E080E192E00D91039519F40197D9F7FB
:1004F0000AC0ECEDF5E03BDE6FDEECEEF5E037DE5A
:10050000ECE0F6E034DE0895A4E4B3E080E192E0AC
:1005100066276D9363950197E1F7ADDF00FF0895BE
:100520000F93ECEDF5E023DE57DEE2EFF5E01FDEA2
:100530000F9147DE1ADE77DF089575DFA4E4B3E09C
:1005400080E192E066270D91061721F463950297EA
:10055000D1F70AC0ECEDF5E00ADE3EDEEAEFF5E0A9
:1005600006DEECE0F6E003DE089572DFECEDF5E088
:10057000FEDD052F26DE042F24DE032F20DEF5DD31
:1005800031DE01E0300F0027401F501F523068F36A
:1005900008950D0A00000C415652205465726D6991
:1005A0006E616C2C20762E303031200D0A286329A4
:1005B000323031302054532D4C61627320696E63A8
:1005C0002E0D0A0D0A00436F6D6D616E64733A2043
:1005D0000D0A0000426C6F636B3A20005061676542
:1005E0003A20000045726173653A200046463A2081
:1005F000000057726974653A2000526561643A20C0
:100600000000506173736564200D0A004572726FBB
:0606100072200D0A00003B
:00000001FF
