:10000000ACC00000D3C00000D1C00000CFC00000D1
:10001000CDC00000CBC00000C9C00000C7C00000B8
:10002000C5C00000C3C000000C942022BFC0000067
:10003000BDC00000BBC00000B9C00000B7C00000D8
:10004000B5C00000B3C00000B1C00000AFC00000E8
:10005000ADC00000ABC00000A9C00000A7C00000F8
:10006000A5C00000A3C00000A1C000009FC0000008
:100070009DC000009BC0000099C0000097C0000018
:1000800095C0000093C0000091C000008FC0000028
:100090008DC000008BC0000041544D454C202020F5
:1000A00041543930555342313238204D20532020AD
:1000B000302E3030008003021F00000012010002C9
:1000C00000000040EB03322000100102030109028E
:1000D00020000101008032090400000208065000DF
:1000E00007058102400000070502024000000C03E2
:1000F000410054004D0045004C00400341005600B3
:100100005200200055005300420020004D005500D1
:100110004C005400490020004D00410053005300A2
:100120002000530054004F0052004100470045009A
:100130002000440045004D004F001C0330003000FB
:10014000300030003000300030003000300030002F
:100150003000300030000403090411241FBECFEF2B
:10016000D0E2DEBFCDBF80E090E020E80FB6F8948B
:1001700020936100809361000FBE81E011E0A0E058
:10018000B1E0E8E5FEE500E00BBF02C007900D928C
:10019000AC30B107D9F71CE0ACE0B1E001C01D9272
:1001A000AE3CB107E1F784D10C942A2F29CF0F93ED
:1001B0001F93CF93DF938C01EB01009731F461150E
:1001C000710519F420E030E037C081E090E06EE086
:1001D00070E038D0FC019C01009771F180E88383C6
:1001E000209771F0D387C28781E883838091C40C04
:1001F0009091C50C892B21F4F093C50CE093C40CAD
:1002000001151105C9F011870087838182608383FE
:100210008091C60C9091C70C892B71F4F093C70C98
:10022000E093C60C8091C80C9091C90C892B21F4E5
:10023000F093C90CE093C80CC901DF91CF911F91D5
:100240000F9108950F931F93CF93DF93689F8001C1
:10025000699F100D789F100D1124C8010DD0EC017D
:10026000009721F060E070E0A8010BD1CE01DF9192
:10027000CF911F910F910895CF93DF93BC018230EE
:10028000910510F462E070E0A091CC0CB091CD0C1F
:10029000ED01E0E0F0E040E050E021C0888199818C
:1002A0008617970769F48A819B81309719F09383A9
:1002B000828304C09093CD0C8093CC0CFE0134C09B
:1002C0006817790738F44115510519F08417950717
:1002D00008F4AC01FE018A819B819C01E901209711
:1002E000E9F641155105A9F1CA01861B970B049740
:1002F00008F4BA01E0E0F0E02AC08D919C911197DA
:1003000084179507F9F46417750781F412968D9197
:100310009C911397309719F09383828304C0909334
:10032000CD0C8093CC0CFD0132964FC0CA01861BC8
:10033000970BFD01E80FF91F6193719302978D935D
:100340009C9343C0FD01828193819C01D901109748
:10035000A1F68091CA0C9091CB0C892B41F480912D
:100360000801909109019093CB0C8093CA0C4091A5
:100370000A0150910B014115510541F44DB75EB78B
:100380008091060190910701481B590B2091CA0CDE
:100390003091CB0C24173507B0F4CA01821B930BA4
:1003A0008617970780F0AB014E5F5F4F8417950764
:1003B00050F0420F531F5093CB0C4093CA0CF901DD
:1003C0006193719302C0E0E0F0E0CF01DF91CF9143
:1003D0000895CF93DF93009709F450C0EC01229762
:1003E0001B821A82A091CC0CB091CD0C109709F110
:1003F00040E050E0AC17BD0708F1BB83AA83FE01C3
:1004000021913191E20FF31FAE17BF0779F48D915F
:100410009C911197280F391F2E5F3F4F39832883F6
:1004200012968D919C9113979B838A834115510558
:1004300071F4D093CD0CC093CC0C20C012968D914A
:100440009C911397AD01009711F0DC01D3CFFA0115
:10045000D383C28321913191E20FF31FCE17DF07BF
:1004600069F488819981280F391F2E5F3F4FFA0167
:10047000318320838A819B8193838283DF91CF9113
:100480000895DC0101C06D9341505040E0F708959C
:100490008FB7F89497EF94BF98E10FB6F8949093C4
:1004A0006000109260000FBE87FF01C0789408952D
:1004B000EFDF80E090E020E80FB6F8942093610031
:1004C000809361000FBE0E94E62E8BEF9EE264E0F7
:1004D0007FE26DDE8AB1806F8AB984B18F7184B991
:1004E00085B1806E85B98DB18F7C8DB98EB18063F9
:1004F0008EB96A98729A8AB1806A8AB98BB18F75FF
:100500008BB9239884B1876084B985B1896085B936
:1005100087B18F7387B987B18F6387B988B18C67CB
:1005200088B988B18C7F88B984B18E6F84B9289AD4
:100530008DB183608DB98EB18C7F8EB912B881B1C7
:100540008FEF81B981E00E945C10813049F40E94F4
:1005500005230E94BD1F0E94B02780E090E008950F
:10056000FFCF239884B1876184B985B18F6185B944
:100570008CB580618CBD8CB5837F8CBD8CB58C6057
:100580008CBD84B1866084B98CB58C7F8CBD8CB5F4
:100590008CBD8DB581608DBD8CB580648CBD109295
:1005A0001001109211010895109211012C9A2C98AB
:1005B00087ED8EBD0DB407FEFDCF1EBC0DB407FE4A
:1005C000FDCF8EB58C73843329F0109211012C9AD3
:1005D00080E008952C9A81E080931101089549E00C
:1005E000660F771F881F991F4A95D1F760930C01FA
:1005F00070930D0180930E0190930F0110921101E1
:100600008091100180FF18C08E7F809310012C9A7A
:100610002C9887ED8EBD0DB407FEFDCF1EBC0DB42A
:1006200007FEFDCF04C01EBC0DB407FEFDCF0EB407
:1006300007FEF9CF2C9A8EB52C9A2C9882ED8EBDA0
:100640000DB407FEFDCF20910D0180910E01880FA2
:10065000922F991F9927991F892B8EBD0DB407FEE4
:10066000FDCF822F90E08E7F880F991F2170282B5D
:100670002EBD0DB407FEFDCF80910C018EBD0DB4D3
:1006800007FEFDCF8FEF8EBD0DB407FEFDCF8FEFC0
:100690008EBD0DB407FEFDCF8FEF8EBD0DB407FEEE
:1006A000FDCF8FEF8EBD0DB407FEFDCF8EB581E07F
:1006B00008952C9A0895CF93DF93EC0198E0F89475
:1006C0001EBC0DB407FEFDCF8EB58093F1001EBC9D
:1006D0000DB407FEFDCF8EB58093F1001EBC0DB4A6
:1006E00007FEFDCF8EB58093F1001EBC0DB407FE52
:1006F000FDCF8EB58093F1001EBC0DB407FEFDCF7B
:100700008EB58093F1001EBC0DB407FEFDCF8EB5F3
:100710008093F1001EBC0DB407FEFDCF8EB5809313
:10072000F1001EBC0DB407FEFDCF8EB58093F10025
:100730001EBC0DB407FEFDCF8EB58093F1001EBC2C
:100740000DB407FEFDCF8EB58093F1001EBC0DB435
:1007500007FEFDCF8EB58093F1001EBC0DB407FEE1
:10076000FDCF8EB58093F1001EBC0DB407FEFDCF0A
:100770008EB58093F1001EBC0DB407FEFDCF8EB583
:100780008093F1001EBC0DB407FEFDCF8EB58093A3
:10079000F1001EBC0DB407FEFDCF8EB58093F100B5
:1007A0001EBC0DB407FEFDCF8EB58093F1001EBCBC
:1007B0000DB407FEFDCF8EB58093F1001EBC0DB4C5
:1007C00007FEFDCF8EB58093F1001EBC0DB407FE71
:1007D000FDCF8EB58093F1001EBC0DB407FEFDCF9A
:1007E0008EB58093F1001EBC0DB407FEFDCF8EB513
:1007F0008093F1001EBC0DB407FEFDCF8EB5809333
:10080000F1001EBC0DB407FEFDCF8EB58093F10044
:100810001EBC0DB407FEFDCF8EB58093F1001EBC4B
:100820000DB407FEFDCF8EB58093F1001EBC0DB454
:1008300007FEFDCF8EB58093F1001EBC0DB407FE00
:10084000FDCF8EB58093F1001EBC0DB407FEFDCF29
:100850008EB58093F1001EBC0DB407FEFDCF8EB5A2
:100860008093F1001EBC0DB407FEFDCF8EB58093C2
:10087000F1001EBC0DB407FEFDCF8EB58093F100D4
:100880001EBC0DB407FEFDCF8EB58093F1001EBCDB
:100890000DB407FEFDCF8EB58093F1001EBC0DB4E4
:1008A00007FEFDCF8EB58093F1001EBC0DB407FE90
:1008B000FDCF8EB58093F1001EBC0DB407FEFDCFB9
:1008C0008EB58093F1001EBC0DB407FEFDCF8EB532
:1008D0008093F1001EBC0DB407FEFDCF8EB5809352
:1008E000F1001EBC0DB407FEFDCF8EB58093F10064
:1008F0001EBC0DB407FEFDCF8EB58093F1001EBC6B
:100900000DB407FEFDCF8EB58093F1001EBC0DB473
:1009100007FEFDCF8EB58093F1001EBC0DB407FE1F
:10092000FDCF8EB58093F1001EBC0DB407FEFDCF48
:100930008EB58093F1001EBC0DB407FEFDCF8EB5C1
:100940008093F1001EBC0DB407FEFDCF8EB58093E1
:10095000F1001EBC0DB407FEFDCF8EB58093F100F3
:100960001EBC0DB407FEFDCF8EB58093F1001EBCFA
:100970000DB407FEFDCF8EB58093F1001EBC0DB403
:1009800007FEFDCF8EB58093F1001EBC0DB407FEAF
:10099000FDCF8EB58093F1001EBC0DB407FEFDCFD8
:1009A0008EB58093F1001EBC0DB407FEFDCF8EB551
:1009B0008093F1001EBC0DB407FEFDCF8EB5809371
:1009C000F1001EBC0DB407FEFDCF8EB58093F10083
:1009D0001EBC0DB407FEFDCF8EB58093F1001EBC8A
:1009E0000DB407FEFDCF8EB58093F1001EBC0DB493
:1009F00007FEFDCF8EB58093F1001EBC0DB407FE3F
:100A0000FDCF8EB58093F1001EBC0DB407FEFDCF67
:100A10008EB58093F1001EBC0DB407FEFDCF8EB5E0
:100A20008093F1001EBC0DB407FEFDCF8EB5809300
:100A3000F1001EBC0DB407FEFDCF8EB58093F10012
:100A40008091E8008F778093E800789404C08091CB
:100A5000EB0080FF29C08091E80085FFF8CF91501E
:100A600009F02DCE60910C0170910D0180910E0165
:100A700090910F0160507E4F8F4F9F4F60930C01FC
:100A800070930D0180930E0190930F0121972C9A82
:100A900011F481E00AC059E096958795779567959E
:100AA0005A95D1F79CDD0ACE80E0DF91CF91089571
:100AB000E9E0660F771F881F991FEA95D1F76093C9
:100AC0000C0170930D0180930E0190930F01109211
:100AD00011018091100180FF18C08E7F809310015A
:100AE0002C9A2C9887ED8EBD0DB407FEFDCF1EBC51
:100AF0000DB407FEFDCF04C01EBC0DB407FEFDCF34
:100B00000EB407FEF9CF2C9A8EB52C9A2C9882E859
:100B10008EBD0DB407FEFDCF20910D0180910E0119
:100B2000880F922F991F9927991F892B8EBD0DB47D
:100B300007FEFDCF822F90E08E7F880F991F2170D6
:100B4000282B2EBD0DB407FEFDCF80910C018EBD6C
:100B50000DB407FEFDCF8EB581E0089517C01EBC11
:100B60000DB407FEFDCF80910C0190910D01A09175
:100B70000E01B0910F010196A11DB11D80930C01D2
:100B800090930D01A0930E01B0930F0180910C0181
:100B9000882329F780910D0180FDE1CF8EB52C9A35
:100BA00081E090E00090110102C0880F991F0A9423
:100BB000E2F720911001282B2093100108950F9344
:100BC0001F93CF93DF93EC0101E010E098E004C0A5
:100BD0008091EB0080FFC6C18091E80085FFF8CFCF
:100BE000F8948091F1008EBD0DB407FEFDCF809189
:100BF000F1008EBD0DB407FEFDCF8091F1008EBDDA
:100C00000DB407FEFDCF8091F1008EBD0DB407FE3F
:100C1000FDCF8091F1008EBD0DB407FEFDCF809118
:100C2000F1008EBD0DB407FEFDCF8091F1008EBDA9
:100C30000DB407FEFDCF8091F1008EBD0DB407FE0F
:100C4000FDCF8091F1008EBD0DB407FEFDCF8091E8
:100C5000F1008EBD0DB407FEFDCF8091F1008EBD79
:100C60000DB407FEFDCF8091F1008EBD0DB407FEDF
:100C7000FDCF8091F1008EBD0DB407FEFDCF8091B8
:100C8000F1008EBD0DB407FEFDCF8091F1008EBD49
:100C90000DB407FEFDCF8091F1008EBD0DB407FEAF
:100CA000FDCF8091F1008EBD0DB407FEFDCF809188
:100CB000F1008EBD0DB407FEFDCF8091F1008EBD19
:100CC0000DB407FEFDCF8091F1008EBD0DB407FE7F
:100CD000FDCF8091F1008EBD0DB407FEFDCF809158
:100CE000F1008EBD0DB407FEFDCF8091F1008EBDE9
:100CF0000DB407FEFDCF8091F1008EBD0DB407FE4F
:100D0000FDCF8091F1008EBD0DB407FEFDCF809127
:100D1000F1008EBD0DB407FEFDCF8091F1008EBDB8
:100D20000DB407FEFDCF8091F1008EBD0DB407FE1E
:100D3000FDCF8091F1008EBD0DB407FEFDCF8091F7
:100D4000F1008EBD0DB407FEFDCF8091F1008EBD88
:100D50000DB407FEFDCF8091F1008EBD0DB407FEEE
:100D6000FDCF8091F1008EBD0DB407FEFDCF8091C7
:100D7000F1008EBD0DB407FEFDCF8091F1008EBD58
:100D80000DB407FEFDCF8091F1008EBD0DB407FEBE
:100D9000FDCF8091F1008EBD0DB407FEFDCF809197
:100DA000F1008EBD0DB407FEFDCF8091F1008EBD28
:100DB0000DB407FEFDCF8091F1008EBD0DB407FE8E
:100DC000FDCF8091F1008EBD0DB407FEFDCF809167
:100DD000F1008EBD0DB407FEFDCF8091F1008EBDF8
:100DE0000DB407FEFDCF8091F1008EBD0DB407FE5E
:100DF000FDCF8091F1008EBD0DB407FEFDCF809137
:100E0000F1008EBD0DB407FEFDCF8091F1008EBDC7
:100E10000DB407FEFDCF8091F1008EBD0DB407FE2D
:100E2000FDCF8091F1008EBD0DB407FEFDCF809106
:100E3000F1008EBD0DB407FEFDCF8091F1008EBD97
:100E40000DB407FEFDCF8091F1008EBD0DB407FEFD
:100E5000FDCF8091F1008EBD0DB407FEFDCF8091D6
:100E6000F1008EBD0DB407FEFDCF8091F1008EBD67
:100E70000DB407FEFDCF8091F1008EBD0DB407FECD
:100E8000FDCF8091F1008EBD0DB407FEFDCF8091A6
:100E9000F1008EBD0DB407FEFDCF8091F1008EBD37
:100EA0000DB407FEFDCF8091F1008EBD0DB407FE9D
:100EB000FDCF8091F1008EBD0DB407FEFDCF809176
:100EC000F1008EBD0DB407FEFDCF8091F1008EBD07
:100ED0000DB407FEFDCF8091F1008EBD0DB407FE6D
:100EE000FDCF8EB58091E8008B7F8093E8008091E4
:100EF000E8008F778093E8007894915009F06CCEE9
:100F000040910C0150910D0160910E0170910F0103
:100F100040505E4F6F4F7F4F40930C0150930D0137
:100F200060930E0170930F0121972C9A9801009005
:100F3000110102C0220F331F0A94E2F780911001C1
:100F4000822B80931001209711F481E00CC0F9E00E
:100F50007695679557954795FA95D1F7CB01BA01E4
:100F6000A7DD34CE80E0DF91CF911F910F910895DE
:100F700083E0089580E00895813069F0813028F0A1
:100F8000823071F021E030E010C0CB01BA01A9013C
:100F90000E94D71D09C0CB01BA01A9018CD004C0A1
:100FA000CB01BA01A901B2D79C01C90108958130D2
:100FB00069F0813028F0823071F021E030E010C01B
:100FC000CB01BA01A9010E94E41E09C0CB01BA01FC
:100FD000A9013ED004C0CB01BA01A901BFD79C0131
:100FE000C9010895813041F0813020F0823029F02C
:100FF00081E008950C94821228C086C7813059F090
:10100000813028F0823051F021E030E00AC0CB017D
:101010000E949C1F05C0CB0142D002C0CB01C6D7A5
:101020009C01C9010895813051F0813028F082304F
:1010300041F021E030E007C00E94BD1F03C01AD07C
:1010400001C0D5D79C01C90108958091120108956E
:101050000F931F938A01C3DAC8012DDB182F29DBF8
:1010600020E030E0112311F421E030E0C9011F91AC
:101070000F9108959091120180911301981729F012
:101080009093130123E030E008C08EDA813019F02C
:1010900022E030E002C020E030E0C9010895FC0108
:1010A0008FEF9FE1A0E0B0E080839183A283B383C0
:1010B000E1CF57CA08950F931F93CF93DF938B010E
:1010C0009C01EA0180911201882341F4C901B80111
:1010D000EFDCCE0174DD882321F443DA21E030E037
:1010E00003C03CDD20E030E0C901DF91CF911F91CA
:1010F0000F9108958CB580618CBD8CB5837F8CBDBC
:101100008CB58CBD84B1866084B98CB58C7F8CBD68
:101110008CB58CBD8DB581608DBD8CB580648CBD6A
:101120000895982F8FEF8EBD0DB407FEFDCF90640C
:101130009EBD0DB407FEFDCF872F9927AA27BB2799
:101140008EBD0DB407FEFDCFCB01AA27BB278EBDF8
:101150000DB407FEFDCFBB27A72F962F852F8EBD81
:101160000DB407FEFDCF4EBD0DB407FEFDCF85E9E2
:101170008EBD0DB407FEFDCF8FEF8093580390E036
:101180002FEF06C09F5F9B3019F48093580308959A
:101190002EBD0DB407FEFDCF8EB58F3F99F3809322
:1011A000580308952898BDDF80935803289A08951E
:1011B000FF920F931F9360914E03F0914F03509154
:1011C0005003E091510340915203F0904D038FE0A2
:1011D000F822809143038823C1F4242F30E0C90111
:1011E0008C7790709595879595958795082F2370A6
:1011F0003070B3E0220F331FBA95E1F7109153031B
:10120000129516951770122B0AC0042F0F73000F3A
:1012100080915303881F8827881F080F10E070E013
:1012200063707070762F6627770F770F52955695FB
:1012300056955370650F711D2F2F30E0220F331F0D
:10124000220F331F620F731F6F5F7F4F80E090E0AC
:10125000E370EE0F441F4427441FE40FF0E0329682
:1012600021E030E002C0220F331FEA95E2F7442765
:1012700037FD4095542F0E940B2F615070408040E5
:10128000904060934403709345038093460390938A
:10129000470349E04F15D8F48091440390914503EA
:1012A000A0914603B09147032F2D30E029503040E4
:1012B00004C0880F991FAA1FBB1F2A95D2F78093DD
:1012C000440390934503A0934603B09347032091B2
:1012D000440330914503409146035091470361E038
:1012E00070E002C0660F771FFA94E2F7882777FD57
:1012F0008095982F2F5F3F4F4F4F5F4F0E940B2FCE
:1013000060933B0370933C0380933D0390933E03B3
:10131000212F30E02F5F3F4F802F90E00196AC01EE
:10132000249FC001259F900D349F900D1124909310
:10133000400380933F031F910F91FF9008952898D9
:1013400080E090E03FEF0AC0019643EC80359407BF
:1013500029F420935803289A80E008953EBD0DB4E7
:1013600007FEFDCF2EB52F3F79F720935803289A1B
:1013700081E00895CF93DF93EC01E1DF882309F446
:1013800045C0289889E040E050E060E070E0C9DEA8
:1013900080935803882319F490E02FEF0CC0289A0B
:1013A0001092140105C0993029F480935803289AAB
:1013B00080E02CC09F5F2EBD0DB407FEFDCF8EB523
:1013C0008E3F89F78093580320E030E09FEF9EBD69
:1013D0000DB407FEFDCF8EB5FE01E20FF31F808333
:1013E0002F5F3F4F2031310591F78FEF8EBD0DB448
:1013F00007FEFDCF8FEF8EBD0DB407FEFDCF8FEF43
:101400008EBD0DB407FEFDCF289A81E0DF91CF910C
:1014100008951F93CF93DF936DDE10921401109205
:101420004303C0E0D0E01FEF80E040E050E060E028
:1014300070E0B8DE809358031EBD0DB407FEFDCFEB
:101440002196C536D10509F478C0813069F787E364
:1014500040E050E060E070E0A5DE809358038FEF3D
:101460008EBD0DB407FEFDCF89E240E050E060E0A4
:1014700070E098DE982F809358038FEF8EBD0DB4E7
:1014800007FEFDCF9E7F21F481E08093430318C0C7
:1014900010924303C0E0D0E01FEF80E040E050E056
:1014A00060E070E07FDE809358031EBD0DB407FE40
:1014B000FDCF2196C536D10509F43FC0813069F7CB
:1014C000C0E0D0E01FEF81E040E050E060E070E07D
:1014D00069DE809358031EBD0DB407FEFDCF219633
:1014E00093ECC035D90749F1882369F78BE340E0D5
:1014F00050E060E070E056DE809358038FEF8EBDC1
:101500000DB407FEFDCF80E140E052E060E070E006
:1015100049DE982F809358038FEF8EBD0DB407FEE0
:10152000FDCF992351F488E493E024DF882329F048
:101530003FDE81E08093140101C080E0DF91CF9114
:101540001F9108951F93CF93DF93809114018823F7
:10155000B9F4C0E0D0E01FEF08C01EBD0DB407FE17
:10156000FDCF2196CB30D105B9F080E040E050E0CE
:1015700060E070E017DE80935803813071F70EC091
:101580008BE340E050E060E070E00CDE80935803B5
:10159000882321F01092140180E001C081E0DF91E6
:1015A000CF911F910895CEDF813011F090E00BC0F4
:1015B00080911401882309F42CDF90E080911401BC
:1015C000813009F491E0892F089529E0660F771F93
:1015D000881F991F2A95D1F7609315017093160102
:1015E0008093170190931801AACE089539E0660FF1
:1015F000771F881F991F3A95D1F760931501709353
:101600001601809317019093180199CE0895CF92F7
:10161000DF92EF92FF921F93CF93DF93EC01C09084
:101620001501D0901601E0901701F09018011FEFFE
:10163000289881E1B701A60174DD809358038823BF
:10164000B1F0C0921501D0921601E0921701F0920C
:10165000180127C0019769F4C0921501D0921601B4
:10166000E0921701F0921801209358031AC080E30A
:1016700095E71EBD0DB407FEFDCF2EB52F3F51F3EC
:10168000209358032E3F79F0C0921501D092160195
:10169000E0921701F09218018FEF8EBD0DB407FE96
:1016A000FDCF289A03C298E0F8941EBD0DB407FE42
:1016B000FDCF8EB58093F1001EBD0DB407FEFDCFAA
:1016C0008EB58093F1001EBD0DB407FEFDCF8EB523
:1016D0008093F1001EBD0DB407FEFDCF8EB5809343
:1016E000F1001EBD0DB407FEFDCF8EB58093F10055
:1016F0001EBD0DB407FEFDCF8EB58093F1001EBD5B
:101700000DB407FEFDCF8EB58093F1001EBD0DB464
:1017100007FEFDCF8EB58093F1001EBD0DB407FE10
:10172000FDCF8EB58093F1001EBD0DB407FEFDCF39
:101730008EB58093F1001EBD0DB407FEFDCF8EB5B2
:101740008093F1001EBD0DB407FEFDCF8EB58093D2
:10175000F1001EBD0DB407FEFDCF8EB58093F100E4
:101760001EBD0DB407FEFDCF8EB58093F1001EBDEA
:101770000DB407FEFDCF8EB58093F1001EBD0DB4F4
:1017800007FEFDCF8EB58093F1001EBD0DB407FEA0
:10179000FDCF8EB58093F1001EBD0DB407FEFDCFC9
:1017A0008EB58093F1001EBD0DB407FEFDCF8EB542
:1017B0008093F1001EBD0DB407FEFDCF8EB5809362
:1017C000F1001EBD0DB407FEFDCF8EB58093F10074
:1017D0001EBD0DB407FEFDCF8EB58093F1001EBD7A
:1017E0000DB407FEFDCF8EB58093F1001EBD0DB484
:1017F00007FEFDCF8EB58093F1001EBD0DB407FE30
:10180000FDCF8EB58093F1001EBD0DB407FEFDCF58
:101810008EB58093F1001EBD0DB407FEFDCF8EB5D1
:101820008093F1001EBD0DB407FEFDCF8EB58093F1
:10183000F1001EBD0DB407FEFDCF8EB58093F10003
:101840001EBD0DB407FEFDCF8EB58093F1001EBD09
:101850000DB407FEFDCF8EB58093F1001EBD0DB413
:1018600007FEFDCF8EB58093F1001EBD0DB407FEBF
:10187000FDCF8EB58093F1001EBD0DB407FEFDCFE8
:101880008EB58093F1001EBD0DB407FEFDCF8EB561
:101890008093F1001EBD0DB407FEFDCF8EB5809381
:1018A000F1001EBD0DB407FEFDCF8EB58093F10093
:1018B0001EBD0DB407FEFDCF8EB58093F1001EBD99
:1018C0000DB407FEFDCF8EB58093F1001EBD0DB4A3
:1018D00007FEFDCF8EB58093F1001EBD0DB407FE4F
:1018E000FDCF8EB58093F1001EBD0DB407FEFDCF78
:1018F0008EB58093F1001EBD0DB407FEFDCF8EB5F1
:101900008093F1001EBD0DB407FEFDCF8EB5809310
:10191000F1001EBD0DB407FEFDCF8EB58093F10022
:101920001EBD0DB407FEFDCF8EB58093F1001EBD28
:101930000DB407FEFDCF8EB58093F1001EBD0DB432
:1019400007FEFDCF8EB58093F1001EBD0DB407FEDE
:10195000FDCF8EB58093F1001EBD0DB407FEFDCF07
:101960008EB58093F1001EBD0DB407FEFDCF8EB580
:101970008093F1001EBD0DB407FEFDCF8EB58093A0
:10198000F1001EBD0DB407FEFDCF8EB58093F100B2
:101990001EBD0DB407FEFDCF8EB58093F1001EBDB8
:1019A0000DB407FEFDCF8EB58093F1001EBD0DB4C2
:1019B00007FEFDCF8EB58093F1001EBD0DB407FE6E
:1019C000FDCF8EB58093F1001EBD0DB407FEFDCF97
:1019D0008EB58093F1001EBD0DB407FEFDCF8EB510
:1019E0008093F1001EBD0DB407FEFDCF8EB5809330
:1019F000F1001EBD0DB407FEFDCF8EB58093F10042
:101A00001EBD0DB407FEFDCF8EB58093F1001EBD47
:101A10000DB407FEFDCF8EB58093F1001EBD0DB451
:101A200007FEFDCF8EB58093F10078948091E80099
:101A30008F778093E80004C08091EB0080FF2EC078
:101A40008091E80085FFF8CF915009F02DCE80E01D
:101A500092E0A0E0B0E0C80ED91EEA1EFB1E21975E
:101A60001EBD0DB407FEFDCF1EBD0DB407FEFDCF9C
:101A70001EBD0DB407FEFDCF1EBD0DB407FEFDCF8C
:101A8000289A209709F0D4CDC0921501D092160162
:101A9000E0921701F092180181E009C0C09215018F
:101AA000D0921601E0921701F092180180E0DF91C8
:101AB000CF911F91FF90EF90DF90CF900895BF924C
:101AC000CF92DF92EF92FF920F931F93CF93DF930A
:101AD000EC01C0901501D0901601E0901701F09034
:101AE00018010FEF4EEFB42E10E003C01F5F1A3045
:101AF00029F125DC8823D1F3289888E1B701A601D4
:101B000010DB80935803882359F0C0921501D092BE
:101B10001601E0921701F0921801289A90E0E9C1AD
:101B20000EBD0DB407FEFDCFBEBC0DB407FEFDCF4C
:101B300018E00DC08091EB0080FD09C0C092150136
:101B4000D0921601E0921701F0921801E7CF809130
:101B5000E80085FFEFCFF8948091F1008EBD0DB4C1
:101B600007FEFDCF8091F1008EBD0DB407FEFDCFC5
:101B70008091F1008EBD0DB407FEFDCF8091F10084
:101B80008EBD0DB407FEFDCF8091F1008EBD0DB46A
:101B900007FEFDCF8091F1008EBD0DB407FEFDCF95
:101BA0008091F1008EBD0DB407FEFDCF8091F10054
:101BB0008EBD0DB407FEFDCF8091F1008EBD0DB43A
:101BC00007FEFDCF8091F1008EBD0DB407FEFDCF65
:101BD0008091F1008EBD0DB407FEFDCF8091F10024
:101BE0008EBD0DB407FEFDCF8091F1008EBD0DB40A
:101BF00007FEFDCF8091F1008EBD0DB407FEFDCF35
:101C00008091F1008EBD0DB407FEFDCF8091F100F3
:101C10008EBD0DB407FEFDCF8091F1008EBD0DB4D9
:101C200007FEFDCF8091F1008EBD0DB407FEFDCF04
:101C30008091F1008EBD0DB407FEFDCF8091F100C3
:101C40008EBD0DB407FEFDCF8091F1008EBD0DB4A9
:101C500007FEFDCF8091F1008EBD0DB407FEFDCFD4
:101C60008091F1008EBD0DB407FEFDCF8091F10093
:101C70008EBD0DB407FEFDCF8091F1008EBD0DB479
:101C800007FEFDCF8091F1008EBD0DB407FEFDCFA4
:101C90008091F1008EBD0DB407FEFDCF8091F10063
:101CA0008EBD0DB407FEFDCF8091F1008EBD0DB449
:101CB00007FEFDCF8091F1008EBD0DB407FEFDCF74
:101CC0008091F1008EBD0DB407FEFDCF8091F10033
:101CD0008EBD0DB407FEFDCF8091F1008EBD0DB419
:101CE00007FEFDCF8091F1008EBD0DB407FEFDCF44
:101CF0008091F1008EBD0DB407FEFDCF8091F10003
:101D00008EBD0DB407FEFDCF8091F1008EBD0DB4E8
:101D100007FEFDCF8091F1008EBD0DB407FEFDCF13
:101D20008091F1008EBD0DB407FEFDCF8091F100D2
:101D30008EBD0DB407FEFDCF8091F1008EBD0DB4B8
:101D400007FEFDCF8091F1008EBD0DB407FEFDCFE3
:101D50008091F1008EBD0DB407FEFDCF8091F100A2
:101D60008EBD0DB407FEFDCF8091F1008EBD0DB488
:101D700007FEFDCF8091F1008EBD0DB407FEFDCFB3
:101D80008091F1008EBD0DB407FEFDCF8091F10072
:101D90008EBD0DB407FEFDCF8091F1008EBD0DB458
:101DA00007FEFDCF8091F1008EBD0DB407FEFDCF83
:101DB0008091F1008EBD0DB407FEFDCF8091F10042
:101DC0008EBD0DB407FEFDCF8091F1008EBD0DB428
:101DD00007FEFDCF8091F1008EBD0DB407FEFDCF53
:101DE0008091F1008EBD0DB407FEFDCF8091F10012
:101DF0008EBD0DB407FEFDCF8091F1008EBD0DB4F8
:101E000007FEFDCF8091F1008EBD0DB407FEFDCF22
:101E10008091F1008EBD0DB407FEFDCF8091F100E1
:101E20008EBD0DB407FEFDCF8091F1008EBD0DB4C7
:101E300007FEFDCF8091F1008EBD0DB407FEFDCFF2
:101E40008091F1008EBD0DB407FEFDCF8091F100B1
:101E50008EBD0DB407FEFDCF8EB58091E8008B7F5F
:101E60008093E8008091E8008F778093E800789471
:101E7000115009F06CCE0EBD0DB407FEFDCF0EBDA6
:101E80000DB407FEFDCF0EBD0DB407FEFDCF9EB510
:101E900090935803892F8F71853051F0C0921501AE
:101EA000D0921601E0921701F0921801289A21C0F1
:101EB0000EBD0DB407FEFDCF289A80E092E0A0E0B1
:101EC000B0E0C80ED91EEA1EFB1E219709F00CCE09
:101ED000C0921501D0921601E0921701F0921801FC
:101EE00004C01F5F1A3009F419CE29DA8823C9F318
:101EF00091E0892FDF91CF911F910F91FF90EF908B
:101F0000DF90CF90BF90089580E00895EF92FF9208
:101F10000F931F93CF93DF937B018C01EA01809194
:101F20001401882309F475DA80911401813061F479
:101F3000C801B7015BDBCE01C2DD182F67DB1130B2
:101F400019F420E030E002C022E030E0C901DF9166
:101F5000CF911F910F91FF90EF900895EF92FF9214
:101F60000F931F93CF93DF937B018C01EA01809144
:101F70001401882309F44DDA80911401813061F451
:101F8000C801B70122DBCE0142DB182F2EDB113056
:101F900019F420E030E002C022E030E0C901DF9116
:101FA000CF911F910F91FF90EF900895CF93DF9302
:101FB000EC0180911401882309F42BDA809114013B
:101FC000813019F022E030E00EC0809144039091FE
:101FD0004503A0914603B091470388839983AA8360
:101FE000BB8320E030E0C901DF91CF91089580915B
:101FF0001401882309F40DDA80911901813069F008
:10200000813018F08230D1F414C010921401CBDA70
:10201000813089F48093190113C0C5DA813019F435
:1020200020E030E00FC082E080931901109214018B
:1020300007C01092190122E030E004C0109219018B
:1020400023E030E0C9010895882319F4439A4298A7
:102050000895429A43980895282F90E030E74FEF73
:1020600028C0992319F4439A429802C0429A43988F
:10207000409A309300314098809100308091003038
:1020800085FFFCCF8091003085FFFCCF409A4093C4
:1020900000314098409A3093003140988091003050
:1020A0008091003085FFFCCF8091003085FFFCCF10
:1020B0009F5F9217B0F208951F93182F833008F096
:1020C00012E08091750087608093750080917400A4
:1020D000806880937400812FBFDF90E030E720E9B3
:1020E00026C0992319F4439A429802C0429A439811
:1020F000409A3093003140988091003080910030B8
:1021000085FFFCCF8091003085FFFCCF409A209363
:1021100000314098419A10920032419880910030ED
:102120008C3241F4809100308A3D21F49F5F9117F9
:10213000C0F2912F892F1F910895409A80E78093D4
:1021400000314098809100308091003085FFFCCFB5
:102150008091003085FFFCCF809100308170089520
:10216000DF93CF9300D000D000D0CDB7DEB7698326
:102170007A838B839C835E834D83409A80E7809330
:1021800000314098809100308091003085FFFCCF75
:102190008091003085FFFCCF409A1092003140982A
:1021A000419A8D81809300324198419A8E8180932B
:1021B00000324198419AFE01319689818093003224
:1021C0004198419A8181809300324198419A82815D
:1021D000809300324198409A80E380930031409888
:1021E000409A80E780930031409880910030809140
:1021F000003085FFFCCF8091003085FFFCCF409AF6
:1022000010920031409826960FB6F894DEBF0FBEAC
:10221000CDBFCF91DF910895DF93CF9300D000D051
:1022200000D0CDB7DEB769837A838B839C835E83CE
:102230004D83409A80E78093003140988091003030
:102240008091003086FFFCCF8091003086FFFCCF6C
:10225000409A80E8809300314098419A8D81809324
:1022600000324198419A8E81809300324198419A80
:10227000FE0131968981809300324198419A818193
:10228000809300324198419A828180930032419834
:1022900026960FB6F894DEBF0FBECDBFCF91DF916B
:1022A0000895DF93CF9300D000D0CDB7DEB7698318
:1022B0007A838B839C83442339F440E058E050DFD9
:1022C000809100308F3F51F5409A80E78093003134
:1022D0004098809100308091003085FFFCCF809144
:1022E000003085FFFCCF409A80E680930031409813
:1022F000419AFE0131968981809300324198419A3A
:102300008181809300324198419A8281809300328A
:102310004198409A80ED8093003140980F900F9043
:102320000F900F90CF91DF9108953F924F925F925F
:102330006F927F928F929F92AF92BF92CF92DF92D5
:10234000EF92FF920F931F93162F072FF82EE92E6F
:1023500041E0A7DF812F902FAF2DBE2D7C018D0195
:1023600071E4372E64E7462E5DE6552E45E6642E71
:102370003CE6732E20E2922E90E1892E8FE3A82E68
:10238000B12CC12CD12CAE0CBF1CC01ED11EC8015B
:10239000B70148EF57E040DF309200304092003004
:1023A0005092003060920030709200309092003075
:1023B000909200309092003080E4109200301092A1
:1023C000003010920030109200308450B1F7409AE3
:1023D000809200314098EA14FB040C051D0531F091
:1023E0000894E11CF11C011D111DD1CF1F910F910B
:1023F000FF90EF90DF90CF90BF90AF909F908F9025
:102400007F906F905F904F903F900895FF920F9351
:102410001F93182F092FF62ECA01B90140E058E08A
:102420009FDE212F302FC901FC0190E004C0809174
:10243000003081939F5F9F15D1F71F910F91FF90FF
:102440000895409A80E78093003140988091003051
:102450008091003085FFFCCF8091003085FFFCCF5C
:102460000895DF93CF9300D000D0CDB7DEB7698356
:102470007A838B839C83409A80E7809300314098D5
:10248000809100308091003085FFFCCF809100303A
:1024900085FFFCCF409A109200314098419A1092EB
:1024A00000324198419A109200324198419AFE01BF
:1024B00031968981809300324198419A818180933D
:1024C00000324198419A8281809300324198409A2B
:1024D00085E3809300314098409A80E780930031F3
:1024E0004098809100308091003085FFFCCF809132
:1024F000003085FFFCCF0F900F900F900F90CF9181
:10250000DF91089580E008959C0140E050E096E05E
:10251000220F331F441F551F9A95D1F7B901CA01E5
:102520000895EF92FF920F931F93E0902701F09090
:1025300028010091290110912A01609122017091D6
:102540002301CB01A0E0B0E0A80197012370307017
:1025500040705070820F931FA41FB51F0497A105F0
:10256000B10508F461C080912401AB01481B5109F9
:102570005093230140932201E80EF11C011D111D0F
:10258000E0922701F09228010093290110932A017B
:1025900010922601109225014430510518F4409301
:1025A000240103C084E08093240120917F0C2093B8
:1025B0006A03E22FF0E0EE0FFF1FEE0FFF1FEB5755
:1025C000F34F80819181A281B381809366039093C0
:1025D0006703A0936803B09369030196A11DB11D21
:1025E00080839183A283B3832F5F20937F0C21305C
:1025F00011F410927F0CE0917F0CF0E0EE0FFF1FC2
:10260000EE0FFF1FEB57F34F80819181A281B381C1
:1026100080935B0390935C03A0935D03B0935E0390
:10262000452B11F080E007C084E090E090932C01EE
:1026300080932B0181E01F910F91FF90EF900895FF
:10264000982F990F990F990F11C1F894809100302C
:102650008093F100809100308093F10080910030F0
:102660008093F100809100308093F10080910030E0
:102670008093F100809100308093F10080910030D0
:102680008093F100809100308093F10080910030C0
:102690008093F100809100308093F10080910030B0
:1026A0008093F100809100308093F10080910030A0
:1026B0008093F100809100308093F1008091003090
:1026C0008093F100809100308093F1008091003080
:1026D0008093F100809100308093F1008091003070
:1026E0008093F100809100308093F1008091003060
:1026F0008093F100809100308093F1008091003050
:102700008093F100809100308093F100809100303F
:102710008093F100809100308093F100809100302F
:102720008093F100809100308093F100809100301F
:102730008093F100809100308093F100809100300F
:102740008093F100809100308093F10080910030FF
:102750008093F100809100308093F10080910030EF
:102760008093F100809100308093F10080910030DF
:102770008093F100809100308093F10080910030CF
:102780008093F100809100308093F10080910030BF
:102790008093F100809100308093F10080910030AF
:1027A0008093F100809100308093F100809100309F
:1027B0008093F100809100308093F100809100308F
:1027C0008093F100809100308093F100809100307F
:1027D0008093F100809100308093F100809100306F
:1027E0008093F100809100308093F100809100305F
:1027F0008093F100809100308093F100809100304F
:102800008093F100809100308093F100809100303E
:102810008093F100809100308093F100809100302E
:102820008093F100809100308093F100809100301E
:102830008093F100809100308093F100809100300E
:102840008093F100809100308093F1007894809122
:10285000E8008F778093E80004C08091EB0080FF50
:1028600008C08091E80085FFF8CF9150992309F0C6
:10287000ECCE0895982F990F990F990F15C180915B
:10288000EB0080FF14C18091E80085FFF8CFF89439
:102890008091F100809300308091F10080930030AE
:1028A0008091F100809300308091F100809300309E
:1028B0008091F100809300308091F100809300308E
:1028C0008091F100809300308091F100809300307E
:1028D0008091F100809300308091F100809300306E
:1028E0008091F100809300308091F100809300305E
:1028F0008091F100809300308091F100809300304E
:102900008091F100809300308091F100809300303D
:102910008091F100809300308091F100809300302D
:102920008091F100809300308091F100809300301D
:102930008091F100809300308091F100809300300D
:102940008091F100809300308091F10080930030FD
:102950008091F100809300308091F10080930030ED
:102960008091F100809300308091F10080930030DD
:102970008091F100809300308091F10080930030CD
:102980008091F100809300308091F10080930030BD
:102990008091F100809300308091F10080930030AD
:1029A0008091F100809300308091F100809300309D
:1029B0008091F100809300308091F100809300308D
:1029C0008091F100809300308091F100809300307D
:1029D0008091F100809300308091F100809300306D
:1029E0008091F100809300308091F100809300305D
:1029F0008091F100809300308091F100809300304D
:102A00008091F100809300308091F100809300303C
:102A10008091F100809300308091F100809300302C
:102A20008091F100809300308091F100809300301C
:102A30008091F100809300308091F100809300300C
:102A40008091F100809300308091F10080930030FC
:102A50008091F100809300308091F10080930030EC
:102A60008091F100809300308091F10080930030DC
:102A70008091F100809300308091F10080930030CC
:102A80008091F100809300308091F10080930030BC
:102A90008091E8008B7F8093E8008091E8008F7739
:102AA0008093E80078949150992309F0ECCE089532
:102AB00090E080589F4F44E0880F991F4A95E1F7B6
:102AC000409A25E8209300314098419A8093003243
:102AD0004198419A9093003241989FEF25C090937E
:102AE000003090930030109200309093003090931B
:102AF0000030909300308091F90B809300308091EA
:102B0000F80B8093003090930030909300309093B6
:102B10000030909300309093003090930030909369
:102B200000309093003061506623C9F60895FC018F
:102B300032C0808180930030818180930030828117
:102B400080930030838180930030848180930030B3
:102B500085818093003086818093003087818093C7
:102B6000003080858093003081858093003082859D
:102B7000809300308385809300308485809300307B
:102B8000858580930030868580930030878580938B
:102B9000003070966150662361F60895FC0132C0E2
:102BA000809100308083809100308183809100305B
:102BB0008283809100308383809100308483809170
:102BC0000030858380910030868380910030878338
:102BD0008091003080878091003081878091003023
:102BE0008287809100308387809100308487809134
:102BF00000308587809100308687809100308787FC
:102C000070966150662361F60895EF92FF920F93DC
:102C10001F93CF93DF939C01432F46954695042F36
:102C200010E08091610390E001970817190729F4DB
:102C300080915F039091600304C080916203909142
:102C40006303C0E0D0E07E01440F440FF42EE7019F
:102C5000C0E08034910568F43093FC0B2093FB0BAB
:102C600021503040820F931F9093FE0B8093FD0BF9
:102C70001FC0AC014C0F5D1FC901805C9F4F4817FE
:102C8000590758F03093FC0B2093FB0B215C3F4F0E
:102C90003093FE0B2093FD0B0BC0CA01019790935C
:102CA000FE0B8093FD0BCF979093FC0B8093FB0B57
:102CB00080E0CAD9F801EE0FFF1FE251F44F6081A6
:102CC000718180E090E026E0660F771F881F991FD2
:102CD0002A95D1F70F57134FF8012081620F711D0C
:102CE000811D911D4091FB0B5091FC0B4C1B5D0B0A
:102CF000440F551F35DA2091FD0B3091FE0B2F5FED
:102D00003F4F8091FB0B9091FC0B281B390B90E0FF
:102D10000BC0EE0FFF1F80910030E150F44F818314
:102D20008091003080839F5FE92FF0E0E217F30786
:102D300080F38091FA0B81608093FA0BDF91CF9141
:102D40001F910F91FF90EF90089510926C03809166
:102D5000830C9091840C8132910510F080E290E018
:102D600080936D0380E070D96091F60B7091F70B42
:102D700080E090E046E0660F771F881F991F4A9514
:102D8000D1F720916403620F711D811D911D40E0F8
:102D900050E0E6D920916D03EEE6F3E090E008C044
:102DA0008091003081838091003080839F5F3296D4
:102DB0009217B0F380916B03816080936B03089549
:102DC00080E042D96091590370915A0380E090E00D
:102DD000E6E0660F771F881F991FEA95D1F741E05B
:102DE00060CADF93CF9300D000D0CDB7DEB7698340
:102DF0007A838B839C836091F20B7091F30B8091AB
:102E0000F40B9091F50B2DDB409A45E8409300318F
:102E10004098419A83E0809300324198419A38E08B
:102E2000309300324198419AFE0131968981809316
:102E300000324198419A8181809300324198419AB1
:102E400082818093003241988FEF80930030409AC6
:102E5000409300314098419A86E080930032419837
:102E6000419A3093003241982091F90B2093003021
:102E70009091F80B90930030409A40930031409825
:102E8000419A86E1809300324198419A3093003212
:102E900041982093003090930030409A4093003145
:102EA0004098419A86E2809300324198419A30934B
:102EB000003241982093003090930030409A409324
:102EC00000314098419A86E3809300324198419ABC
:102ED0003093003241982093003090930030409A14
:102EE00080E18093003140980F900F900F900F90E9
:102EF000CF91DF9108956F927F929F92AF92BF9290
:102F0000CF92DF92EF92FF920F931F938091020175
:102F1000882309F42DC1837009F424C194E0992E0B
:102F2000981AE82EFF246701DC2CCC24DD0C80915C
:102F30007F0C8AD8A0917F0CB0E0FD01EE0FFF1F3F
:102F4000EE0FFF1FEB57F34F20812F73AA0FBB1F0C
:102F5000A75ABC4F6D917C9180E090E0A6E0660F8F
:102F6000771F881F991FAA95D1F7620F711D811DC8
:102F7000911DA601F5D88091020190910301A091C5
:102F80000401B0910501890D911DA11DB11D809312
:102F9000020190930301A0930401B0930501FEEA9E
:102FA0006F2EF3E07F2E6C0C7D1C192D110F00E0AD
:102FB000E4E016950795EA95E1F7C301602FEEDD91
:102FC00080E890E0E80EF91E74E0EE0CFF1C7A95A4
:102FD000E1F7A0917F0CB0E0FD01EE0FFF1FEE0FB7
:102FE000FF1FEB57F34F20812F73AA0FBB1FA75A68
:102FF000BC4F6D917C9180E090E046E0660F771FBA
:10300000881F991F4A95D1F7620F711D811D911D6F
:10301000A701A6D83EEAA32E33E0B32EAE0CBF1C08
:10302000C501692DBBDDE0917F0CF0E0EE0FFF1FC5
:10303000EE0FFF1FEB57F34F608171818281938107
:10304000A601EAD8C301602F72DD409A85E880931B
:1030500000314098419AE09200324198419A88E0CC
:10306000809300324198C501692D61DD409A80E16D
:1030700080930031409820917F0CE22FF0E0EE0F1A
:10308000FF1FEE0FFF1FEB57F34F80819181A2814D
:10309000B3810196A11DB11D80839183A283B38367
:1030A0005AC080917F0C0E942410E0917F0CF0E0C8
:1030B0009F01220F331F220F331F2B57334FD9018C
:1030C0004C914F73EE0FFF1FE75AFC4F80819181A7
:1030D000A0E0B0E016E0880F991FAA1FBB1F1A9549
:1030E000D1F7840F911DA11DB11D8093F20B909318
:1030F000F30BA093F40BB093F50BF9016081718190
:10310000828193816EDE20917F0CE22FF0E0EE0F42
:10311000FF1FEE0FFF1FEB57F34F80819181A281BC
:10312000B3810196A11DB11D80839183A283B383D6
:103130008091020190910301A0910401B0910501D9
:103140000496A11DB11D8093020190930301A093E9
:103150000401B09305012F5F20937F0C213011F4FF
:1031600010927F0C80910201882309F09ACF28DE0B
:103170008FEF9FEFAFEFBFEF8093020190930301BA
:10318000A0930401B09305011F910F91FF90EF9060
:10319000DF90CF90BF90AF909F907F906F900895F9
:1031A00080E00E9424106091F60B7091F70B80E094
:1031B00090E026E0660F771F881F991F2A95D1F7A8
:1031C00020916403620F711D811D911D40E050E04C
:1031D00023D84091830C5091840CEEEAF3E020E078
:1031E00030E09FEF2417350738F48081809300305A
:1031F00081818093003004C0909300309093003020
:103200002F5F3F4F329684E02030380759F79FEF09
:103210009093003084EB809300308091840C8093F5
:1032200000308091830C8093003081E080930030E7
:103230009093003090930030909300309093003042
:103240009093003090930030809101018093003082
:103250008091000180930030909300309093003073
:1032600090930030409A80E18093003140980E9412
:103270009D1090E0813009F491E0892F0895CF925C
:10328000DF92FF920F931F93DF93CF930F92CDB7EF
:10329000DEB7082F80E00E9424106091F60B709139
:1032A000F70B40916403842F8F5F80936403803415
:1032B00021F0CC24DD24198218C080916C03E82F02
:1032C000F0E0EE0FFF1FE559FC4F2381348130936E
:1032D000F70B2093F60B74836383109264038F5F64
:1032E00080936C036B0181E08983002319F4F090D3
:1032F0006C0302C0F0906D030F2D10E080E090E0B1
:10330000F6E0660F771F881F991FFA95D1F7640FB3
:10331000711D811D911DA801440F551F0E94B01001
:103320004091830C5091840C401B510B440F551F4E
:10333000EEEAF3E020E030E009C0809100308083C5
:103340008091003081832E5F3F4F329624173507DE
:10335000A0F3D901A255BC4FEEE6F3E090E009C01E
:1033600081818C93808111968C9311979F5F129627
:1033700032969F15A8F314DFE981E13069F4B601B4
:1033800080E090E036E0660F771F881F991F3A951E
:10339000D1F741E00E94511180916B038D7F8093A2
:1033A0006B030F90CF91DF911F910F91FF90DF90F2
:1033B000CF9008950F931F93DF93CF9300D0CDB795
:1033C000DEB7182F062F5A83498380E00E9424100D
:1033D000A02FB0E0FD01EE0FFF1FE251F44F60811E
:1033E000718180E090E026E0660F771F881F991FAB
:1033F0002A95D1F7AF57B34F2C91620F711D811DE4
:10340000911D40E050E00E940C1149815A81912F9A
:10341000990F990F990F80E0FC01E255FC4F20E0D5
:1034200030E09FEF2417350738F480818093003017
:1034300081818093003004C09093003090930030DD
:103440002F5F3F4F329684E02030380759F79FEFC7
:103450009093003088EE809300300093003090937A
:1034600000308091610380930030909300308A8116
:103470008093003089818093003090930030909346
:1034800000309093003090930030909300309093F0
:1034900000309093003090930030409A80E1809308
:1034A000003140980E949D1090E0813009F491E035
:1034B000892F0F900F90CF91DF911F910F91089559
:1034C000DF92EF92FF920F931F93CF93DF93D090F1
:1034D000FC0BD694D694CD2DD0E08091610390E082
:1034E0000197C817D90729F400915F031091600371
:1034F00004C0009162031091630380E00E942410D5
:10350000FE01EE0FFF1FE251F44F6081718180E0F8
:1035100090E0B6E0660F771F881F991FBA95D1F724
:10352000FE01EF57F34F2081620F711D811D911D28
:1035300040E050E00E94B010EEEAF3E09801220F64
:10354000331F2E0F3F1F07C0809100308083809172
:10355000003081833296E217F307B1F78091FB0BBD
:103560009091FC0B2091FD0B3091FE0B2F5F3F4F94
:10357000281B390BDC01B370AA0FBB1FA255BC4F2F
:1035800090E00CC0EE0FFF1FE150F44F81818C934F
:10359000808111968C9311979F5F1296E92FF0E02E
:1035A000E217F30778F3FE01EF57F34F80818F5F47
:1035B0008083803409F045C080916B0380FD01C099
:1035C000C4DBDE01AA0FBB1FA251B44FED90FC90EB
:1035D0001197E0916C03F0E0EE0FFF1FE559FC4FEF
:1035E000838194818D939C93F482E382CF57D34F50
:1035F000188280916B03826080936B0380E06D2D55
:10360000A801D8DE00E010E046E0EE0CFF1C001F31
:10361000111F4A95D1F7C801B70141E00E9451112D
:1036200020916C032F5F20936C0330E080916D0339
:1036300090E001972817390741F480E020DE85DB10
:1036400004C080E06D2DA801B5DE8091FA0B8D7F5E
:103650008093FA0BDF91CF911F910F91FF90EF9024
:10366000DF900895CF93DF93EC0180912701909133
:103670002801A0912901B0912A01282F2370892FB8
:103680009A2FAB2FBB27AC019093F90B8093F80BCB
:1036900010927F0C822F880F1092250180932601B3
:1036A00084E0821B90E020912201309123012817B1
:1036B000390708F4C901809324018091FA0B80FF37
:1036C00027C0C130D10541F481FF06C0F9DE8091E9
:1036D000F80B9091F90B99DA2091F80B3091F90BD6
:1036E0008091FB0B9091FC0B2817390738F08091E3
:1036F000FD0B9091FE0B8217930760F48091FA0BFB
:1037000081FF01C0DDDE8091F80B9091F90B01C0C3
:10371000CA017BDA80916B0380FF07C0C130D105FD
:1037200029F481FF03C080E0AADD0FDB4091F80B94
:103730008091FB0B481B60916C03C230D10531F5C1
:10374000A42FB0E0AA0FBB1FA650B44F15962D9121
:103750003C91169730935A0320935903E62FF0E0DB
:10376000EE0FFF1FE559FC4F8381948116969C93C1
:103770008E931597348323838091FA0B8260809314
:10378000FA0B80916B03826080936B03E42FF0E06F
:10379000EE0FFF1FE650F44F858196819C0140E0BB
:1037A00050E076E0220F331F441F551F7A95D1F762
:1037B0002093850C3093860C4093870C5093880C93
:1037C000229781F4262F2F5F20936C0330E08091A5
:1037D0006D0390E001972817390789F580E04FDDE8
:1037E000B4DA2DC08091270190912801A091290180
:1037F000B0912A0162E0B695A795979587956A954D
:10380000D1F7982F9F7380917F0C882361F0892FC7
:1038100090E00196AA2797FDA095BA2F280F391F8F
:103820004A1F5B1F04C0290F311D411D511D2093EC
:10383000850C3093860C4093870C5093880CE09154
:103840007F0CF0E0EE0FFF1FEE0FFF1FEB57F34F63
:1038500080819181A281B38180935B0390935C030B
:10386000A0935D03B0935E03DF91CF910895882309
:1038700071F08091020190910301A0910401B09137
:1038800005018F5F9F4FAF4FBF4F09F034DB81E0E1
:1038900090E0E8DE80E008959F92AF92BF92CF92D1
:1038A000DF92EF92FF920F931F93882371F0809124
:1038B000020190910301A0910401B09105018F5F75
:1038C0009F4FAF4FBF4F09F016DB82E090E0CADE9A
:1038D00080E00E9424106091F60B7091F70B80E05D
:1038E00090E0F6E0660F771F881F991FFA95D1F7D1
:1038F00020916403620F711D811D911D46E058E007
:103900000E940C1110920030409A10E11093003187
:10391000409880E00E9424106091590370915A03EE
:1039200080E090E0E6E0660F771F881F991FEA9518
:10393000D1F743E058E00E940C1110920030409AF9
:103940001093003140988091270190912801A09117
:103950002901B0912A0152E0B695A79597958795D0
:103960005A95D1F74FE3942E9822FF249F1419F013
:10397000EE24E3943CC0E0907F0C39C0EA948E2D95
:103980000E9424100E2D10E0000F111FF801E75ABD
:10399000FC4F80819181A0E0B0E026E0880F991F64
:1039A000AA1FBB1F2A95D1F78A0D9B1DAC1DBD1DFB
:1039B0008093F20B9093F30BA093F40BB093F50B61
:1039C000000F111F0B57134FD8016D917D918D91F1
:1039D0009C9107DAF80180819181A281B3810196DF
:1039E000A11DB11D80839183A283B38304C0AF2C3A
:1039F000BB24CC24DD24EE2009F0C0CFF3949F1427
:103A000008F0B4CFE0902701F0902801009129013F
:103A100010912A0183E090E0A0E0B0E0E822F922D2
:103A20000A231B23B9E0EE0CFF1C001F111FBA95DF
:103A3000D1F7870180917F0C0E942410EF2819F1A3
:103A4000E0917F0CF0E0EE0FFF1FE75AFC4F608122
:103A5000718180E090E0F6E0660F771F881F991F64
:103A6000FA95D1F7690D711D811D911D40E050E05F
:103A70000E94B010B701E4E076956795EA95E1F70A
:103A80008EEA93E08BD8E0917F0CF0E0EE0FFF1F01
:103A9000EE0FFF1FEB57F34F60817181828193819D
:103AA00040E050E00E940C1154E0169507955A959D
:103AB000E1F78EEA93E0602F3AD880E01F910F91F2
:103AC000FF90EF90DF90CF90BF90AF909F900895C0
:103AD0008091020190910301A0910401B091050130
:103AE0008F5F9F4FAF4FBF4F81F005DA8091FA0B88
:103AF00081FF04C0E5DC80E090E087D880916B0313
:103B000081FF03C080E0BBDB20C90895EF92FF92E4
:103B10000F931F93409A20E12093003140987C013D
:103B200000E010E020911E0130911F014091200122
:103B3000509121012E193F09400B510B2093270171
:103B4000309328014093290150932A01892B19F0C1
:103B500080E090E087DD8091270190912801A0917D
:103B60002901B0912A018093020190930301A0934F
:103B70000401B09305018091220190912301892BCA
:103B800061F480915B0390E08F739070892B29F42E
:103B900080917F0C882309F413D981E00E942C10B6
:103BA00080E090E01F910F91FF90EF900895DF92D9
:103BB000EF92FF920F931F937B018C01BA01411585
:103BC000510519F420E030E0F8C09A0140E050E0DF
:103BD0002E0D3F1D401F511F80910001909101014A
:103BE000A0E0B0E0BA2FA92F982F8827821793075B
:103BF000A407B50718F421E030E0DFC0709323017B
:103C000060932201E0922701F0922801009329019C
:103C100010932A0120931E0130931F01409320012D
:103C2000509321011092650381E080931C018093E1
:103C30001D018091020190910301A0910401B091B6
:103C40000501E816F9060A071B07E1F4EE2021F446
:103C500080917F0C8823B1F080E090E003DD8091BB
:103C60007F0C0E94241060915B0370915C03809133
:103C70005D0390915E0340912501509126010E94C1
:103C80000C1102C081E008DE10912401812F0E94F6
:103C90003A1484E0811B612F0E94581580912701FE
:103CA00090912801A0912901B0912A01810F911DC5
:103CB000A11DB11D8093020190930301A093040103
:103CC000B09305010E94911215E1D12EB0E7EB2EC1
:103CD000A0E8FA2E00E16AC080915B0390E08F7348
:103CE0009070892B61F480917F0C882341F4409A75
:103CF00000930031409864D880E0CEDD38C0409A0F
:103D0000D0920031409880917F0C0E942410409AFC
:103D1000E09200314098809100308091003086FF21
:103D2000FCCF8091003086FFFCCF409AF0920031AA
:103D30004098419A80912501809300324198419AA0
:103D400080912601809300324198419A80915B03D3
:103D5000809300324198419A80915C0380930032B5
:103D60004198419A80915D0380930032419810916F
:103D70002401812F0E943A1480E0612F0E9458157F
:103D80008091270190912801A0912901B0912A01E9
:103D9000810F911DA11DB11D80930201909303011C
:103DA000A0930401B09305010E949112882309F4A5
:103DB00093CF80E090E0AADE9C01C9011F910F9192
:103DC000FF90EF90DF900895EF92FF920F931F9373
:103DD0007B018C01FA018091800C882309F4FFCFCC
:103DE0004115510509F499C09A0140E050E02E0DAB
:103DF0003F1D401F511F8091000190910101A0E0E3
:103E0000B0E0BA2FA92F982F882782179307A4070D
:103E1000B50718F421E030E082C0F0932301E0936D
:103E20002201E0922701F0922801009329011093CA
:103E30002A0120931E0130931F01409320015093CB
:103E400021011092650381E080931C0180931D0184
:103E50000EDD80917F0C0E942410E0917F0CF0E039
:103E6000EE0FFF1FEE0FFF1FEB57F34F60817181C5
:103E70008281938140912501509126010E94B010CA
:103E8000809124010E9420130E94911210E342C0ED
:103E900080915B0390E08F739070892B29F480915F
:103EA0007F0C882309F4E3DC80917F0C0E942410AE
:103EB000409A109200314098419A80912501809358
:103EC00000324198419A80912601809300324198B6
:103ED000419A80915B03809300324198419A80918E
:103EE0005C03809300324198419A80915D038093F6
:103EF00000324198409A1093003140980E9421125C
:103F0000409A109200314098809124010E94201321
:103F10000E949112882309F4BBCF20E030E0C90150
:103F20001F910F91FF90EF9008958091800C88234E
:103F300011F080E0089514C50F931F938C01F5DFF5
:103F4000209100013091010140E050E0542F432FB7
:103F5000322F22272150304040405040F80120832A
:103F600031834283538320E030E0882311F021E045
:103F700030E0C9011F910F910895D7DF20E030E0B4
:103F8000882311F021E030E0C90108950F931F93B9
:103F9000DF93CF9300D0CDB7DEB78091E8008B7F61
:103FA0008093E8001091F1000091F1000630F9F0E3
:103FB000073068F4013009F434C1013008F4A1C1BC
:103FC000033009F462C1053009F020C2EDC00930A8
:103FD00009F40FC10A3020F4083009F017C2BAC042
:103FE0000A3009F4C1C10B3009F010C2E7C1103822
:103FF00009F00CC26091F1008091F100813019F05C
:10400000823089F406C082E18093910C8CEB90E0C1
:1040100005C080E28093910C8EEC90E09093930C1D
:104020008093920C05C00E943D2E882309F4EEC1B6
:104030008091F1008091F1008091F100898380915D
:10404000F1008A838091E800877F8093E8002981CE
:104050003A818091910C90E08217930730F48F732E
:104060009070892B21F461E003C02093910C60E0F3
:104070008091E8008F7E8093E8003091920C40910F
:10408000930C2091910C2DC08091E80084FF05C015
:10409000832F942FFC0190E013C08091D90080FF02
:1040A000F7CF8091E80080FFEFCFF2CF522F515031
:1040B000903451F09F5F84918093F1003196252FC9
:1040C0003E2F4F2F222391F78091E80084FD16C0E8
:1040D0008091D90080FF12C08091E8008E7F80938C
:1040E000E800222339F43093920C4093930C109201
:1040F000910C0AC08091E80084FFD3CF3093920CDA
:104100004093930C2093910C6130B9F48091E800B6
:1041100084FF05C012C08091D90080FF04C0809147
:10412000E80080FFF8CF8091E8008E7F8093E80060
:1041300004C08091D90080FF04C08091E80084FF12
:10414000F8CF8091E8008F7E8093E8008091E800AE
:104150008B7F27C0103809F059C18091E800877F14
:104160008093E8008091900C8093F1008091E800AA
:104170008E7F8093E8008091E8008F778093E8003D
:1041800004C08091D90080FF04C08091E80082FFC4
:10419000F8CF8091E8008B7F8093E8008091E80061
:1041A0008F778093E80045C1112309F02FC19091CA
:1041B000F1008091E3009F778078982B9093E30043
:1041C0008091E800877F8093E8008091E8008E7FEF
:1041D0008093E80004C08091D90080FF04C08091E2
:1041E000E80080FFF8CF8091E30080688093E300CF
:1041F00020C1112309F00AC19091F100923008F01A
:1042000005C18091E800877F8093E8009093900C2F
:104210008091E8008E7F8093E800892F0E94672EAE
:1042200008C11123C1F1123009F0F0C08091F100F2
:104230009091F100882309F0E9C0E091F100EF7757
:10424000E093E9008091EB0080FF43C0EE23B1F0E2
:104250008091EB0080618093EB0081E090E00E2E76
:1042600002C0880F991F0A94E2F78093EA00109227
:10427000EA008091EB0088608093EB001092E900E7
:10428000F0E0E757F34F108233C0112321F01230D2
:1042900009F0BCC003C08091F100B8C08091F1006A
:1042A0009091F100882309F0B1C0E091F100EF771F
:1042B00051F48091EB0080628093EB008091E800E4
:1042C000877F8093E800E093E9008091EB0080FD18
:1042D00003C01092E9009AC08091EB008062809345
:1042E000EB001092E900F0E0E757F34F81E08083A4
:1042F0008091E800877F8093E8008091E8008E7FBE
:1043000050CF8091F1008091F100E091F1001138DF
:1043100029F0123859F0103809F078C08091E8007F
:10432000877F8093E8001092F1000DC08091E80033
:10433000877F8093E800F0E0EF77F070E757F34F66
:1043400080818093F1001092F1008091E8008E7FCF
:104350008093E80004C08091D90080FF1ACF80913B
:10436000E80082FFF8CF15CF113809F04FC08091D7
:10437000F1008091F1009091F10099839091F1000A
:104380009A83882309F042C08091E800877F809358
:10439000E80089819A810E94152E8093F100809116
:1043A000E8008E7F8093E80004C08091D90080FFF0
:1043B000F0CE8091E80082FFF8CFEBCE113031F5DE
:1043C0006091F1008091F1009091F10099839091BA
:1043D000F1009A838823D1F48091E800877F80934D
:1043E000E80089819A810E94172E1092E90080913D
:1043F000E8008E7F8093E80004C08091D90080FFA0
:1044000018C08091E80080FFF8CF13C0812F602F83
:104410000E947A2E882369F48091EB008062809359
:10442000EB008091E800877F8093E80081E0809333
:10443000890C0F900F90CF91DF911F910F910895EC
:104440001F920F920FB60F920BB60F9211242F935B
:104450003F934F935F936F937F938F939F93AF930C
:10446000BF93EF93FF938091E10082FF07C080919B
:10447000E20082FF03C08BEF8093E1008091E100B6
:1044800080FF41C08091E20080FF3DC080912D01FE
:104490008130D9F48091900C8823B9F08091E200AA
:1044A0008E7F8093E2008FEE8093E1008091E200A6
:1044B00080618093E20089B58D7F89BD19BC8091B0
:1044C000D80080628093D8001DC08FEE8093E100F9
:1044D00080912E0190912F01806290932F01809303
:1044E0002E018EEF8093E1008091E2008061809345
:1044F000E2008091D80080628093D80089B58D7FDA
:1045000089BD19BCE5DA8091E10084FF27C0809164
:10451000E20084FF23C009B400FC05C08EE089BD21
:1045200009B400FEFDCF8091D8008F7D8093D80024
:104530008FEE8093E1008091E2008F7E8093E20015
:1045400080912E0190912F01806490932F01809390
:104550002E018091E20081608093E2008091E10071
:1045600085FF1AC08091E20085FF16C08091E200AD
:104570008F7E8093E2008FED8093E1008091E200D6
:104580008F7D8093E20080912E0190912F018068B1
:1045900090932F0180932E018091E10083FF12C040
:1045A0008091E20083FF0EC087EF8093E1000E94BC
:1045B000E92D80912E0190912F01916090932F0110
:1045C00080932E01FF91EF91BF91AF919F918F91B9
:1045D0007F916F915F914F913F912F910F900BBE03
:1045E0000F900FBE0F901F9018950C94782D089582
:1045F000E7EDF0E080818160808380818F7B808324
:104600008081806880830C944D2D1092800C809165
:10461000FA0B8C7F8093FA0B80916B038C7F8093D5
:104620006B038FEF9FEFAFEFBFEF8093020190938B
:104630000301A0930401B09305010895FF920F9325
:104640001F93CF93DF93EC01062FF42E162F103417
:1046500098F4CE010E948412610F711D811D911D7D
:1046600041E058E00E94B01080910030912F900FEF
:10467000F81611F4192FEBCF812F801BDF91CF910A
:104680001F910F91FF900895CF93DF9380E00E94D8
:104690002410C0911A01D0911B0121C0CE010E94AB
:1046A000841240E058E00E94B01080910030909158
:1046B00000308F3F99F4983E11F0943B79F4CE018D
:1046C0000E94841241E00E9451110E949D1081308D
:1046D00029F4CE010E9484120E949511219688E04F
:1046E000C030D807D8F2DF91CF9108956F927F92B2
:1046F0008F929F92AF92BF92CF92DF92EF92FF92F2
:104700000F931F93CF93DF938FEF9FEF90936003EF
:1047100080935F0380E094E090936303809362034F
:104720001092940C1092970C109265031092980CB2
:104730008FEF97E09093960C8093950C80E00E9409
:10474000241000911A0110911B01DD24EE24FF2496
:10475000CC24C3943FE5632E33E0732E23E8822EEE
:104760002CE0922E90E0A92E91E0B92E8FC0C801C6
:104770000E9484129B01AC0189E99CE060E10E94E7
:1047800006128091990C8F3F59F480919A0C883EC3
:1047900069F0843BD1F18D3839F08F3F09F474C052
:1047A0000894E11CF11C70C0D3946EC090919B0CD6
:1047B00020919D0C20936103C092940C8091980CE1
:1047C0008F5F8093980CC92FD0E0FE01EE0FFF1F82
:1047D000E251F44F1183008330E021503040C21782
:1047E000D30741F480919F0CF30181838091A00C49
:1047F00080935F030894E11CF11CC80161E048EE5E
:104800001DDFCF57D34F88833FC00894E11CF11CB4
:104810008091970C8130F9F01093F70B0093F60B11
:10482000C80161E044EB0ADF80936403C8010E9481
:1048300084129B01AC0180916403280F311D411D3E
:10484000511D89E99CE060E10E94061280919F0C55
:104850008F3F21F081E0809365031DC080919B0C08
:10486000F401818380919C0C8093830C80919D0C3A
:10487000809330018091A40CF50181838091A50C77
:1048800080930001C092970C0F5F1F4FF8E000303B
:104890001F0708F46CCFF0923301E0923201D092FE
:1048A000310190E080916503813009F491E0892F16
:1048B000DF91CF911F910F91FF90EF90DF90CF90FC
:1048C000BF90AF909F908F907F906F9008950F93BF
:1048D0001F93CF93DF93082F10E0F801EE0FFF1F17
:1048E000EB56F34FC081D1812AC0CE010E948412C1
:1048F0009B01AC0189E99CE068E00E94061280916E
:10490000990C8F3FD9F480919A0C8F3FB9F4809124
:104910009F0C8F3F99F48091A00C8F3F79F4000F8A
:10492000111F0B56134F2197F801D183C083219695
:10493000CE01DF91CF911F910F9108952197809122
:104940001A0190911B01C817D90778F68091F60BD0
:104950009091F70B0E94841241E00E945111FFCF09
:104960002F923F924F925F926F927F928F929F927F
:10497000AF92BF92CF92DF92EF92FF920F931F936D
:10498000DF93CF93CDB7DEB72A970FB6F894DEBF8B
:104990000FBECDBFABDE382F882331F01A861E0143
:1049A0000894211C311C3BC08091940C882321F079
:1049B0008091970C882319F481E0809365032091FE
:1049C000940C213041F4909161038091980C9817D8
:1049D00011F02093650380910001909101012FEF68
:1049E0008F3F920711F0892B19F481E080936503C2
:1049F00080915F03909160038F5F9F4F19F481E076
:104A00008093650380913001813019F081E08093BB
:104A1000650380916503882309F0C0CF7FC25A8562
:104A20005F5F5A87533011F431E07BC22DDE5EDECA
:104A30008823A9F7809132019091330103969093D6
:104A4000330180933201F090310100911A011091ED
:104A50001B01109501951F4F0050184F081B190B93
:104A6000B80180E090E028EE33E040E050E00E94A2
:104A70000B2F4AE096958795779567954A95D1F7DC
:104A80007093010160930001061B170B0F191109A8
:104A90001093840C0093830C0630110508F4FFCFAB
:104AA00080E00E94241080E012DF9093F70B809347
:104AB000F60B0E94841241E00E9451111092610392
:104AC000E0900001F090010180916103082F10E057
:104AD00080E0FDDE000F111F0251144FF801918399
:104AE0008083E0916103F0E0DF01AF57B34F1C9288
:104AF000EE0FFF1FE251F44F808191810E948412DA
:104B000041E00E945111809161038F5F80936103A6
:104B1000F1E0EF16F4E0FF0628F040E05CEFE40E71
:104B2000F51ED2CF1A821982F0926003E0925F03E1
:104B30005524BAC1482E4518752C770C770C66247D
:104B4000209162033091630351E0541530F4530116
:104B5000A20EB31E4424439413C0A0905F03B090F0
:104B60006003A60CB71C842D90E00197FC01E29F26
:104B7000C001E39F900DF29F900D1124A80EB91E65
:104B8000ECEEFBE02FEF21832083329743E0EC3AF9
:104B9000F407C1F7809100019091010199878887FE
:104BA00080E00E942410EFEFFFEFF0935A03E093B0
:104BB000590380911A0190911B019A8389831F8266
:104BC00099249FC0C6010E9484129B01AC0189E90F
:104BD0009CE068E00E9406128091990C8F3F09F0DA
:104BE0008BC080919A0C8F3F09F086C090919F0CEA
:104BF0009F3F29F48091A00C8F3F09F47DC09C83D6
:104C00008091A00C8B83EB80FC8048855985E4164D
:104C1000F50640F0C6010E94841241E00E94511145
:104C200051E05F83E614F70408F466C0EA14FB045D
:104C300008F062C087011370000F111FD801A25540
:104C4000BC4F9C919F3F71F4980121553C4FF90155
:104C500080818F3F39F4F10181818C938081F9014A
:104C600080834AC09E838FEA882E83E0982E800E30
:104C7000911EF40180818D838091590390915A0394
:104C8000FFEF8F3F9F0731F00E94841241E00E94A6
:104C90005111C5CEF092F90BE092F80BC6010E94BB
:104CA000841243E058E00E94B010809100302D81C2
:104CB0003E818F3F31F0D0925A03C0925903C9010F
:104CC0000FC030935A032093590302551C4FF10132
:104CD0008181F8018083F1018081F4018083C60124
:104CE0000E9484126093850C7093860C8093870CCD
:104CF0009093880C992493940894C11CD11CDA8257
:104D0000C982C980DA80F0E0CF16F8E0DF0608F447
:104D100059CF992009F478C08091590390915A0392
:104D20008F5F9F4F09F47BCE10927F0C8091F80B20
:104D30009091F90BA0E0B0E0BA2FA92F982F882707
:104D40008093020190930301A0930401B0930501A5
:104D5000FF2480917F0C0E94241006E018E0E0916F
:104D60007F0CF0E0EE0FFF1FEE0FFF1FEB57F34F2E
:104D70006081718182819381A8010E94B01080912D
:104D800000308F3F21F4809100308F3FD1F180912E
:104D9000020190910301A0910401B09105010196D7
:104DA000A11DB11D8093020190930301A093040102
:104DB000B0930501005F1F4F48E00634140779F6F1
:104DC00020917F0CE22FF0E0EE0FFF1FEE0FFF1F90
:104DD000EB57F34F80819181A281B3810196A11D90
:104DE000B11D80839183A283B3832F5F20937F0CB7
:104DF000213011F410927F0CF39450E4F51609F071
:104E0000A8CF0E947B170BCE8F81882309F007CE95
:104E10000E9424100EEA13E07501EE0CFF1CE00E58
:104E2000F11EC301880F991FE81AF90A15C0F8018D
:104E300080818F3F79F481818F3F61F480E047DD8D
:104E40009A838983F1018181F8018083F101808156
:104E5000F80181830E5F1F4F0E151F0541F722C019
:104E6000052D10E08091610390E001970817190764
:104E700029F440915F035091600304C040916203A4
:104E80005091630380E0652D0E94DA19882341F078
:104E9000000F111F0251144FF8018081918138C019
:104EA0004A9453944420E1F680916103581608F423
:104EB00041CE80E00E9424100EEA13E0EE24FF248D
:104EC00016C080E004DD9A8389830E94841241E049
:104ED0000E945111F1018181F8018083F1018081EB
:104EE000F80181830894E11CF11C0E5F1F4F809133
:104EF000830C9091840CE816F90618F31092640361
:104F00000E94D018882349F08091F60B9091F70BFE
:104F10000E9484120E94951182CD30E081E080933E
:104F2000800C832F2A960FB6F894DEBF0FBECDBF3C
:104F3000CF91DF911F910F91FF90EF90DF90CF9075
:104F4000BF90AF909F908F907F906F905F904F90A9
:104F50003F902F90089549DB88D5FDCF49DB93C55D
:104F6000FDDFF9CFDF93CF93CDB7DEB762970FB6F2
:104F7000F894DEBF0FBECDBF4091B10C433108F0B5
:104F800042E180E789831A828091BE0C8B831C8268
:104F90001D821E821F828AE0888719861A861B86D8
:104FA0001C868091BF0C8D878091C00C8E871F86D8
:104FB000188A198A1A8A9E012F5F3F4FF90103C090
:104FC00081918093F1008E2F821B8417C8F380910A
:104FD000E8008F778093E8008091A90C9091AA0C4B
:104FE000A091AB0CB091AC0C841B9109A109B10943
:104FF0008093A90C9093AA0CA093AB0CB093AC0C2B
:105000001092BD0C1092BE0C1092BF0C1092C00CEE
:1050100081E062960FB6F894DEBF0FBECDBFCF9190
:10502000DF9108958091AE0C90E083709070892B91
:1050300021F48091AF0C882369F081E08093BD0C4E
:1050400085E08093BE0C84E28093BF0C1092C00C6C
:1050500080E008959091B10C913608F090E620E040
:10506000E4EBF0E015C0283019F4E8E9F0E009C0FD
:10507000203119F4E0EAF0E004C0203211F4E0EB52
:10508000F0E084918093F1002F5F243219F0319683
:10509000291748F38091E8008F778093E80080918A
:1050A000A90C9091AA0CA091AB0CB091AC0C821BF6
:1050B0009109A109B1098093A90C9093AA0CA0931E
:1050C000AB0CB093AC0C1092BD0C1092BE0C1092B5
:1050D000BF0C1092C00C81E008951F93182F8823F5
:1050E00011F01092F1006093F1001092F1008091A4
:1050F000C10C0E94F207882321F080E88093F10020
:1051000002C01092F100112331F01092F1001092C0
:10511000F1001092F1001092F1001F9108951F9379
:10512000282F882319F01091B50C02C01091B10CF2
:105130008091AF0C90E08F7390708C31910541F0AD
:105140008F33910509F456C0019709F0F1C020C0D2
:10515000822F6FE0C2DF8CE18093F1008AE08093C0
:10516000F1001092F10085E08093F1001092F100BF
:105170001092F1001092F1001092F1001092F100E3
:105180001092F1001092F10081E08093F10021C0B3
:10519000822F6FE0A2DF81E08093F1008AE08093AC
:1051A000F10090E89093F10083E08093F100109279
:1051B000F1001092F1001092F1001092F1001D30F8
:1051C00040F09093F1001092F1001092F1001092D3
:1051D000F1008091E8008F778093E8008091A90C1E
:1051E0009091AA0CA091AB0CB091AC0C4097A10986
:1051F000B10939C0222359F01D3110F06BE102C012
:10520000612F6250822F69DF1830B1F50BC01C315D
:1052100010F06BE102C0612F615080E05EDF14305E
:1052200059F511C08091E8008F778093E800809154
:10523000A90C9091AA0CA091AB0CB091AC0C089762
:10524000A109B10910C08091E8008F778093E80030
:105250008091A90C9091AA0CA091AB0CB091AC0CD0
:105260000497A109B1098093A90C9093AA0CA0936B
:10527000AB0CB093AC0C69C071E07093F1006AE0C4
:105280006093F10090E89093F10083E08093F10047
:105290001092F1001092F1001092F1001092F100C2
:1052A0002091A90C3091AA0C4091AB0C5091AC0C00
:1052B0001D3060F19093F1001092F1001092F10016
:1052C0001092F1008CE18093F1006093F100109254
:1052D000F10085E08093F1001092F1001092F1004E
:1052E0001092F1001092F1001092F1001092F10072
:1052F0001092F1007093F1008091E8008F77809315
:10530000E8002C5130404040504009C08091E800F6
:105310008F778093E800211B3109410951092093BF
:10532000A90C3093AA0C4093AB0C5093AC0C0DC05D
:1053300081E08093BD0C85E08093BE0C84E2809375
:10534000BF0C1092C00C80E009C01092BD0C1092EE
:10535000BE0C1092BF0C1092C00C81E01F910895FA
:105360000F931F93DF93CF9300D000D000D0CDB721
:10537000DEB7FE0133968091AF0C83838091B00C31
:1053800082838091B10C81838091B20C8B83809158
:10539000B40C8A838091B50C89838091C20C8130D2
:1053A00039F48093BD0C85E08093BE0C84E294C0F8
:1053B0008091A90C9091AA0CA091AB0CB091AC0C6F
:1053C0000097A105B105C1F489819A81892B39F42F
:1053D0001092BD0C1092BE0C1092BF0C09C081E05F
:1053E0008093BD0C85E08093BE0C84E28093BF0C5B
:1053F0001092C00C81E07EC08091C10C0E94F20727
:10540000813039F48093BD0C87E08093BE0C87E235
:1054100063C04B815C816D817E810091A90C1091EC
:10542000AA0C2091AB0C3091AC0CE9E03695279595
:1054300017950795EA95D1F78091C10C98010E94C4
:10544000BC0782309105C9F183309105F1F1892BB8
:1054500009F045C029813A8140E050E08091A90CD3
:105460009091AA0CA091AB0CB091AC0C69E0B695F0
:10547000A795979587956A95D1F7281739074A0711
:105480005B0739F41092BD0C1092BE0C1092BF0C49
:1054900009C081E08093BD0C85E08093BE0C84E25E
:1054A0008093BF0C1092C00C1092A90C1092AA0C01
:1054B0001092AB0C1092AC0C9DCF81E08093BD0C90
:1054C00082E08093BE0C8AE307C081E08093BD0C2C
:1054D00086E08093BE0C88E28093BF0C08C081E018
:1054E0008093BD0C84E08093BE0C1092BF0C109290
:1054F000C00C80E026960FB6F894DEBF0FBECDBF7D
:10550000CF91DF911F910F9108950F931F93DF9318
:10551000CF9300D000D000D0CDB7DEB7FE013396D8
:105520008091AF0C83838091B00C82838091B10C09
:1055300081838091B20C8B838091B40C8A8380919B
:10554000B50C89838091C20C882341F481E080935B
:10555000BD0C85E08093BE0C84E281C00091A90C53
:105560001091AA0C2091AB0C3091AC0C01151105D7
:1055700021053105B9F489819A81892B39F410927A
:10558000BD0C1092BE0C1092BF0C09C081E080933C
:10559000BD0C85E08093BE0C84E28093BF0C10921A
:1055A000C00C4CC04B815C816D817E81A9E0369539
:1055B000279517950795AA95D1F78091C10C980169
:1055C0000E94D70782309105D9F18330910509F403
:1055D0003FC0892B09F046C029813A8140E050E064
:1055E0008091A90C9091AA0CA091AB0CB091AC0C3D
:1055F000F9E0B695A79597958795FA95D1F728176D
:1056000039074A075B0739F41092BD0C1092BE0CA3
:105610001092BF0C09C081E08093BD0C85E080939F
:10562000BE0C84E28093BF0C1092C00C1092A90CA7
:105630001092AA0C1092AB0C1092AC0C81E01DC021
:1056400081E08093BD0C82E08093BE0C8AE307C0AA
:1056500081E08093BD0C86E08093BE0C88E280934D
:10566000BF0C08C081E08093BD0C84E08093BE0C29
:105670001092BF0C1092C00C80E026960FB6F894E2
:10568000DEBF0FBECDBFCF91DF911F910F91089567
:105690000F931F93DF93CF9300D000D0CDB7DEB729
:1056A0008091C10C8E010F5F1F4FB8010E94FE0751
:1056B0008230910509F43FC08330910509F443C05D
:1056C000892B09F04AC0F80183818093F10082811F
:1056D0008093F10081818093F10080818093F100BB
:1056E0001092F1001092F10082E08093F10010928C
:1056F000F1008091E8008F778093E8008091A90CF9
:105700009091AA0CA091AB0CB091AC0C0897A10998
:10571000B1098093A90C9093AA0CA093AB0CB09301
:10572000AC0C1092BD0C1092BE0C1092BF0C1092DB
:10573000C00C81E01DC081E08093BD0C82E08093AD
:10574000BE0C8AE307C081E08093BD0C86E08093A5
:10575000BE0C88E28093BF0C08C081E08093BD0C32
:1057600084E08093BE0C1092BF0C1092C00C80E0BD
:105770000F900F900F900F90CF91DF911F910F918D
:1057800008958091C10C0E9413088230910551F058
:105790008330910579F0892BB9F41092BD0C1092E9
:1057A000BE0C18C081E08093BD0C82E08093BE0CDB
:1057B0008AE307C081E08093BD0C86E08093BE0C35
:1057C00088E28093BF0C08C081E08093BD0C84E028
:1057D0008093BE0C1092BF0C1092C00C81E0089513
:1057E0008091AD0C8A3221F45F9ABADD5F980895FA
:1057F000883221F45D9A89DE5D9808958B3111F12C
:105800008C3160F48330B1F0843018F48823A1F037
:1058100023C0823181F08A31F9F410C0853269F0F9
:10582000863218F48E31C1F40DC08F3259F08A35AA
:1058300099F406C097CBF6CBA4CF2ACF80E001C065
:1058400081E06DCC1092BD0C1092BE0C1092BF0C7A
:105850001092C00C81E0089581E08093BD0C85E03A
:105860008093BE0C80E28093BF0C1092C00C80E04D
:1058700008951F9381E08093E90011E00AC010921F
:10588000E9008091E80083FF02C00E94C61F1093C8
:10589000E9008091EB0085FDF2CF82E08093E90082
:1058A00012E00AC01092E9008091E80083FF02C074
:1058B0000E94C61F1093E9008091EB0085FDF2CF96
:1058C00081E08093E90004C08091EB0080FF38C044
:1058D0008091E80085FFF8CF85E58093F10093E59E
:1058E0009093F10082E48093F1009093F100809115
:1058F00034018093F100809135018093F100809113
:1059000036018093F100809137018093F1008091FE
:10591000A90C8093F1008091AA0C8093F1008091F2
:10592000AB0C8093F1008091AC0C8093F1008091DE
:10593000BD0C8093F1008091E8008F778093E800A0
:105940001F91089582E08093E9002091F1008091F9
:10595000F100833519F490E0253509F091E080914C
:10596000F100823409F091E08091F100833411F468
:105970009923A9F08091E8008B7F8093E8008091C3
:10598000E8008F778093E80091E09093E9008091A0
:10599000EB0080628093EB0090938A0C08958091D5
:1059A000F100809334018091F10080933501809162
:1059B000F100809336018091F1008093370180914E
:1059C000F1008093A90C8091F1008093AA0C809142
:1059D000F1008093AB0C8091F1008093AC0C80912E
:1059E000F100882321F081E08093C20C02C0109264
:1059F000C20C8091F1008093C10C8091C30C88236C
:105A000021F40E94BA078093C10C8091F100EDEA65
:105A1000FCE08091F10081938CE0ED3BF807C9F741
:105A20008091E8008B7F8093E8008091E8008F7779
:105A30008093E8008091C20C813011F48093E900DA
:105A4000CFDE813089F08091EB0080628093EB00A3
:105A50008091C20C813011F0E2E001C0E1E0F0E0A1
:105A6000E757F34F81E0808308958091900C88235D
:105A700049F082E08093E9008091E80082FF02C053
:105A800061DFF7CE08958AB1806F8AB9E2EEF0E067
:105A90008081846080830C9459087894E8EDF0E06C
:105AA00080818F76808380818069808380818F7BF5
:105AB0008083789408958EE089BD09B400FEFDCFFF
:105AC000F8948091D8008F7D8093D80082D0809107
:105AD000E0008E7F8093E00078948091E200816006
